{
	"GrandFatherWill.sol": {
		"GrandFatherWill": {
			"abi": [
				{
					"inputs": [],
					"stateMutability": "payable",
					"type": "constructor"
				},
				{
					"inputs": [],
					"name": "execute",
					"outputs": [],
					"stateMutability": "nonpayable",
					"type": "function"
				},
				{
					"inputs": [
						{
							"internalType": "address payable",
							"name": "memberadress",
							"type": "address"
						},
						{
							"internalType": "uint256",
							"name": "amount",
							"type": "uint256"
						}
					],
					"name": "inherit",
					"outputs": [],
					"stateMutability": "payable",
					"type": "function"
				}
			],
			"devdoc": {
				"kind": "dev",
				"methods": {},
				"version": 1
			},
			"evm": {
				"assembly": "    /* \"GrandFatherWill.sol\":60:1051  contract GrandFatherWill {... */\n  mstore(0x40, 0x80)\n    /* \"GrandFatherWill.sol\":192:202  msg.sender */\n  caller\n    /* \"GrandFatherWill.sol\":184:189  owner */\n  0x00\n  dup1\n    /* \"GrandFatherWill.sol\":184:202  owner = msg.sender */\n  0x0100\n  exp\n  dup2\n  sload\n  dup2\n  0xffffffffffffffffffffffffffffffffffffffff\n  mul\n  not\n  and\n  swap1\n  dup4\n  0xffffffffffffffffffffffffffffffffffffffff\n  and\n  mul\n  or\n  swap1\n  sstore\n  pop\n    /* \"GrandFatherWill.sol\":222:231  msg.value */\n  callvalue\n    /* \"GrandFatherWill.sol\":212:219  fortune */\n  0x01\n    /* \"GrandFatherWill.sol\":212:231  fortune = msg.value */\n  dup2\n  swap1\n  sstore\n  pop\n    /* \"GrandFatherWill.sol\":252:257  false */\n  0x00\n    /* \"GrandFatherWill.sol\":241:249  isPassed */\n  0x02\n  0x00\n    /* \"GrandFatherWill.sol\":241:257  isPassed = false */\n  0x0100\n  exp\n  dup2\n  sload\n  dup2\n  0xff\n  mul\n  not\n  and\n  swap1\n  dup4\n  iszero\n  iszero\n  mul\n  or\n  swap1\n  sstore\n  pop\n    /* \"GrandFatherWill.sol\":60:1051  contract GrandFatherWill {... */\n  dataSize(sub_0)\n  dup1\n  dataOffset(sub_0)\n  0x00\n  codecopy\n  0x00\n  return\nstop\n\nsub_0: assembly {\n        /* \"GrandFatherWill.sol\":60:1051  contract GrandFatherWill {... */\n      mstore(0x40, 0x80)\n      jumpi(tag_1, lt(calldatasize, 0x04))\n      shr(0xe0, calldataload(0x00))\n      dup1\n      0x43bd3d87\n      eq\n      tag_2\n      jumpi\n      dup1\n      0x61461954\n      eq\n      tag_3\n      jumpi\n    tag_1:\n      0x00\n      dup1\n      revert\n        /* \"GrandFatherWill.sol\":581:763  function inherit(address payable memberadress, uint amount) payable public onlyowner{... */\n    tag_2:\n      tag_4\n      0x04\n      dup1\n      calldatasize\n      sub\n      dup2\n      add\n      swap1\n      tag_5\n      swap2\n      swap1\n      tag_6\n      jump\t// in\n    tag_5:\n      tag_7\n      jump\t// in\n    tag_4:\n      stop\n        /* \"GrandFatherWill.sol\":957:1045  function execute()   public onlyowner{... */\n    tag_3:\n      callvalue\n      dup1\n      iszero\n      tag_8\n      jumpi\n      0x00\n      dup1\n      revert\n    tag_8:\n      pop\n      tag_9\n      tag_10\n      jump\t// in\n    tag_9:\n      stop\n        /* \"GrandFatherWill.sol\":581:763  function inherit(address payable memberadress, uint amount) payable public onlyowner{... */\n    tag_7:\n        /* \"GrandFatherWill.sol\":315:325  msg.sender */\n      caller\n        /* \"GrandFatherWill.sol\":307:325  owner ==msg.sender */\n      0xffffffffffffffffffffffffffffffffffffffff\n      and\n        /* \"GrandFatherWill.sol\":307:312  owner */\n      0x00\n      dup1\n      sload\n      swap1\n      0x0100\n      exp\n      swap1\n      div\n      0xffffffffffffffffffffffffffffffffffffffff\n      and\n        /* \"GrandFatherWill.sol\":307:325  owner ==msg.sender */\n      0xffffffffffffffffffffffffffffffffffffffff\n      and\n      eq\n        /* \"GrandFatherWill.sol\":299:369  require(owner ==msg.sender, \"only owner of this contract have access\") */\n      tag_12\n      jumpi\n      mload(0x40)\n      0x08c379a000000000000000000000000000000000000000000000000000000000\n      dup2\n      mstore\n      0x04\n      add\n      tag_13\n      swap1\n      tag_14\n      jump\t// in\n    tag_13:\n      mload(0x40)\n      dup1\n      swap2\n      sub\n      swap1\n      revert\n    tag_12:\n        /* \"GrandFatherWill.sol\":675:687  familyMember */\n      0x03\n        /* \"GrandFatherWill.sol\":693:705  memberadress */\n      dup3\n        /* \"GrandFatherWill.sol\":675:706  familyMember.push(memberadress) */\n      swap1\n      dup1\n      0x01\n      dup2\n      sload\n      add\n      dup1\n      dup3\n      sstore\n      dup1\n      swap2\n      pop\n      pop\n      0x01\n      swap1\n      sub\n      swap1\n      0x00\n      mstore\n      keccak256(0x00, 0x20)\n      add\n      0x00\n      swap1\n      swap2\n      swap1\n      swap2\n      swap1\n      swap2\n      0x0100\n      exp\n      dup2\n      sload\n      dup2\n      0xffffffffffffffffffffffffffffffffffffffff\n      mul\n      not\n      and\n      swap1\n      dup4\n      0xffffffffffffffffffffffffffffffffffffffff\n      and\n      mul\n      or\n      swap1\n      sstore\n      pop\n        /* \"GrandFatherWill.sol\":749:755  amount */\n      dup1\n        /* \"GrandFatherWill.sol\":716:732  givenInheritance */\n      0x04\n        /* \"GrandFatherWill.sol\":716:746  givenInheritance[memberadress] */\n      0x00\n        /* \"GrandFatherWill.sol\":733:745  memberadress */\n      dup5\n        /* \"GrandFatherWill.sol\":716:746  givenInheritance[memberadress] */\n      0xffffffffffffffffffffffffffffffffffffffff\n      and\n      0xffffffffffffffffffffffffffffffffffffffff\n      and\n      dup2\n      mstore\n      0x20\n      add\n      swap1\n      dup2\n      mstore\n      0x20\n      add\n      0x00\n      keccak256\n        /* \"GrandFatherWill.sol\":716:755  givenInheritance[memberadress] = amount */\n      dup2\n      swap1\n      sstore\n      pop\n        /* \"GrandFatherWill.sol\":581:763  function inherit(address payable memberadress, uint amount) payable public onlyowner{... */\n      pop\n      pop\n      jump\t// out\n        /* \"GrandFatherWill.sol\":957:1045  function execute()   public onlyowner{... */\n    tag_10:\n        /* \"GrandFatherWill.sol\":315:325  msg.sender */\n      caller\n        /* \"GrandFatherWill.sol\":307:325  owner ==msg.sender */\n      0xffffffffffffffffffffffffffffffffffffffff\n      and\n        /* \"GrandFatherWill.sol\":307:312  owner */\n      0x00\n      dup1\n      sload\n      swap1\n      0x0100\n      exp\n      swap1\n      div\n      0xffffffffffffffffffffffffffffffffffffffff\n      and\n        /* \"GrandFatherWill.sol\":307:325  owner ==msg.sender */\n      0xffffffffffffffffffffffffffffffffffffffff\n      and\n      eq\n        /* \"GrandFatherWill.sol\":299:369  require(owner ==msg.sender, \"only owner of this contract have access\") */\n      tag_18\n      jumpi\n      mload(0x40)\n      0x08c379a000000000000000000000000000000000000000000000000000000000\n      dup2\n      mstore\n      0x04\n      add\n      tag_19\n      swap1\n      tag_14\n      jump\t// in\n    tag_19:\n      mload(0x40)\n      dup1\n      swap2\n      sub\n      swap1\n      revert\n    tag_18:\n        /* \"GrandFatherWill.sol\":1015:1019  true */\n      0x01\n        /* \"GrandFatherWill.sol\":1004:1012  isPassed */\n      0x02\n      0x00\n        /* \"GrandFatherWill.sol\":1004:1019  isPassed = true */\n      0x0100\n      exp\n      dup2\n      sload\n      dup2\n      0xff\n      mul\n      not\n      and\n      swap1\n      dup4\n      iszero\n      iszero\n      mul\n      or\n      swap1\n      sstore\n      pop\n        /* \"GrandFatherWill.sol\":1029:1037  payAll() */\n      tag_21\n        /* \"GrandFatherWill.sol\":1029:1035  payAll */\n      tag_22\n        /* \"GrandFatherWill.sol\":1029:1037  payAll() */\n      jump\t// in\n    tag_21:\n        /* \"GrandFatherWill.sol\":957:1045  function execute()   public onlyowner{... */\n      jump\t// out\n        /* \"GrandFatherWill.sol\":770:951  function payAll() private ifPassed {... */\n    tag_22:\n        /* \"GrandFatherWill.sol\":443:447  true */\n      0x01\n        /* \"GrandFatherWill.sol\":431:447  isPassed == true */\n      iszero\n      iszero\n        /* \"GrandFatherWill.sol\":431:439  isPassed */\n      0x02\n      0x00\n      swap1\n      sload\n      swap1\n      0x0100\n      exp\n      swap1\n      div\n      0xff\n      and\n        /* \"GrandFatherWill.sol\":431:447  isPassed == true */\n      iszero\n      iszero\n      eq\n        /* \"GrandFatherWill.sol\":423:471  require(isPassed == true, \"the owner must pass\") */\n      tag_24\n      jumpi\n      mload(0x40)\n      0x08c379a000000000000000000000000000000000000000000000000000000000\n      dup2\n      mstore\n      0x04\n      add\n      tag_25\n      swap1\n      tag_26\n      jump\t// in\n    tag_25:\n      mload(0x40)\n      dup1\n      swap2\n      sub\n      swap1\n      revert\n    tag_24:\n        /* \"GrandFatherWill.sol\":820:826  uint i */\n      0x00\n        /* \"GrandFatherWill.sol\":815:945  for (uint i = 0; i<familyMember.length; i++) {... */\n    tag_28:\n        /* \"GrandFatherWill.sol\":834:846  familyMember */\n      0x03\n        /* \"GrandFatherWill.sol\":834:853  familyMember.length */\n      dup1\n      sload\n      swap1\n      pop\n        /* \"GrandFatherWill.sol\":832:833  i */\n      dup2\n        /* \"GrandFatherWill.sol\":832:853  i<familyMember.length */\n      lt\n        /* \"GrandFatherWill.sol\":815:945  for (uint i = 0; i<familyMember.length; i++) {... */\n      iszero\n      tag_29\n      jumpi\n        /* \"GrandFatherWill.sol\":874:886  familyMember */\n      0x03\n        /* \"GrandFatherWill.sol\":887:888  i */\n      dup2\n        /* \"GrandFatherWill.sol\":874:889  familyMember[i] */\n      dup2\n      sload\n      dup2\n      lt\n      tag_31\n      jumpi\n      tag_32\n      tag_33\n      jump\t// in\n    tag_32:\n    tag_31:\n      swap1\n      0x00\n      mstore\n      keccak256(0x00, 0x20)\n      add\n      0x00\n      swap1\n      sload\n      swap1\n      0x0100\n      exp\n      swap1\n      div\n      0xffffffffffffffffffffffffffffffffffffffff\n      and\n        /* \"GrandFatherWill.sol\":874:898  familyMember[i].transfer */\n      0xffffffffffffffffffffffffffffffffffffffff\n      and\n        /* \"GrandFatherWill.sol\":874:933  familyMember[i].transfer(givenInheritance[familyMember[i]]) */\n      0x08fc\n        /* \"GrandFatherWill.sol\":899:915  givenInheritance */\n      0x04\n        /* \"GrandFatherWill.sol\":899:932  givenInheritance[familyMember[i]] */\n      0x00\n        /* \"GrandFatherWill.sol\":916:928  familyMember */\n      0x03\n        /* \"GrandFatherWill.sol\":929:930  i */\n      dup6\n        /* \"GrandFatherWill.sol\":916:931  familyMember[i] */\n      dup2\n      sload\n      dup2\n      lt\n      tag_35\n      jumpi\n      tag_36\n      tag_33\n      jump\t// in\n    tag_36:\n    tag_35:\n      swap1\n      0x00\n      mstore\n      keccak256(0x00, 0x20)\n      add\n      0x00\n      swap1\n      sload\n      swap1\n      0x0100\n      exp\n      swap1\n      div\n      0xffffffffffffffffffffffffffffffffffffffff\n      and\n        /* \"GrandFatherWill.sol\":899:932  givenInheritance[familyMember[i]] */\n      0xffffffffffffffffffffffffffffffffffffffff\n      and\n      0xffffffffffffffffffffffffffffffffffffffff\n      and\n      dup2\n      mstore\n      0x20\n      add\n      swap1\n      dup2\n      mstore\n      0x20\n      add\n      0x00\n      keccak256\n      sload\n        /* \"GrandFatherWill.sol\":874:933  familyMember[i].transfer(givenInheritance[familyMember[i]]) */\n      swap1\n      dup2\n      iszero\n      mul\n      swap1\n      mload(0x40)\n      0x00\n      mload(0x40)\n      dup1\n      dup4\n      sub\n      dup2\n      dup6\n      dup9\n      dup9\n      call\n      swap4\n      pop\n      pop\n      pop\n      pop\n      iszero\n      dup1\n      iszero\n      tag_39\n      jumpi\n      returndatasize\n      0x00\n      dup1\n      returndatacopy\n      revert(0x00, returndatasize)\n    tag_39:\n      pop\n        /* \"GrandFatherWill.sol\":855:858  i++ */\n      dup1\n      dup1\n      0x01\n      add\n      swap2\n      pop\n      pop\n        /* \"GrandFatherWill.sol\":815:945  for (uint i = 0; i<familyMember.length; i++) {... */\n      jump(tag_28)\n    tag_29:\n      pop\n        /* \"GrandFatherWill.sol\":770:951  function payAll() private ifPassed {... */\n      jump\t// out\n        /* \"#utility.yul\":88:205   */\n    tag_41:\n        /* \"#utility.yul\":197:198   */\n      0x00\n        /* \"#utility.yul\":194:195   */\n      dup1\n        /* \"#utility.yul\":187:199   */\n      revert\n        /* \"#utility.yul\":334:460   */\n    tag_43:\n        /* \"#utility.yul\":371:378   */\n      0x00\n        /* \"#utility.yul\":411:453   */\n      0xffffffffffffffffffffffffffffffffffffffff\n        /* \"#utility.yul\":404:409   */\n      dup3\n        /* \"#utility.yul\":400:454   */\n      and\n        /* \"#utility.yul\":389:454   */\n      swap1\n      pop\n        /* \"#utility.yul\":334:460   */\n      swap2\n      swap1\n      pop\n      jump\t// out\n        /* \"#utility.yul\":466:570   */\n    tag_44:\n        /* \"#utility.yul\":511:518   */\n      0x00\n        /* \"#utility.yul\":540:564   */\n      tag_61\n        /* \"#utility.yul\":558:563   */\n      dup3\n        /* \"#utility.yul\":540:564   */\n      tag_43\n      jump\t// in\n    tag_61:\n        /* \"#utility.yul\":529:564   */\n      swap1\n      pop\n        /* \"#utility.yul\":466:570   */\n      swap2\n      swap1\n      pop\n      jump\t// out\n        /* \"#utility.yul\":576:714   */\n    tag_45:\n        /* \"#utility.yul\":657:689   */\n      tag_63\n        /* \"#utility.yul\":683:688   */\n      dup2\n        /* \"#utility.yul\":657:689   */\n      tag_44\n      jump\t// in\n    tag_63:\n        /* \"#utility.yul\":650:655   */\n      dup2\n        /* \"#utility.yul\":647:690   */\n      eq\n        /* \"#utility.yul\":637:708   */\n      tag_64\n      jumpi\n        /* \"#utility.yul\":704:705   */\n      0x00\n        /* \"#utility.yul\":701:702   */\n      dup1\n        /* \"#utility.yul\":694:706   */\n      revert\n        /* \"#utility.yul\":637:708   */\n    tag_64:\n        /* \"#utility.yul\":576:714   */\n      pop\n      jump\t// out\n        /* \"#utility.yul\":720:875   */\n    tag_46:\n        /* \"#utility.yul\":774:779   */\n      0x00\n        /* \"#utility.yul\":812:818   */\n      dup2\n        /* \"#utility.yul\":799:819   */\n      calldataload\n        /* \"#utility.yul\":790:819   */\n      swap1\n      pop\n        /* \"#utility.yul\":828:869   */\n      tag_66\n        /* \"#utility.yul\":863:868   */\n      dup2\n        /* \"#utility.yul\":828:869   */\n      tag_45\n      jump\t// in\n    tag_66:\n        /* \"#utility.yul\":720:875   */\n      swap3\n      swap2\n      pop\n      pop\n      jump\t// out\n        /* \"#utility.yul\":881:958   */\n    tag_47:\n        /* \"#utility.yul\":918:925   */\n      0x00\n        /* \"#utility.yul\":947:952   */\n      dup2\n        /* \"#utility.yul\":936:952   */\n      swap1\n      pop\n        /* \"#utility.yul\":881:958   */\n      swap2\n      swap1\n      pop\n      jump\t// out\n        /* \"#utility.yul\":964:1086   */\n    tag_48:\n        /* \"#utility.yul\":1037:1061   */\n      tag_69\n        /* \"#utility.yul\":1055:1060   */\n      dup2\n        /* \"#utility.yul\":1037:1061   */\n      tag_47\n      jump\t// in\n    tag_69:\n        /* \"#utility.yul\":1030:1035   */\n      dup2\n        /* \"#utility.yul\":1027:1062   */\n      eq\n        /* \"#utility.yul\":1017:1080   */\n      tag_70\n      jumpi\n        /* \"#utility.yul\":1076:1077   */\n      0x00\n        /* \"#utility.yul\":1073:1074   */\n      dup1\n        /* \"#utility.yul\":1066:1078   */\n      revert\n        /* \"#utility.yul\":1017:1080   */\n    tag_70:\n        /* \"#utility.yul\":964:1086   */\n      pop\n      jump\t// out\n        /* \"#utility.yul\":1092:1231   */\n    tag_49:\n        /* \"#utility.yul\":1138:1143   */\n      0x00\n        /* \"#utility.yul\":1176:1182   */\n      dup2\n        /* \"#utility.yul\":1163:1183   */\n      calldataload\n        /* \"#utility.yul\":1154:1183   */\n      swap1\n      pop\n        /* \"#utility.yul\":1192:1225   */\n      tag_72\n        /* \"#utility.yul\":1219:1224   */\n      dup2\n        /* \"#utility.yul\":1192:1225   */\n      tag_48\n      jump\t// in\n    tag_72:\n        /* \"#utility.yul\":1092:1231   */\n      swap3\n      swap2\n      pop\n      pop\n      jump\t// out\n        /* \"#utility.yul\":1237:1727   */\n    tag_6:\n        /* \"#utility.yul\":1313:1319   */\n      0x00\n        /* \"#utility.yul\":1321:1327   */\n      dup1\n        /* \"#utility.yul\":1370:1372   */\n      0x40\n        /* \"#utility.yul\":1358:1367   */\n      dup4\n        /* \"#utility.yul\":1349:1356   */\n      dup6\n        /* \"#utility.yul\":1345:1368   */\n      sub\n        /* \"#utility.yul\":1341:1373   */\n      slt\n        /* \"#utility.yul\":1338:1457   */\n      iszero\n      tag_74\n      jumpi\n        /* \"#utility.yul\":1376:1455   */\n      tag_75\n      tag_41\n      jump\t// in\n    tag_75:\n        /* \"#utility.yul\":1338:1457   */\n    tag_74:\n        /* \"#utility.yul\":1496:1497   */\n      0x00\n        /* \"#utility.yul\":1521:1582   */\n      tag_76\n        /* \"#utility.yul\":1574:1581   */\n      dup6\n        /* \"#utility.yul\":1565:1571   */\n      dup3\n        /* \"#utility.yul\":1554:1563   */\n      dup7\n        /* \"#utility.yul\":1550:1572   */\n      add\n        /* \"#utility.yul\":1521:1582   */\n      tag_46\n      jump\t// in\n    tag_76:\n        /* \"#utility.yul\":1511:1582   */\n      swap3\n      pop\n        /* \"#utility.yul\":1467:1592   */\n      pop\n        /* \"#utility.yul\":1631:1633   */\n      0x20\n        /* \"#utility.yul\":1657:1710   */\n      tag_77\n        /* \"#utility.yul\":1702:1709   */\n      dup6\n        /* \"#utility.yul\":1693:1699   */\n      dup3\n        /* \"#utility.yul\":1682:1691   */\n      dup7\n        /* \"#utility.yul\":1678:1700   */\n      add\n        /* \"#utility.yul\":1657:1710   */\n      tag_49\n      jump\t// in\n    tag_77:\n        /* \"#utility.yul\":1647:1710   */\n      swap2\n      pop\n        /* \"#utility.yul\":1602:1720   */\n      pop\n        /* \"#utility.yul\":1237:1727   */\n      swap3\n      pop\n      swap3\n      swap1\n      pop\n      jump\t// out\n        /* \"#utility.yul\":1733:1902   */\n    tag_50:\n        /* \"#utility.yul\":1817:1828   */\n      0x00\n        /* \"#utility.yul\":1851:1857   */\n      dup3\n        /* \"#utility.yul\":1846:1849   */\n      dup3\n        /* \"#utility.yul\":1839:1858   */\n      mstore\n        /* \"#utility.yul\":1891:1895   */\n      0x20\n        /* \"#utility.yul\":1886:1889   */\n      dup3\n        /* \"#utility.yul\":1882:1896   */\n      add\n        /* \"#utility.yul\":1867:1896   */\n      swap1\n      pop\n        /* \"#utility.yul\":1733:1902   */\n      swap3\n      swap2\n      pop\n      pop\n      jump\t// out\n        /* \"#utility.yul\":1908:2134   */\n    tag_51:\n        /* \"#utility.yul\":2048:2082   */\n      0x6f6e6c79206f776e6572206f66207468697320636f6e74726163742068617665\n        /* \"#utility.yul\":2044:2045   */\n      0x00\n        /* \"#utility.yul\":2036:2042   */\n      dup3\n        /* \"#utility.yul\":2032:2046   */\n      add\n        /* \"#utility.yul\":2025:2083   */\n      mstore\n        /* \"#utility.yul\":2117:2126   */\n      0x2061636365737300000000000000000000000000000000000000000000000000\n        /* \"#utility.yul\":2112:2114   */\n      0x20\n        /* \"#utility.yul\":2104:2110   */\n      dup3\n        /* \"#utility.yul\":2100:2115   */\n      add\n        /* \"#utility.yul\":2093:2127   */\n      mstore\n        /* \"#utility.yul\":1908:2134   */\n      pop\n      jump\t// out\n        /* \"#utility.yul\":2140:2506   */\n    tag_52:\n        /* \"#utility.yul\":2282:2285   */\n      0x00\n        /* \"#utility.yul\":2303:2370   */\n      tag_81\n        /* \"#utility.yul\":2367:2369   */\n      0x27\n        /* \"#utility.yul\":2362:2365   */\n      dup4\n        /* \"#utility.yul\":2303:2370   */\n      tag_50\n      jump\t// in\n    tag_81:\n        /* \"#utility.yul\":2296:2370   */\n      swap2\n      pop\n        /* \"#utility.yul\":2379:2472   */\n      tag_82\n        /* \"#utility.yul\":2468:2471   */\n      dup3\n        /* \"#utility.yul\":2379:2472   */\n      tag_51\n      jump\t// in\n    tag_82:\n        /* \"#utility.yul\":2497:2499   */\n      0x40\n        /* \"#utility.yul\":2492:2495   */\n      dup3\n        /* \"#utility.yul\":2488:2500   */\n      add\n        /* \"#utility.yul\":2481:2500   */\n      swap1\n      pop\n        /* \"#utility.yul\":2140:2506   */\n      swap2\n      swap1\n      pop\n      jump\t// out\n        /* \"#utility.yul\":2512:2931   */\n    tag_14:\n        /* \"#utility.yul\":2678:2682   */\n      0x00\n        /* \"#utility.yul\":2716:2718   */\n      0x20\n        /* \"#utility.yul\":2705:2714   */\n      dup3\n        /* \"#utility.yul\":2701:2719   */\n      add\n        /* \"#utility.yul\":2693:2719   */\n      swap1\n      pop\n        /* \"#utility.yul\":2765:2774   */\n      dup2\n        /* \"#utility.yul\":2759:2763   */\n      dup2\n        /* \"#utility.yul\":2755:2775   */\n      sub\n        /* \"#utility.yul\":2751:2752   */\n      0x00\n        /* \"#utility.yul\":2740:2749   */\n      dup4\n        /* \"#utility.yul\":2736:2753   */\n      add\n        /* \"#utility.yul\":2729:2776   */\n      mstore\n        /* \"#utility.yul\":2793:2924   */\n      tag_84\n        /* \"#utility.yul\":2919:2923   */\n      dup2\n        /* \"#utility.yul\":2793:2924   */\n      tag_52\n      jump\t// in\n    tag_84:\n        /* \"#utility.yul\":2785:2924   */\n      swap1\n      pop\n        /* \"#utility.yul\":2512:2931   */\n      swap2\n      swap1\n      pop\n      jump\t// out\n        /* \"#utility.yul\":2937:3106   */\n    tag_53:\n        /* \"#utility.yul\":3077:3098   */\n      0x746865206f776e6572206d757374207061737300000000000000000000000000\n        /* \"#utility.yul\":3073:3074   */\n      0x00\n        /* \"#utility.yul\":3065:3071   */\n      dup3\n        /* \"#utility.yul\":3061:3075   */\n      add\n        /* \"#utility.yul\":3054:3099   */\n      mstore\n        /* \"#utility.yul\":2937:3106   */\n      pop\n      jump\t// out\n        /* \"#utility.yul\":3112:3478   */\n    tag_54:\n        /* \"#utility.yul\":3254:3257   */\n      0x00\n        /* \"#utility.yul\":3275:3342   */\n      tag_87\n        /* \"#utility.yul\":3339:3341   */\n      0x13\n        /* \"#utility.yul\":3334:3337   */\n      dup4\n        /* \"#utility.yul\":3275:3342   */\n      tag_50\n      jump\t// in\n    tag_87:\n        /* \"#utility.yul\":3268:3342   */\n      swap2\n      pop\n        /* \"#utility.yul\":3351:3444   */\n      tag_88\n        /* \"#utility.yul\":3440:3443   */\n      dup3\n        /* \"#utility.yul\":3351:3444   */\n      tag_53\n      jump\t// in\n    tag_88:\n        /* \"#utility.yul\":3469:3471   */\n      0x20\n        /* \"#utility.yul\":3464:3467   */\n      dup3\n        /* \"#utility.yul\":3460:3472   */\n      add\n        /* \"#utility.yul\":3453:3472   */\n      swap1\n      pop\n        /* \"#utility.yul\":3112:3478   */\n      swap2\n      swap1\n      pop\n      jump\t// out\n        /* \"#utility.yul\":3484:3903   */\n    tag_26:\n        /* \"#utility.yul\":3650:3654   */\n      0x00\n        /* \"#utility.yul\":3688:3690   */\n      0x20\n        /* \"#utility.yul\":3677:3686   */\n      dup3\n        /* \"#utility.yul\":3673:3691   */\n      add\n        /* \"#utility.yul\":3665:3691   */\n      swap1\n      pop\n        /* \"#utility.yul\":3737:3746   */\n      dup2\n        /* \"#utility.yul\":3731:3735   */\n      dup2\n        /* \"#utility.yul\":3727:3747   */\n      sub\n        /* \"#utility.yul\":3723:3724   */\n      0x00\n        /* \"#utility.yul\":3712:3721   */\n      dup4\n        /* \"#utility.yul\":3708:3725   */\n      add\n        /* \"#utility.yul\":3701:3748   */\n      mstore\n        /* \"#utility.yul\":3765:3896   */\n      tag_90\n        /* \"#utility.yul\":3891:3895   */\n      dup2\n        /* \"#utility.yul\":3765:3896   */\n      tag_54\n      jump\t// in\n    tag_90:\n        /* \"#utility.yul\":3757:3896   */\n      swap1\n      pop\n        /* \"#utility.yul\":3484:3903   */\n      swap2\n      swap1\n      pop\n      jump\t// out\n        /* \"#utility.yul\":3909:4089   */\n    tag_33:\n        /* \"#utility.yul\":3957:4034   */\n      0x4e487b7100000000000000000000000000000000000000000000000000000000\n        /* \"#utility.yul\":3954:3955   */\n      0x00\n        /* \"#utility.yul\":3947:4035   */\n      mstore\n        /* \"#utility.yul\":4054:4058   */\n      0x32\n        /* \"#utility.yul\":4051:4052   */\n      0x04\n        /* \"#utility.yul\":4044:4059   */\n      mstore\n        /* \"#utility.yul\":4078:4082   */\n      0x24\n        /* \"#utility.yul\":4075:4076   */\n      0x00\n        /* \"#utility.yul\":4068:4083   */\n      revert\n\n    auxdata: 0xa26469706673582212206fdaf9ac644757b68f1f1be8601a833d9d089655f1d10dd9c7108ac040e3fb1164736f6c63430008190033\n}\n",
				"bytecode": {
					"linkReferences": {},
					"object": "6080604052335f806101000a81548173ffffffffffffffffffffffffffffffffffffffff021916908373ffffffffffffffffffffffffffffffffffffffff160217905550346001819055505f60025f6101000a81548160ff0219169083151502179055506105e5806100705f395ff3fe608060405260043610610028575f3560e01c806343bd3d871461002c5780636146195414610048575b5f80fd5b6100466004803603810190610041919061043e565b61005e565b005b348015610053575f80fd5b5061005c610191565b005b3373ffffffffffffffffffffffffffffffffffffffff165f8054906101000a900473ffffffffffffffffffffffffffffffffffffffff1673ffffffffffffffffffffffffffffffffffffffff16146100eb576040517f08c379a00000000000000000000000000000000000000000000000000000000081526004016100e2906104fc565b60405180910390fd5b600382908060018154018082558091505060019003905f5260205f20015f9091909190916101000a81548173ffffffffffffffffffffffffffffffffffffffff021916908373ffffffffffffffffffffffffffffffffffffffff1602179055508060045f8473ffffffffffffffffffffffffffffffffffffffff1673ffffffffffffffffffffffffffffffffffffffff1681526020019081526020015f20819055505050565b3373ffffffffffffffffffffffffffffffffffffffff165f8054906101000a900473ffffffffffffffffffffffffffffffffffffffff1673ffffffffffffffffffffffffffffffffffffffff161461021e576040517f08c379a0000000000000000000000000000000000000000000000000000000008152600401610215906104fc565b60405180910390fd5b600160025f6101000a81548160ff021916908315150217905550610240610242565b565b6001151560025f9054906101000a900460ff16151514610297576040517f08c379a000000000000000000000000000000000000000000000000000000000815260040161028e90610564565b60405180910390fd5b5f5b6003805490508110156103aa57600381815481106102ba576102b9610582565b5b905f5260205f20015f9054906101000a900473ffffffffffffffffffffffffffffffffffffffff1673ffffffffffffffffffffffffffffffffffffffff166108fc60045f6003858154811061031257610311610582565b5b905f5260205f20015f9054906101000a900473ffffffffffffffffffffffffffffffffffffffff1673ffffffffffffffffffffffffffffffffffffffff1673ffffffffffffffffffffffffffffffffffffffff1681526020019081526020015f205490811502906040515f60405180830381858888f1935050505015801561039c573d5f803e3d5ffd5b508080600101915050610299565b50565b5f80fd5b5f73ffffffffffffffffffffffffffffffffffffffff82169050919050565b5f6103da826103b1565b9050919050565b6103ea816103d0565b81146103f4575f80fd5b50565b5f81359050610405816103e1565b92915050565b5f819050919050565b61041d8161040b565b8114610427575f80fd5b50565b5f8135905061043881610414565b92915050565b5f8060408385031215610454576104536103ad565b5b5f610461858286016103f7565b92505060206104728582860161042a565b9150509250929050565b5f82825260208201905092915050565b7f6f6e6c79206f776e6572206f66207468697320636f6e747261637420686176655f8201527f2061636365737300000000000000000000000000000000000000000000000000602082015250565b5f6104e660278361047c565b91506104f18261048c565b604082019050919050565b5f6020820190508181035f830152610513816104da565b9050919050565b7f746865206f776e6572206d7573742070617373000000000000000000000000005f82015250565b5f61054e60138361047c565b91506105598261051a565b602082019050919050565b5f6020820190508181035f83015261057b81610542565b9050919050565b7f4e487b71000000000000000000000000000000000000000000000000000000005f52603260045260245ffdfea26469706673582212206fdaf9ac644757b68f1f1be8601a833d9d089655f1d10dd9c7108ac040e3fb1164736f6c63430008190033",
					"opcodes": "PUSH1 0x80 PUSH1 0x40 MSTORE CALLER PUSH0 DUP1 PUSH2 0x100 EXP DUP2 SLOAD DUP2 PUSH20 0xFFFFFFFFFFFFFFFFFFFFFFFFFFFFFFFFFFFFFFFF MUL NOT AND SWAP1 DUP4 PUSH20 0xFFFFFFFFFFFFFFFFFFFFFFFFFFFFFFFFFFFFFFFF AND MUL OR SWAP1 SSTORE POP CALLVALUE PUSH1 0x1 DUP2 SWAP1 SSTORE POP PUSH0 PUSH1 0x2 PUSH0 PUSH2 0x100 EXP DUP2 SLOAD DUP2 PUSH1 0xFF MUL NOT AND SWAP1 DUP4 ISZERO ISZERO MUL OR SWAP1 SSTORE POP PUSH2 0x5E5 DUP1 PUSH2 0x70 PUSH0 CODECOPY PUSH0 RETURN INVALID PUSH1 0x80 PUSH1 0x40 MSTORE PUSH1 0x4 CALLDATASIZE LT PUSH2 0x28 JUMPI PUSH0 CALLDATALOAD PUSH1 0xE0 SHR DUP1 PUSH4 0x43BD3D87 EQ PUSH2 0x2C JUMPI DUP1 PUSH4 0x61461954 EQ PUSH2 0x48 JUMPI JUMPDEST PUSH0 DUP1 REVERT JUMPDEST PUSH2 0x46 PUSH1 0x4 DUP1 CALLDATASIZE SUB DUP2 ADD SWAP1 PUSH2 0x41 SWAP2 SWAP1 PUSH2 0x43E JUMP JUMPDEST PUSH2 0x5E JUMP JUMPDEST STOP JUMPDEST CALLVALUE DUP1 ISZERO PUSH2 0x53 JUMPI PUSH0 DUP1 REVERT JUMPDEST POP PUSH2 0x5C PUSH2 0x191 JUMP JUMPDEST STOP JUMPDEST CALLER PUSH20 0xFFFFFFFFFFFFFFFFFFFFFFFFFFFFFFFFFFFFFFFF AND PUSH0 DUP1 SLOAD SWAP1 PUSH2 0x100 EXP SWAP1 DIV PUSH20 0xFFFFFFFFFFFFFFFFFFFFFFFFFFFFFFFFFFFFFFFF AND PUSH20 0xFFFFFFFFFFFFFFFFFFFFFFFFFFFFFFFFFFFFFFFF AND EQ PUSH2 0xEB JUMPI PUSH1 0x40 MLOAD PUSH32 0x8C379A000000000000000000000000000000000000000000000000000000000 DUP2 MSTORE PUSH1 0x4 ADD PUSH2 0xE2 SWAP1 PUSH2 0x4FC JUMP JUMPDEST PUSH1 0x40 MLOAD DUP1 SWAP2 SUB SWAP1 REVERT JUMPDEST PUSH1 0x3 DUP3 SWAP1 DUP1 PUSH1 0x1 DUP2 SLOAD ADD DUP1 DUP3 SSTORE DUP1 SWAP2 POP POP PUSH1 0x1 SWAP1 SUB SWAP1 PUSH0 MSTORE PUSH1 0x20 PUSH0 KECCAK256 ADD PUSH0 SWAP1 SWAP2 SWAP1 SWAP2 SWAP1 SWAP2 PUSH2 0x100 EXP DUP2 SLOAD DUP2 PUSH20 0xFFFFFFFFFFFFFFFFFFFFFFFFFFFFFFFFFFFFFFFF MUL NOT AND SWAP1 DUP4 PUSH20 0xFFFFFFFFFFFFFFFFFFFFFFFFFFFFFFFFFFFFFFFF AND MUL OR SWAP1 SSTORE POP DUP1 PUSH1 0x4 PUSH0 DUP5 PUSH20 0xFFFFFFFFFFFFFFFFFFFFFFFFFFFFFFFFFFFFFFFF AND PUSH20 0xFFFFFFFFFFFFFFFFFFFFFFFFFFFFFFFFFFFFFFFF AND DUP2 MSTORE PUSH1 0x20 ADD SWAP1 DUP2 MSTORE PUSH1 0x20 ADD PUSH0 KECCAK256 DUP2 SWAP1 SSTORE POP POP POP JUMP JUMPDEST CALLER PUSH20 0xFFFFFFFFFFFFFFFFFFFFFFFFFFFFFFFFFFFFFFFF AND PUSH0 DUP1 SLOAD SWAP1 PUSH2 0x100 EXP SWAP1 DIV PUSH20 0xFFFFFFFFFFFFFFFFFFFFFFFFFFFFFFFFFFFFFFFF AND PUSH20 0xFFFFFFFFFFFFFFFFFFFFFFFFFFFFFFFFFFFFFFFF AND EQ PUSH2 0x21E JUMPI PUSH1 0x40 MLOAD PUSH32 0x8C379A000000000000000000000000000000000000000000000000000000000 DUP2 MSTORE PUSH1 0x4 ADD PUSH2 0x215 SWAP1 PUSH2 0x4FC JUMP JUMPDEST PUSH1 0x40 MLOAD DUP1 SWAP2 SUB SWAP1 REVERT JUMPDEST PUSH1 0x1 PUSH1 0x2 PUSH0 PUSH2 0x100 EXP DUP2 SLOAD DUP2 PUSH1 0xFF MUL NOT AND SWAP1 DUP4 ISZERO ISZERO MUL OR SWAP1 SSTORE POP PUSH2 0x240 PUSH2 0x242 JUMP JUMPDEST JUMP JUMPDEST PUSH1 0x1 ISZERO ISZERO PUSH1 0x2 PUSH0 SWAP1 SLOAD SWAP1 PUSH2 0x100 EXP SWAP1 DIV PUSH1 0xFF AND ISZERO ISZERO EQ PUSH2 0x297 JUMPI PUSH1 0x40 MLOAD PUSH32 0x8C379A000000000000000000000000000000000000000000000000000000000 DUP2 MSTORE PUSH1 0x4 ADD PUSH2 0x28E SWAP1 PUSH2 0x564 JUMP JUMPDEST PUSH1 0x40 MLOAD DUP1 SWAP2 SUB SWAP1 REVERT JUMPDEST PUSH0 JUMPDEST PUSH1 0x3 DUP1 SLOAD SWAP1 POP DUP2 LT ISZERO PUSH2 0x3AA JUMPI PUSH1 0x3 DUP2 DUP2 SLOAD DUP2 LT PUSH2 0x2BA JUMPI PUSH2 0x2B9 PUSH2 0x582 JUMP JUMPDEST JUMPDEST SWAP1 PUSH0 MSTORE PUSH1 0x20 PUSH0 KECCAK256 ADD PUSH0 SWAP1 SLOAD SWAP1 PUSH2 0x100 EXP SWAP1 DIV PUSH20 0xFFFFFFFFFFFFFFFFFFFFFFFFFFFFFFFFFFFFFFFF AND PUSH20 0xFFFFFFFFFFFFFFFFFFFFFFFFFFFFFFFFFFFFFFFF AND PUSH2 0x8FC PUSH1 0x4 PUSH0 PUSH1 0x3 DUP6 DUP2 SLOAD DUP2 LT PUSH2 0x312 JUMPI PUSH2 0x311 PUSH2 0x582 JUMP JUMPDEST JUMPDEST SWAP1 PUSH0 MSTORE PUSH1 0x20 PUSH0 KECCAK256 ADD PUSH0 SWAP1 SLOAD SWAP1 PUSH2 0x100 EXP SWAP1 DIV PUSH20 0xFFFFFFFFFFFFFFFFFFFFFFFFFFFFFFFFFFFFFFFF AND PUSH20 0xFFFFFFFFFFFFFFFFFFFFFFFFFFFFFFFFFFFFFFFF AND PUSH20 0xFFFFFFFFFFFFFFFFFFFFFFFFFFFFFFFFFFFFFFFF AND DUP2 MSTORE PUSH1 0x20 ADD SWAP1 DUP2 MSTORE PUSH1 0x20 ADD PUSH0 KECCAK256 SLOAD SWAP1 DUP2 ISZERO MUL SWAP1 PUSH1 0x40 MLOAD PUSH0 PUSH1 0x40 MLOAD DUP1 DUP4 SUB DUP2 DUP6 DUP9 DUP9 CALL SWAP4 POP POP POP POP ISZERO DUP1 ISZERO PUSH2 0x39C JUMPI RETURNDATASIZE PUSH0 DUP1 RETURNDATACOPY RETURNDATASIZE PUSH0 REVERT JUMPDEST POP DUP1 DUP1 PUSH1 0x1 ADD SWAP2 POP POP PUSH2 0x299 JUMP JUMPDEST POP JUMP JUMPDEST PUSH0 DUP1 REVERT JUMPDEST PUSH0 PUSH20 0xFFFFFFFFFFFFFFFFFFFFFFFFFFFFFFFFFFFFFFFF DUP3 AND SWAP1 POP SWAP2 SWAP1 POP JUMP JUMPDEST PUSH0 PUSH2 0x3DA DUP3 PUSH2 0x3B1 JUMP JUMPDEST SWAP1 POP SWAP2 SWAP1 POP JUMP JUMPDEST PUSH2 0x3EA DUP2 PUSH2 0x3D0 JUMP JUMPDEST DUP2 EQ PUSH2 0x3F4 JUMPI PUSH0 DUP1 REVERT JUMPDEST POP JUMP JUMPDEST PUSH0 DUP2 CALLDATALOAD SWAP1 POP PUSH2 0x405 DUP2 PUSH2 0x3E1 JUMP JUMPDEST SWAP3 SWAP2 POP POP JUMP JUMPDEST PUSH0 DUP2 SWAP1 POP SWAP2 SWAP1 POP JUMP JUMPDEST PUSH2 0x41D DUP2 PUSH2 0x40B JUMP JUMPDEST DUP2 EQ PUSH2 0x427 JUMPI PUSH0 DUP1 REVERT JUMPDEST POP JUMP JUMPDEST PUSH0 DUP2 CALLDATALOAD SWAP1 POP PUSH2 0x438 DUP2 PUSH2 0x414 JUMP JUMPDEST SWAP3 SWAP2 POP POP JUMP JUMPDEST PUSH0 DUP1 PUSH1 0x40 DUP4 DUP6 SUB SLT ISZERO PUSH2 0x454 JUMPI PUSH2 0x453 PUSH2 0x3AD JUMP JUMPDEST JUMPDEST PUSH0 PUSH2 0x461 DUP6 DUP3 DUP7 ADD PUSH2 0x3F7 JUMP JUMPDEST SWAP3 POP POP PUSH1 0x20 PUSH2 0x472 DUP6 DUP3 DUP7 ADD PUSH2 0x42A JUMP JUMPDEST SWAP2 POP POP SWAP3 POP SWAP3 SWAP1 POP JUMP JUMPDEST PUSH0 DUP3 DUP3 MSTORE PUSH1 0x20 DUP3 ADD SWAP1 POP SWAP3 SWAP2 POP POP JUMP JUMPDEST PUSH32 0x6F6E6C79206F776E6572206F66207468697320636F6E74726163742068617665 PUSH0 DUP3 ADD MSTORE PUSH32 0x2061636365737300000000000000000000000000000000000000000000000000 PUSH1 0x20 DUP3 ADD MSTORE POP JUMP JUMPDEST PUSH0 PUSH2 0x4E6 PUSH1 0x27 DUP4 PUSH2 0x47C JUMP JUMPDEST SWAP2 POP PUSH2 0x4F1 DUP3 PUSH2 0x48C JUMP JUMPDEST PUSH1 0x40 DUP3 ADD SWAP1 POP SWAP2 SWAP1 POP JUMP JUMPDEST PUSH0 PUSH1 0x20 DUP3 ADD SWAP1 POP DUP2 DUP2 SUB PUSH0 DUP4 ADD MSTORE PUSH2 0x513 DUP2 PUSH2 0x4DA JUMP JUMPDEST SWAP1 POP SWAP2 SWAP1 POP JUMP JUMPDEST PUSH32 0x746865206F776E6572206D757374207061737300000000000000000000000000 PUSH0 DUP3 ADD MSTORE POP JUMP JUMPDEST PUSH0 PUSH2 0x54E PUSH1 0x13 DUP4 PUSH2 0x47C JUMP JUMPDEST SWAP2 POP PUSH2 0x559 DUP3 PUSH2 0x51A JUMP JUMPDEST PUSH1 0x20 DUP3 ADD SWAP1 POP SWAP2 SWAP1 POP JUMP JUMPDEST PUSH0 PUSH1 0x20 DUP3 ADD SWAP1 POP DUP2 DUP2 SUB PUSH0 DUP4 ADD MSTORE PUSH2 0x57B DUP2 PUSH2 0x542 JUMP JUMPDEST SWAP1 POP SWAP2 SWAP1 POP JUMP JUMPDEST PUSH32 0x4E487B7100000000000000000000000000000000000000000000000000000000 PUSH0 MSTORE PUSH1 0x32 PUSH1 0x4 MSTORE PUSH1 0x24 PUSH0 REVERT INVALID LOG2 PUSH5 0x6970667358 0x22 SLT KECCAK256 PUSH16 0xDAF9AC644757B68F1F1BE8601A833D9D ADDMOD SWAP7 SSTORE CALL 0xD1 0xD 0xD9 0xC7 LT DUP11 0xC0 BLOCKHASH 0xE3 0xFB GT PUSH5 0x736F6C6343 STOP ADDMOD NOT STOP CALLER "
				},
				"gasEstimates": {
					"creation": {
						"codeDepositCost": "301800",
						"executionCost": "70960",
						"totalCost": "372760"
					},
					"external": {
						"execute()": "infinite",
						"inherit(address,uint256)": "73518"
					},
					"internal": {
						"payAll()": "infinite"
					}
				},
				"methodIdentifiers": {
					"execute()": "61461954",
					"inherit(address,uint256)": "43bd3d87"
				}
			},
			"storageLayout": {
				"storage": [
					{
						"astId": 3,
						"contract": "GrandFatherWill.sol:GrandFatherWill",
						"label": "owner",
						"offset": 0,
						"slot": "0",
						"type": "t_address"
					},
					{
						"astId": 5,
						"contract": "GrandFatherWill.sol:GrandFatherWill",
						"label": "fortune",
						"offset": 0,
						"slot": "1",
						"type": "t_uint256"
					},
					{
						"astId": 7,
						"contract": "GrandFatherWill.sol:GrandFatherWill",
						"label": "isPassed",
						"offset": 0,
						"slot": "2",
						"type": "t_bool"
					},
					{
						"astId": 51,
						"contract": "GrandFatherWill.sol:GrandFatherWill",
						"label": "familyMember",
						"offset": 0,
						"slot": "3",
						"type": "t_array(t_address_payable)dyn_storage"
					},
					{
						"astId": 55,
						"contract": "GrandFatherWill.sol:GrandFatherWill",
						"label": "givenInheritance",
						"offset": 0,
						"slot": "4",
						"type": "t_mapping(t_address,t_uint256)"
					}
				],
				"types": {
					"t_address": {
						"encoding": "inplace",
						"label": "address",
						"numberOfBytes": "20"
					},
					"t_address_payable": {
						"encoding": "inplace",
						"label": "address payable",
						"numberOfBytes": "20"
					},
					"t_array(t_address_payable)dyn_storage": {
						"base": "t_address_payable",
						"encoding": "dynamic_array",
						"label": "address payable[]",
						"numberOfBytes": "32"
					},
					"t_bool": {
						"encoding": "inplace",
						"label": "bool",
						"numberOfBytes": "1"
					},
					"t_mapping(t_address,t_uint256)": {
						"encoding": "mapping",
						"key": "t_address",
						"label": "mapping(address => uint256)",
						"numberOfBytes": "32",
						"value": "t_uint256"
					},
					"t_uint256": {
						"encoding": "inplace",
						"label": "uint256",
						"numberOfBytes": "32"
					}
				}
			},
			"userdoc": {
				"kind": "user",
				"methods": {},
				"version": 1
			}
		}
	}
}