{
	"MyCoin.sol": {
		"MyCoin": {
			"abi": [
				{
					"inputs": [],
					"stateMutability": "nonpayable",
					"type": "constructor"
				},
				{
					"inputs": [
						{
							"internalType": "uint256",
							"name": "senderbalance",
							"type": "uint256"
						},
						{
							"internalType": "uint256",
							"name": "amountrequired",
							"type": "uint256"
						}
					],
					"name": "insufficientBalance",
					"type": "error"
				},
				{
					"anonymous": false,
					"inputs": [
						{
							"indexed": false,
							"internalType": "address",
							"name": "from",
							"type": "address"
						},
						{
							"indexed": false,
							"internalType": "address",
							"name": "to",
							"type": "address"
						},
						{
							"indexed": false,
							"internalType": "uint256",
							"name": "amount",
							"type": "uint256"
						}
					],
					"name": "havSent",
					"type": "event"
				},
				{
					"inputs": [
						{
							"internalType": "address",
							"name": "receiver",
							"type": "address"
						},
						{
							"internalType": "uint256",
							"name": "amount",
							"type": "uint256"
						}
					],
					"name": "Send",
					"outputs": [],
					"stateMutability": "nonpayable",
					"type": "function"
				},
				{
					"inputs": [
						{
							"internalType": "address",
							"name": "receiver",
							"type": "address"
						},
						{
							"internalType": "uint256",
							"name": "amount",
							"type": "uint256"
						}
					],
					"name": "mint",
					"outputs": [],
					"stateMutability": "nonpayable",
					"type": "function"
				}
			],
			"devdoc": {
				"kind": "dev",
				"methods": {},
				"version": 1
			},
			"evm": {
				"assembly": "    /* \"MyCoin.sol\":59:869  contract MyCoin {... */\n  mstore(0x40, 0x80)\n    /* \"MyCoin.sol\":276:337  constructor () {... */\n  callvalue\n  dup1\n  iszero\n  tag_1\n  jumpi\n  0x00\n  dup1\n  revert\ntag_1:\n  pop\n    /* \"MyCoin.sol\":310:320  msg.sender */\n  caller\n    /* \"MyCoin.sol\":301:307  minter */\n  0x00\n  dup1\n    /* \"MyCoin.sol\":301:320  minter = msg.sender */\n  0x0100\n  exp\n  dup2\n  sload\n  dup2\n  0xffffffffffffffffffffffffffffffffffffffff\n  mul\n  not\n  and\n  swap1\n  dup4\n  0xffffffffffffffffffffffffffffffffffffffff\n  and\n  mul\n  or\n  swap1\n  sstore\n  pop\n    /* \"MyCoin.sol\":59:869  contract MyCoin {... */\n  dataSize(sub_0)\n  dup1\n  dataOffset(sub_0)\n  0x00\n  codecopy\n  0x00\n  return\nstop\n\nsub_0: assembly {\n        /* \"MyCoin.sol\":59:869  contract MyCoin {... */\n      mstore(0x40, 0x80)\n      callvalue\n      dup1\n      iszero\n      tag_1\n      jumpi\n      0x00\n      dup1\n      revert\n    tag_1:\n      pop\n      jumpi(tag_2, lt(calldatasize, 0x04))\n      shr(0xe0, calldataload(0x00))\n      dup1\n      0x30a3c507\n      eq\n      tag_3\n      jumpi\n      dup1\n      0x40c10f19\n      eq\n      tag_4\n      jumpi\n    tag_2:\n      0x00\n      dup1\n      revert\n        /* \"MyCoin.sol\":516:865  function Send(address receiver, uint amount) public {... */\n    tag_3:\n      tag_5\n      0x04\n      dup1\n      calldatasize\n      sub\n      dup2\n      add\n      swap1\n      tag_6\n      swap2\n      swap1\n      tag_7\n      jump\t// in\n    tag_6:\n      tag_8\n      jump\t// in\n    tag_5:\n      stop\n        /* \"MyCoin.sol\":344:510  function mint(address receiver, uint amount) public  {... */\n    tag_4:\n      tag_9\n      0x04\n      dup1\n      calldatasize\n      sub\n      dup2\n      add\n      swap1\n      tag_10\n      swap2\n      swap1\n      tag_7\n      jump\t// in\n    tag_10:\n      tag_11\n      jump\t// in\n    tag_9:\n      stop\n        /* \"MyCoin.sol\":516:865  function Send(address receiver, uint amount) public {... */\n    tag_8:\n        /* \"MyCoin.sol\":606:612  amount */\n      dup1\n        /* \"MyCoin.sol\":583:591  balances */\n      0x01\n        /* \"MyCoin.sol\":583:603  balances[msg.sender] */\n      0x00\n        /* \"MyCoin.sol\":592:602  msg.sender */\n      caller\n        /* \"MyCoin.sol\":583:603  balances[msg.sender] */\n      0xffffffffffffffffffffffffffffffffffffffff\n      and\n      0xffffffffffffffffffffffffffffffffffffffff\n      and\n      dup2\n      mstore\n      0x20\n      add\n      swap1\n      dup2\n      mstore\n      0x20\n      add\n      0x00\n      keccak256\n      sload\n        /* \"MyCoin.sol\":583:612  balances[msg.sender] < amount */\n      lt\n        /* \"MyCoin.sol\":579:728  if (balances[msg.sender] < amount) {... */\n      iszero\n      tag_13\n      jumpi\n        /* \"MyCoin.sol\":671:679  balances */\n      0x01\n        /* \"MyCoin.sol\":671:691  balances[msg.sender] */\n      0x00\n        /* \"MyCoin.sol\":680:690  msg.sender */\n      caller\n        /* \"MyCoin.sol\":671:691  balances[msg.sender] */\n      0xffffffffffffffffffffffffffffffffffffffff\n      and\n      0xffffffffffffffffffffffffffffffffffffffff\n      and\n      dup2\n      mstore\n      0x20\n      add\n      swap1\n      dup2\n      mstore\n      0x20\n      add\n      0x00\n      keccak256\n      sload\n        /* \"MyCoin.sol\":709:715  amount */\n      dup2\n        /* \"MyCoin.sol\":635:717  insufficientBalance({senderbalance: balances[msg.sender], amountrequired: amount}) */\n      mload(0x40)\n      0xc7a28c7900000000000000000000000000000000000000000000000000000000\n      dup2\n      mstore\n      0x04\n      add\n      tag_14\n      swap3\n      swap2\n      swap1\n      tag_15\n      jump\t// in\n    tag_14:\n      mload(0x40)\n      dup1\n      swap2\n      sub\n      swap1\n      revert\n        /* \"MyCoin.sol\":579:728  if (balances[msg.sender] < amount) {... */\n    tag_13:\n        /* \"MyCoin.sol\":761:767  amount */\n      dup1\n        /* \"MyCoin.sol\":738:746  balances */\n      0x01\n        /* \"MyCoin.sol\":738:758  balances[msg.sender] */\n      0x00\n        /* \"MyCoin.sol\":747:757  msg.sender */\n      caller\n        /* \"MyCoin.sol\":738:758  balances[msg.sender] */\n      0xffffffffffffffffffffffffffffffffffffffff\n      and\n      0xffffffffffffffffffffffffffffffffffffffff\n      and\n      dup2\n      mstore\n      0x20\n      add\n      swap1\n      dup2\n      mstore\n      0x20\n      add\n      0x00\n      keccak256\n      0x00\n        /* \"MyCoin.sol\":738:767  balances[msg.sender] -=amount */\n      dup3\n      dup3\n      sload\n      tag_16\n      swap2\n      swap1\n      tag_17\n      jump\t// in\n    tag_16:\n      swap3\n      pop\n      pop\n      dup2\n      swap1\n      sstore\n      pop\n        /* \"MyCoin.sol\":799:805  amount */\n      dup1\n        /* \"MyCoin.sol\":777:785  balances */\n      0x01\n        /* \"MyCoin.sol\":777:795  balances[receiver] */\n      0x00\n        /* \"MyCoin.sol\":786:794  receiver */\n      dup5\n        /* \"MyCoin.sol\":777:795  balances[receiver] */\n      0xffffffffffffffffffffffffffffffffffffffff\n      and\n      0xffffffffffffffffffffffffffffffffffffffff\n      and\n      dup2\n      mstore\n      0x20\n      add\n      swap1\n      dup2\n      mstore\n      0x20\n      add\n      0x00\n      keccak256\n      0x00\n        /* \"MyCoin.sol\":777:805  balances[receiver] += amount */\n      dup3\n      dup3\n      sload\n      tag_18\n      swap2\n      swap1\n      tag_19\n      jump\t// in\n    tag_18:\n      swap3\n      pop\n      pop\n      dup2\n      swap1\n      sstore\n      pop\n        /* \"MyCoin.sol\":821:858  havSent(msg.sender, receiver, amount) */\n      0x3bc42a905f0423b66ea9301d332e05fec7d271d0833ff8aa98bcb96c6880589d\n        /* \"MyCoin.sol\":829:839  msg.sender */\n      caller\n        /* \"MyCoin.sol\":841:849  receiver */\n      dup4\n        /* \"MyCoin.sol\":851:857  amount */\n      dup4\n        /* \"MyCoin.sol\":821:858  havSent(msg.sender, receiver, amount) */\n      mload(0x40)\n      tag_20\n      swap4\n      swap3\n      swap2\n      swap1\n      tag_21\n      jump\t// in\n    tag_20:\n      mload(0x40)\n      dup1\n      swap2\n      sub\n      swap1\n      log1\n        /* \"MyCoin.sol\":516:865  function Send(address receiver, uint amount) public {... */\n      pop\n      pop\n      jump\t// out\n        /* \"MyCoin.sol\":344:510  function mint(address receiver, uint amount) public  {... */\n    tag_11:\n        /* \"MyCoin.sol\":429:435  minter */\n      0x00\n      dup1\n      sload\n      swap1\n      0x0100\n      exp\n      swap1\n      div\n      0xffffffffffffffffffffffffffffffffffffffff\n      and\n        /* \"MyCoin.sol\":415:435  msg.sender == minter */\n      0xffffffffffffffffffffffffffffffffffffffff\n      and\n        /* \"MyCoin.sol\":415:425  msg.sender */\n      caller\n        /* \"MyCoin.sol\":415:435  msg.sender == minter */\n      0xffffffffffffffffffffffffffffffffffffffff\n      and\n      eq\n        /* \"MyCoin.sol\":407:464  require(msg.sender == minter, \"sender is not the minter\") */\n      tag_23\n      jumpi\n      mload(0x40)\n      0x08c379a000000000000000000000000000000000000000000000000000000000\n      dup2\n      mstore\n      0x04\n      add\n      tag_24\n      swap1\n      tag_25\n      jump\t// in\n    tag_24:\n      mload(0x40)\n      dup1\n      swap2\n      sub\n      swap1\n      revert\n    tag_23:\n        /* \"MyCoin.sol\":496:502  amount */\n      dup1\n        /* \"MyCoin.sol\":474:482  balances */\n      0x01\n        /* \"MyCoin.sol\":474:492  balances[receiver] */\n      0x00\n        /* \"MyCoin.sol\":483:491  receiver */\n      dup5\n        /* \"MyCoin.sol\":474:492  balances[receiver] */\n      0xffffffffffffffffffffffffffffffffffffffff\n      and\n      0xffffffffffffffffffffffffffffffffffffffff\n      and\n      dup2\n      mstore\n      0x20\n      add\n      swap1\n      dup2\n      mstore\n      0x20\n      add\n      0x00\n      keccak256\n      0x00\n        /* \"MyCoin.sol\":474:502  balances[receiver] += amount */\n      dup3\n      dup3\n      sload\n      tag_26\n      swap2\n      swap1\n      tag_19\n      jump\t// in\n    tag_26:\n      swap3\n      pop\n      pop\n      dup2\n      swap1\n      sstore\n      pop\n        /* \"MyCoin.sol\":344:510  function mint(address receiver, uint amount) public  {... */\n      pop\n      pop\n      jump\t// out\n        /* \"#utility.yul\":88:205   */\n    tag_28:\n        /* \"#utility.yul\":197:198   */\n      0x00\n        /* \"#utility.yul\":194:195   */\n      dup1\n        /* \"#utility.yul\":187:199   */\n      revert\n        /* \"#utility.yul\":334:460   */\n    tag_30:\n        /* \"#utility.yul\":371:378   */\n      0x00\n        /* \"#utility.yul\":411:453   */\n      0xffffffffffffffffffffffffffffffffffffffff\n        /* \"#utility.yul\":404:409   */\n      dup3\n        /* \"#utility.yul\":400:454   */\n      and\n        /* \"#utility.yul\":389:454   */\n      swap1\n      pop\n        /* \"#utility.yul\":334:460   */\n      swap2\n      swap1\n      pop\n      jump\t// out\n        /* \"#utility.yul\":466:562   */\n    tag_31:\n        /* \"#utility.yul\":503:510   */\n      0x00\n        /* \"#utility.yul\":532:556   */\n      tag_49\n        /* \"#utility.yul\":550:555   */\n      dup3\n        /* \"#utility.yul\":532:556   */\n      tag_30\n      jump\t// in\n    tag_49:\n        /* \"#utility.yul\":521:556   */\n      swap1\n      pop\n        /* \"#utility.yul\":466:562   */\n      swap2\n      swap1\n      pop\n      jump\t// out\n        /* \"#utility.yul\":568:690   */\n    tag_32:\n        /* \"#utility.yul\":641:665   */\n      tag_51\n        /* \"#utility.yul\":659:664   */\n      dup2\n        /* \"#utility.yul\":641:665   */\n      tag_31\n      jump\t// in\n    tag_51:\n        /* \"#utility.yul\":634:639   */\n      dup2\n        /* \"#utility.yul\":631:666   */\n      eq\n        /* \"#utility.yul\":621:684   */\n      tag_52\n      jumpi\n        /* \"#utility.yul\":680:681   */\n      0x00\n        /* \"#utility.yul\":677:678   */\n      dup1\n        /* \"#utility.yul\":670:682   */\n      revert\n        /* \"#utility.yul\":621:684   */\n    tag_52:\n        /* \"#utility.yul\":568:690   */\n      pop\n      jump\t// out\n        /* \"#utility.yul\":696:835   */\n    tag_33:\n        /* \"#utility.yul\":742:747   */\n      0x00\n        /* \"#utility.yul\":780:786   */\n      dup2\n        /* \"#utility.yul\":767:787   */\n      calldataload\n        /* \"#utility.yul\":758:787   */\n      swap1\n      pop\n        /* \"#utility.yul\":796:829   */\n      tag_54\n        /* \"#utility.yul\":823:828   */\n      dup2\n        /* \"#utility.yul\":796:829   */\n      tag_32\n      jump\t// in\n    tag_54:\n        /* \"#utility.yul\":696:835   */\n      swap3\n      swap2\n      pop\n      pop\n      jump\t// out\n        /* \"#utility.yul\":841:918   */\n    tag_34:\n        /* \"#utility.yul\":878:885   */\n      0x00\n        /* \"#utility.yul\":907:912   */\n      dup2\n        /* \"#utility.yul\":896:912   */\n      swap1\n      pop\n        /* \"#utility.yul\":841:918   */\n      swap2\n      swap1\n      pop\n      jump\t// out\n        /* \"#utility.yul\":924:1046   */\n    tag_35:\n        /* \"#utility.yul\":997:1021   */\n      tag_57\n        /* \"#utility.yul\":1015:1020   */\n      dup2\n        /* \"#utility.yul\":997:1021   */\n      tag_34\n      jump\t// in\n    tag_57:\n        /* \"#utility.yul\":990:995   */\n      dup2\n        /* \"#utility.yul\":987:1022   */\n      eq\n        /* \"#utility.yul\":977:1040   */\n      tag_58\n      jumpi\n        /* \"#utility.yul\":1036:1037   */\n      0x00\n        /* \"#utility.yul\":1033:1034   */\n      dup1\n        /* \"#utility.yul\":1026:1038   */\n      revert\n        /* \"#utility.yul\":977:1040   */\n    tag_58:\n        /* \"#utility.yul\":924:1046   */\n      pop\n      jump\t// out\n        /* \"#utility.yul\":1052:1191   */\n    tag_36:\n        /* \"#utility.yul\":1098:1103   */\n      0x00\n        /* \"#utility.yul\":1136:1142   */\n      dup2\n        /* \"#utility.yul\":1123:1143   */\n      calldataload\n        /* \"#utility.yul\":1114:1143   */\n      swap1\n      pop\n        /* \"#utility.yul\":1152:1185   */\n      tag_60\n        /* \"#utility.yul\":1179:1184   */\n      dup2\n        /* \"#utility.yul\":1152:1185   */\n      tag_35\n      jump\t// in\n    tag_60:\n        /* \"#utility.yul\":1052:1191   */\n      swap3\n      swap2\n      pop\n      pop\n      jump\t// out\n        /* \"#utility.yul\":1197:1671   */\n    tag_7:\n        /* \"#utility.yul\":1265:1271   */\n      0x00\n        /* \"#utility.yul\":1273:1279   */\n      dup1\n        /* \"#utility.yul\":1322:1324   */\n      0x40\n        /* \"#utility.yul\":1310:1319   */\n      dup4\n        /* \"#utility.yul\":1301:1308   */\n      dup6\n        /* \"#utility.yul\":1297:1320   */\n      sub\n        /* \"#utility.yul\":1293:1325   */\n      slt\n        /* \"#utility.yul\":1290:1409   */\n      iszero\n      tag_62\n      jumpi\n        /* \"#utility.yul\":1328:1407   */\n      tag_63\n      tag_28\n      jump\t// in\n    tag_63:\n        /* \"#utility.yul\":1290:1409   */\n    tag_62:\n        /* \"#utility.yul\":1448:1449   */\n      0x00\n        /* \"#utility.yul\":1473:1526   */\n      tag_64\n        /* \"#utility.yul\":1518:1525   */\n      dup6\n        /* \"#utility.yul\":1509:1515   */\n      dup3\n        /* \"#utility.yul\":1498:1507   */\n      dup7\n        /* \"#utility.yul\":1494:1516   */\n      add\n        /* \"#utility.yul\":1473:1526   */\n      tag_33\n      jump\t// in\n    tag_64:\n        /* \"#utility.yul\":1463:1526   */\n      swap3\n      pop\n        /* \"#utility.yul\":1419:1536   */\n      pop\n        /* \"#utility.yul\":1575:1577   */\n      0x20\n        /* \"#utility.yul\":1601:1654   */\n      tag_65\n        /* \"#utility.yul\":1646:1653   */\n      dup6\n        /* \"#utility.yul\":1637:1643   */\n      dup3\n        /* \"#utility.yul\":1626:1635   */\n      dup7\n        /* \"#utility.yul\":1622:1644   */\n      add\n        /* \"#utility.yul\":1601:1654   */\n      tag_36\n      jump\t// in\n    tag_65:\n        /* \"#utility.yul\":1591:1654   */\n      swap2\n      pop\n        /* \"#utility.yul\":1546:1664   */\n      pop\n        /* \"#utility.yul\":1197:1671   */\n      swap3\n      pop\n      swap3\n      swap1\n      pop\n      jump\t// out\n        /* \"#utility.yul\":1677:1795   */\n    tag_37:\n        /* \"#utility.yul\":1764:1788   */\n      tag_67\n        /* \"#utility.yul\":1782:1787   */\n      dup2\n        /* \"#utility.yul\":1764:1788   */\n      tag_34\n      jump\t// in\n    tag_67:\n        /* \"#utility.yul\":1759:1762   */\n      dup3\n        /* \"#utility.yul\":1752:1789   */\n      mstore\n        /* \"#utility.yul\":1677:1795   */\n      pop\n      pop\n      jump\t// out\n        /* \"#utility.yul\":1801:2133   */\n    tag_15:\n        /* \"#utility.yul\":1922:1926   */\n      0x00\n        /* \"#utility.yul\":1960:1962   */\n      0x40\n        /* \"#utility.yul\":1949:1958   */\n      dup3\n        /* \"#utility.yul\":1945:1963   */\n      add\n        /* \"#utility.yul\":1937:1963   */\n      swap1\n      pop\n        /* \"#utility.yul\":1973:2044   */\n      tag_69\n        /* \"#utility.yul\":2041:2042   */\n      0x00\n        /* \"#utility.yul\":2030:2039   */\n      dup4\n        /* \"#utility.yul\":2026:2043   */\n      add\n        /* \"#utility.yul\":2017:2023   */\n      dup6\n        /* \"#utility.yul\":1973:2044   */\n      tag_37\n      jump\t// in\n    tag_69:\n        /* \"#utility.yul\":2054:2126   */\n      tag_70\n        /* \"#utility.yul\":2122:2124   */\n      0x20\n        /* \"#utility.yul\":2111:2120   */\n      dup4\n        /* \"#utility.yul\":2107:2125   */\n      add\n        /* \"#utility.yul\":2098:2104   */\n      dup5\n        /* \"#utility.yul\":2054:2126   */\n      tag_37\n      jump\t// in\n    tag_70:\n        /* \"#utility.yul\":1801:2133   */\n      swap4\n      swap3\n      pop\n      pop\n      pop\n      jump\t// out\n        /* \"#utility.yul\":2139:2319   */\n    tag_38:\n        /* \"#utility.yul\":2187:2264   */\n      0x4e487b7100000000000000000000000000000000000000000000000000000000\n        /* \"#utility.yul\":2184:2185   */\n      0x00\n        /* \"#utility.yul\":2177:2265   */\n      mstore\n        /* \"#utility.yul\":2284:2288   */\n      0x11\n        /* \"#utility.yul\":2281:2282   */\n      0x04\n        /* \"#utility.yul\":2274:2289   */\n      mstore\n        /* \"#utility.yul\":2308:2312   */\n      0x24\n        /* \"#utility.yul\":2305:2306   */\n      0x00\n        /* \"#utility.yul\":2298:2313   */\n      revert\n        /* \"#utility.yul\":2325:2519   */\n    tag_17:\n        /* \"#utility.yul\":2365:2369   */\n      0x00\n        /* \"#utility.yul\":2385:2405   */\n      tag_73\n        /* \"#utility.yul\":2403:2404   */\n      dup3\n        /* \"#utility.yul\":2385:2405   */\n      tag_34\n      jump\t// in\n    tag_73:\n        /* \"#utility.yul\":2380:2405   */\n      swap2\n      pop\n        /* \"#utility.yul\":2419:2439   */\n      tag_74\n        /* \"#utility.yul\":2437:2438   */\n      dup4\n        /* \"#utility.yul\":2419:2439   */\n      tag_34\n      jump\t// in\n    tag_74:\n        /* \"#utility.yul\":2414:2439   */\n      swap3\n      pop\n        /* \"#utility.yul\":2463:2464   */\n      dup3\n        /* \"#utility.yul\":2460:2461   */\n      dup3\n        /* \"#utility.yul\":2456:2465   */\n      sub\n        /* \"#utility.yul\":2448:2465   */\n      swap1\n      pop\n        /* \"#utility.yul\":2487:2488   */\n      dup2\n        /* \"#utility.yul\":2481:2485   */\n      dup2\n        /* \"#utility.yul\":2478:2489   */\n      gt\n        /* \"#utility.yul\":2475:2512   */\n      iszero\n      tag_75\n      jumpi\n        /* \"#utility.yul\":2492:2510   */\n      tag_76\n      tag_38\n      jump\t// in\n    tag_76:\n        /* \"#utility.yul\":2475:2512   */\n    tag_75:\n        /* \"#utility.yul\":2325:2519   */\n      swap3\n      swap2\n      pop\n      pop\n      jump\t// out\n        /* \"#utility.yul\":2525:2716   */\n    tag_19:\n        /* \"#utility.yul\":2565:2568   */\n      0x00\n        /* \"#utility.yul\":2584:2604   */\n      tag_78\n        /* \"#utility.yul\":2602:2603   */\n      dup3\n        /* \"#utility.yul\":2584:2604   */\n      tag_34\n      jump\t// in\n    tag_78:\n        /* \"#utility.yul\":2579:2604   */\n      swap2\n      pop\n        /* \"#utility.yul\":2618:2638   */\n      tag_79\n        /* \"#utility.yul\":2636:2637   */\n      dup4\n        /* \"#utility.yul\":2618:2638   */\n      tag_34\n      jump\t// in\n    tag_79:\n        /* \"#utility.yul\":2613:2638   */\n      swap3\n      pop\n        /* \"#utility.yul\":2661:2662   */\n      dup3\n        /* \"#utility.yul\":2658:2659   */\n      dup3\n        /* \"#utility.yul\":2654:2663   */\n      add\n        /* \"#utility.yul\":2647:2663   */\n      swap1\n      pop\n        /* \"#utility.yul\":2682:2685   */\n      dup1\n        /* \"#utility.yul\":2679:2680   */\n      dup3\n        /* \"#utility.yul\":2676:2686   */\n      gt\n        /* \"#utility.yul\":2673:2709   */\n      iszero\n      tag_80\n      jumpi\n        /* \"#utility.yul\":2689:2707   */\n      tag_81\n      tag_38\n      jump\t// in\n    tag_81:\n        /* \"#utility.yul\":2673:2709   */\n    tag_80:\n        /* \"#utility.yul\":2525:2716   */\n      swap3\n      swap2\n      pop\n      pop\n      jump\t// out\n        /* \"#utility.yul\":2722:2840   */\n    tag_39:\n        /* \"#utility.yul\":2809:2833   */\n      tag_83\n        /* \"#utility.yul\":2827:2832   */\n      dup2\n        /* \"#utility.yul\":2809:2833   */\n      tag_31\n      jump\t// in\n    tag_83:\n        /* \"#utility.yul\":2804:2807   */\n      dup3\n        /* \"#utility.yul\":2797:2834   */\n      mstore\n        /* \"#utility.yul\":2722:2840   */\n      pop\n      pop\n      jump\t// out\n        /* \"#utility.yul\":2846:3288   */\n    tag_21:\n        /* \"#utility.yul\":2995:2999   */\n      0x00\n        /* \"#utility.yul\":3033:3035   */\n      0x60\n        /* \"#utility.yul\":3022:3031   */\n      dup3\n        /* \"#utility.yul\":3018:3036   */\n      add\n        /* \"#utility.yul\":3010:3036   */\n      swap1\n      pop\n        /* \"#utility.yul\":3046:3117   */\n      tag_85\n        /* \"#utility.yul\":3114:3115   */\n      0x00\n        /* \"#utility.yul\":3103:3112   */\n      dup4\n        /* \"#utility.yul\":3099:3116   */\n      add\n        /* \"#utility.yul\":3090:3096   */\n      dup7\n        /* \"#utility.yul\":3046:3117   */\n      tag_39\n      jump\t// in\n    tag_85:\n        /* \"#utility.yul\":3127:3199   */\n      tag_86\n        /* \"#utility.yul\":3195:3197   */\n      0x20\n        /* \"#utility.yul\":3184:3193   */\n      dup4\n        /* \"#utility.yul\":3180:3198   */\n      add\n        /* \"#utility.yul\":3171:3177   */\n      dup6\n        /* \"#utility.yul\":3127:3199   */\n      tag_39\n      jump\t// in\n    tag_86:\n        /* \"#utility.yul\":3209:3281   */\n      tag_87\n        /* \"#utility.yul\":3277:3279   */\n      0x40\n        /* \"#utility.yul\":3266:3275   */\n      dup4\n        /* \"#utility.yul\":3262:3280   */\n      add\n        /* \"#utility.yul\":3253:3259   */\n      dup5\n        /* \"#utility.yul\":3209:3281   */\n      tag_37\n      jump\t// in\n    tag_87:\n        /* \"#utility.yul\":2846:3288   */\n      swap5\n      swap4\n      pop\n      pop\n      pop\n      pop\n      jump\t// out\n        /* \"#utility.yul\":3294:3463   */\n    tag_40:\n        /* \"#utility.yul\":3378:3389   */\n      0x00\n        /* \"#utility.yul\":3412:3418   */\n      dup3\n        /* \"#utility.yul\":3407:3410   */\n      dup3\n        /* \"#utility.yul\":3400:3419   */\n      mstore\n        /* \"#utility.yul\":3452:3456   */\n      0x20\n        /* \"#utility.yul\":3447:3450   */\n      dup3\n        /* \"#utility.yul\":3443:3457   */\n      add\n        /* \"#utility.yul\":3428:3457   */\n      swap1\n      pop\n        /* \"#utility.yul\":3294:3463   */\n      swap3\n      swap2\n      pop\n      pop\n      jump\t// out\n        /* \"#utility.yul\":3469:3643   */\n    tag_41:\n        /* \"#utility.yul\":3609:3635   */\n      0x73656e646572206973206e6f7420746865206d696e7465720000000000000000\n        /* \"#utility.yul\":3605:3606   */\n      0x00\n        /* \"#utility.yul\":3597:3603   */\n      dup3\n        /* \"#utility.yul\":3593:3607   */\n      add\n        /* \"#utility.yul\":3586:3636   */\n      mstore\n        /* \"#utility.yul\":3469:3643   */\n      pop\n      jump\t// out\n        /* \"#utility.yul\":3649:4015   */\n    tag_42:\n        /* \"#utility.yul\":3791:3794   */\n      0x00\n        /* \"#utility.yul\":3812:3879   */\n      tag_91\n        /* \"#utility.yul\":3876:3878   */\n      0x18\n        /* \"#utility.yul\":3871:3874   */\n      dup4\n        /* \"#utility.yul\":3812:3879   */\n      tag_40\n      jump\t// in\n    tag_91:\n        /* \"#utility.yul\":3805:3879   */\n      swap2\n      pop\n        /* \"#utility.yul\":3888:3981   */\n      tag_92\n        /* \"#utility.yul\":3977:3980   */\n      dup3\n        /* \"#utility.yul\":3888:3981   */\n      tag_41\n      jump\t// in\n    tag_92:\n        /* \"#utility.yul\":4006:4008   */\n      0x20\n        /* \"#utility.yul\":4001:4004   */\n      dup3\n        /* \"#utility.yul\":3997:4009   */\n      add\n        /* \"#utility.yul\":3990:4009   */\n      swap1\n      pop\n        /* \"#utility.yul\":3649:4015   */\n      swap2\n      swap1\n      pop\n      jump\t// out\n        /* \"#utility.yul\":4021:4440   */\n    tag_25:\n        /* \"#utility.yul\":4187:4191   */\n      0x00\n        /* \"#utility.yul\":4225:4227   */\n      0x20\n        /* \"#utility.yul\":4214:4223   */\n      dup3\n        /* \"#utility.yul\":4210:4228   */\n      add\n        /* \"#utility.yul\":4202:4228   */\n      swap1\n      pop\n        /* \"#utility.yul\":4274:4283   */\n      dup2\n        /* \"#utility.yul\":4268:4272   */\n      dup2\n        /* \"#utility.yul\":4264:4284   */\n      sub\n        /* \"#utility.yul\":4260:4261   */\n      0x00\n        /* \"#utility.yul\":4249:4258   */\n      dup4\n        /* \"#utility.yul\":4245:4262   */\n      add\n        /* \"#utility.yul\":4238:4285   */\n      mstore\n        /* \"#utility.yul\":4302:4433   */\n      tag_94\n        /* \"#utility.yul\":4428:4432   */\n      dup2\n        /* \"#utility.yul\":4302:4433   */\n      tag_42\n      jump\t// in\n    tag_94:\n        /* \"#utility.yul\":4294:4433   */\n      swap1\n      pop\n        /* \"#utility.yul\":4021:4440   */\n      swap2\n      swap1\n      pop\n      jump\t// out\n\n    auxdata: 0xa26469706673582212204b72901ec62b9e95bb4bd3e39bdccd42464e41313a3350e1f4e2538ca9a7b5a564736f6c63430008190033\n}\n",
				"bytecode": {
					"linkReferences": {},
					"object": "6080604052348015600e575f80fd5b50335f806101000a81548173ffffffffffffffffffffffffffffffffffffffff021916908373ffffffffffffffffffffffffffffffffffffffff1602179055506105848061005b5f395ff3fe608060405234801561000f575f80fd5b5060043610610034575f3560e01c806330a3c5071461003857806340c10f1914610054575b5f80fd5b610052600480360381019061004d919061038b565b610070565b005b61006e6004803603810190610069919061038b565b610216565b005b8060015f3373ffffffffffffffffffffffffffffffffffffffff1673ffffffffffffffffffffffffffffffffffffffff1681526020019081526020015f205410156101315760015f3373ffffffffffffffffffffffffffffffffffffffff1673ffffffffffffffffffffffffffffffffffffffff1681526020019081526020015f2054816040517fc7a28c790000000000000000000000000000000000000000000000000000000081526004016101289291906103d8565b60405180910390fd5b8060015f3373ffffffffffffffffffffffffffffffffffffffff1673ffffffffffffffffffffffffffffffffffffffff1681526020019081526020015f205f82825461017d919061042c565b925050819055508060015f8473ffffffffffffffffffffffffffffffffffffffff1673ffffffffffffffffffffffffffffffffffffffff1681526020019081526020015f205f8282546101d0919061045f565b925050819055507f3bc42a905f0423b66ea9301d332e05fec7d271d0833ff8aa98bcb96c6880589d33838360405161020a939291906104a1565b60405180910390a15050565b5f8054906101000a900473ffffffffffffffffffffffffffffffffffffffff1673ffffffffffffffffffffffffffffffffffffffff163373ffffffffffffffffffffffffffffffffffffffff16146102a3576040517f08c379a000000000000000000000000000000000000000000000000000000000815260040161029a90610530565b60405180910390fd5b8060015f8473ffffffffffffffffffffffffffffffffffffffff1673ffffffffffffffffffffffffffffffffffffffff1681526020019081526020015f205f8282546102ef919061045f565b925050819055505050565b5f80fd5b5f73ffffffffffffffffffffffffffffffffffffffff82169050919050565b5f610327826102fe565b9050919050565b6103378161031d565b8114610341575f80fd5b50565b5f813590506103528161032e565b92915050565b5f819050919050565b61036a81610358565b8114610374575f80fd5b50565b5f8135905061038581610361565b92915050565b5f80604083850312156103a1576103a06102fa565b5b5f6103ae85828601610344565b92505060206103bf85828601610377565b9150509250929050565b6103d281610358565b82525050565b5f6040820190506103eb5f8301856103c9565b6103f860208301846103c9565b9392505050565b7f4e487b71000000000000000000000000000000000000000000000000000000005f52601160045260245ffd5b5f61043682610358565b915061044183610358565b9250828203905081811115610459576104586103ff565b5b92915050565b5f61046982610358565b915061047483610358565b925082820190508082111561048c5761048b6103ff565b5b92915050565b61049b8161031d565b82525050565b5f6060820190506104b45f830186610492565b6104c16020830185610492565b6104ce60408301846103c9565b949350505050565b5f82825260208201905092915050565b7f73656e646572206973206e6f7420746865206d696e74657200000000000000005f82015250565b5f61051a6018836104d6565b9150610525826104e6565b602082019050919050565b5f6020820190508181035f8301526105478161050e565b905091905056fea26469706673582212204b72901ec62b9e95bb4bd3e39bdccd42464e41313a3350e1f4e2538ca9a7b5a564736f6c63430008190033",
					"opcodes": "PUSH1 0x80 PUSH1 0x40 MSTORE CALLVALUE DUP1 ISZERO PUSH1 0xE JUMPI PUSH0 DUP1 REVERT JUMPDEST POP CALLER PUSH0 DUP1 PUSH2 0x100 EXP DUP2 SLOAD DUP2 PUSH20 0xFFFFFFFFFFFFFFFFFFFFFFFFFFFFFFFFFFFFFFFF MUL NOT AND SWAP1 DUP4 PUSH20 0xFFFFFFFFFFFFFFFFFFFFFFFFFFFFFFFFFFFFFFFF AND MUL OR SWAP1 SSTORE POP PUSH2 0x584 DUP1 PUSH2 0x5B PUSH0 CODECOPY PUSH0 RETURN INVALID PUSH1 0x80 PUSH1 0x40 MSTORE CALLVALUE DUP1 ISZERO PUSH2 0xF JUMPI PUSH0 DUP1 REVERT JUMPDEST POP PUSH1 0x4 CALLDATASIZE LT PUSH2 0x34 JUMPI PUSH0 CALLDATALOAD PUSH1 0xE0 SHR DUP1 PUSH4 0x30A3C507 EQ PUSH2 0x38 JUMPI DUP1 PUSH4 0x40C10F19 EQ PUSH2 0x54 JUMPI JUMPDEST PUSH0 DUP1 REVERT JUMPDEST PUSH2 0x52 PUSH1 0x4 DUP1 CALLDATASIZE SUB DUP2 ADD SWAP1 PUSH2 0x4D SWAP2 SWAP1 PUSH2 0x38B JUMP JUMPDEST PUSH2 0x70 JUMP JUMPDEST STOP JUMPDEST PUSH2 0x6E PUSH1 0x4 DUP1 CALLDATASIZE SUB DUP2 ADD SWAP1 PUSH2 0x69 SWAP2 SWAP1 PUSH2 0x38B JUMP JUMPDEST PUSH2 0x216 JUMP JUMPDEST STOP JUMPDEST DUP1 PUSH1 0x1 PUSH0 CALLER PUSH20 0xFFFFFFFFFFFFFFFFFFFFFFFFFFFFFFFFFFFFFFFF AND PUSH20 0xFFFFFFFFFFFFFFFFFFFFFFFFFFFFFFFFFFFFFFFF AND DUP2 MSTORE PUSH1 0x20 ADD SWAP1 DUP2 MSTORE PUSH1 0x20 ADD PUSH0 KECCAK256 SLOAD LT ISZERO PUSH2 0x131 JUMPI PUSH1 0x1 PUSH0 CALLER PUSH20 0xFFFFFFFFFFFFFFFFFFFFFFFFFFFFFFFFFFFFFFFF AND PUSH20 0xFFFFFFFFFFFFFFFFFFFFFFFFFFFFFFFFFFFFFFFF AND DUP2 MSTORE PUSH1 0x20 ADD SWAP1 DUP2 MSTORE PUSH1 0x20 ADD PUSH0 KECCAK256 SLOAD DUP2 PUSH1 0x40 MLOAD PUSH32 0xC7A28C7900000000000000000000000000000000000000000000000000000000 DUP2 MSTORE PUSH1 0x4 ADD PUSH2 0x128 SWAP3 SWAP2 SWAP1 PUSH2 0x3D8 JUMP JUMPDEST PUSH1 0x40 MLOAD DUP1 SWAP2 SUB SWAP1 REVERT JUMPDEST DUP1 PUSH1 0x1 PUSH0 CALLER PUSH20 0xFFFFFFFFFFFFFFFFFFFFFFFFFFFFFFFFFFFFFFFF AND PUSH20 0xFFFFFFFFFFFFFFFFFFFFFFFFFFFFFFFFFFFFFFFF AND DUP2 MSTORE PUSH1 0x20 ADD SWAP1 DUP2 MSTORE PUSH1 0x20 ADD PUSH0 KECCAK256 PUSH0 DUP3 DUP3 SLOAD PUSH2 0x17D SWAP2 SWAP1 PUSH2 0x42C JUMP JUMPDEST SWAP3 POP POP DUP2 SWAP1 SSTORE POP DUP1 PUSH1 0x1 PUSH0 DUP5 PUSH20 0xFFFFFFFFFFFFFFFFFFFFFFFFFFFFFFFFFFFFFFFF AND PUSH20 0xFFFFFFFFFFFFFFFFFFFFFFFFFFFFFFFFFFFFFFFF AND DUP2 MSTORE PUSH1 0x20 ADD SWAP1 DUP2 MSTORE PUSH1 0x20 ADD PUSH0 KECCAK256 PUSH0 DUP3 DUP3 SLOAD PUSH2 0x1D0 SWAP2 SWAP1 PUSH2 0x45F JUMP JUMPDEST SWAP3 POP POP DUP2 SWAP1 SSTORE POP PUSH32 0x3BC42A905F0423B66EA9301D332E05FEC7D271D0833FF8AA98BCB96C6880589D CALLER DUP4 DUP4 PUSH1 0x40 MLOAD PUSH2 0x20A SWAP4 SWAP3 SWAP2 SWAP1 PUSH2 0x4A1 JUMP JUMPDEST PUSH1 0x40 MLOAD DUP1 SWAP2 SUB SWAP1 LOG1 POP POP JUMP JUMPDEST PUSH0 DUP1 SLOAD SWAP1 PUSH2 0x100 EXP SWAP1 DIV PUSH20 0xFFFFFFFFFFFFFFFFFFFFFFFFFFFFFFFFFFFFFFFF AND PUSH20 0xFFFFFFFFFFFFFFFFFFFFFFFFFFFFFFFFFFFFFFFF AND CALLER PUSH20 0xFFFFFFFFFFFFFFFFFFFFFFFFFFFFFFFFFFFFFFFF AND EQ PUSH2 0x2A3 JUMPI PUSH1 0x40 MLOAD PUSH32 0x8C379A000000000000000000000000000000000000000000000000000000000 DUP2 MSTORE PUSH1 0x4 ADD PUSH2 0x29A SWAP1 PUSH2 0x530 JUMP JUMPDEST PUSH1 0x40 MLOAD DUP1 SWAP2 SUB SWAP1 REVERT JUMPDEST DUP1 PUSH1 0x1 PUSH0 DUP5 PUSH20 0xFFFFFFFFFFFFFFFFFFFFFFFFFFFFFFFFFFFFFFFF AND PUSH20 0xFFFFFFFFFFFFFFFFFFFFFFFFFFFFFFFFFFFFFFFF AND DUP2 MSTORE PUSH1 0x20 ADD SWAP1 DUP2 MSTORE PUSH1 0x20 ADD PUSH0 KECCAK256 PUSH0 DUP3 DUP3 SLOAD PUSH2 0x2EF SWAP2 SWAP1 PUSH2 0x45F JUMP JUMPDEST SWAP3 POP POP DUP2 SWAP1 SSTORE POP POP POP JUMP JUMPDEST PUSH0 DUP1 REVERT JUMPDEST PUSH0 PUSH20 0xFFFFFFFFFFFFFFFFFFFFFFFFFFFFFFFFFFFFFFFF DUP3 AND SWAP1 POP SWAP2 SWAP1 POP JUMP JUMPDEST PUSH0 PUSH2 0x327 DUP3 PUSH2 0x2FE JUMP JUMPDEST SWAP1 POP SWAP2 SWAP1 POP JUMP JUMPDEST PUSH2 0x337 DUP2 PUSH2 0x31D JUMP JUMPDEST DUP2 EQ PUSH2 0x341 JUMPI PUSH0 DUP1 REVERT JUMPDEST POP JUMP JUMPDEST PUSH0 DUP2 CALLDATALOAD SWAP1 POP PUSH2 0x352 DUP2 PUSH2 0x32E JUMP JUMPDEST SWAP3 SWAP2 POP POP JUMP JUMPDEST PUSH0 DUP2 SWAP1 POP SWAP2 SWAP1 POP JUMP JUMPDEST PUSH2 0x36A DUP2 PUSH2 0x358 JUMP JUMPDEST DUP2 EQ PUSH2 0x374 JUMPI PUSH0 DUP1 REVERT JUMPDEST POP JUMP JUMPDEST PUSH0 DUP2 CALLDATALOAD SWAP1 POP PUSH2 0x385 DUP2 PUSH2 0x361 JUMP JUMPDEST SWAP3 SWAP2 POP POP JUMP JUMPDEST PUSH0 DUP1 PUSH1 0x40 DUP4 DUP6 SUB SLT ISZERO PUSH2 0x3A1 JUMPI PUSH2 0x3A0 PUSH2 0x2FA JUMP JUMPDEST JUMPDEST PUSH0 PUSH2 0x3AE DUP6 DUP3 DUP7 ADD PUSH2 0x344 JUMP JUMPDEST SWAP3 POP POP PUSH1 0x20 PUSH2 0x3BF DUP6 DUP3 DUP7 ADD PUSH2 0x377 JUMP JUMPDEST SWAP2 POP POP SWAP3 POP SWAP3 SWAP1 POP JUMP JUMPDEST PUSH2 0x3D2 DUP2 PUSH2 0x358 JUMP JUMPDEST DUP3 MSTORE POP POP JUMP JUMPDEST PUSH0 PUSH1 0x40 DUP3 ADD SWAP1 POP PUSH2 0x3EB PUSH0 DUP4 ADD DUP6 PUSH2 0x3C9 JUMP JUMPDEST PUSH2 0x3F8 PUSH1 0x20 DUP4 ADD DUP5 PUSH2 0x3C9 JUMP JUMPDEST SWAP4 SWAP3 POP POP POP JUMP JUMPDEST PUSH32 0x4E487B7100000000000000000000000000000000000000000000000000000000 PUSH0 MSTORE PUSH1 0x11 PUSH1 0x4 MSTORE PUSH1 0x24 PUSH0 REVERT JUMPDEST PUSH0 PUSH2 0x436 DUP3 PUSH2 0x358 JUMP JUMPDEST SWAP2 POP PUSH2 0x441 DUP4 PUSH2 0x358 JUMP JUMPDEST SWAP3 POP DUP3 DUP3 SUB SWAP1 POP DUP2 DUP2 GT ISZERO PUSH2 0x459 JUMPI PUSH2 0x458 PUSH2 0x3FF JUMP JUMPDEST JUMPDEST SWAP3 SWAP2 POP POP JUMP JUMPDEST PUSH0 PUSH2 0x469 DUP3 PUSH2 0x358 JUMP JUMPDEST SWAP2 POP PUSH2 0x474 DUP4 PUSH2 0x358 JUMP JUMPDEST SWAP3 POP DUP3 DUP3 ADD SWAP1 POP DUP1 DUP3 GT ISZERO PUSH2 0x48C JUMPI PUSH2 0x48B PUSH2 0x3FF JUMP JUMPDEST JUMPDEST SWAP3 SWAP2 POP POP JUMP JUMPDEST PUSH2 0x49B DUP2 PUSH2 0x31D JUMP JUMPDEST DUP3 MSTORE POP POP JUMP JUMPDEST PUSH0 PUSH1 0x60 DUP3 ADD SWAP1 POP PUSH2 0x4B4 PUSH0 DUP4 ADD DUP7 PUSH2 0x492 JUMP JUMPDEST PUSH2 0x4C1 PUSH1 0x20 DUP4 ADD DUP6 PUSH2 0x492 JUMP JUMPDEST PUSH2 0x4CE PUSH1 0x40 DUP4 ADD DUP5 PUSH2 0x3C9 JUMP JUMPDEST SWAP5 SWAP4 POP POP POP POP JUMP JUMPDEST PUSH0 DUP3 DUP3 MSTORE PUSH1 0x20 DUP3 ADD SWAP1 POP SWAP3 SWAP2 POP POP JUMP JUMPDEST PUSH32 0x73656E646572206973206E6F7420746865206D696E7465720000000000000000 PUSH0 DUP3 ADD MSTORE POP JUMP JUMPDEST PUSH0 PUSH2 0x51A PUSH1 0x18 DUP4 PUSH2 0x4D6 JUMP JUMPDEST SWAP2 POP PUSH2 0x525 DUP3 PUSH2 0x4E6 JUMP JUMPDEST PUSH1 0x20 DUP3 ADD SWAP1 POP SWAP2 SWAP1 POP JUMP JUMPDEST PUSH0 PUSH1 0x20 DUP3 ADD SWAP1 POP DUP2 DUP2 SUB PUSH0 DUP4 ADD MSTORE PUSH2 0x547 DUP2 PUSH2 0x50E JUMP JUMPDEST SWAP1 POP SWAP2 SWAP1 POP JUMP INVALID LOG2 PUSH5 0x6970667358 0x22 SLT KECCAK256 0x4B PUSH19 0x901EC62B9E95BB4BD3E39BDCCD42464E41313A CALLER POP 0xE1 DELEGATECALL 0xE2 MSTORE8 DUP13 0xA9 0xA7 0xB5 0xA5 PUSH5 0x736F6C6343 STOP ADDMOD NOT STOP CALLER "
				},
				"gasEstimates": {
					"creation": {
						"codeDepositCost": "282400",
						"executionCost": "24587",
						"totalCost": "306987"
					},
					"external": {
						"Send(address,uint256)": "infinite",
						"mint(address,uint256)": "infinite"
					}
				},
				"methodIdentifiers": {
					"Send(address,uint256)": "30a3c507",
					"mint(address,uint256)": "40c10f19"
				}
			},
			"storageLayout": {
				"storage": [
					{
						"astId": 3,
						"contract": "MyCoin.sol:MyCoin",
						"label": "minter",
						"offset": 0,
						"slot": "0",
						"type": "t_address"
					},
					{
						"astId": 7,
						"contract": "MyCoin.sol:MyCoin",
						"label": "balances",
						"offset": 0,
						"slot": "1",
						"type": "t_mapping(t_address,t_uint256)"
					}
				],
				"types": {
					"t_address": {
						"encoding": "inplace",
						"label": "address",
						"numberOfBytes": "20"
					},
					"t_mapping(t_address,t_uint256)": {
						"encoding": "mapping",
						"key": "t_address",
						"label": "mapping(address => uint256)",
						"numberOfBytes": "32",
						"value": "t_uint256"
					},
					"t_uint256": {
						"encoding": "inplace",
						"label": "uint256",
						"numberOfBytes": "32"
					}
				}
			},
			"userdoc": {
				"kind": "user",
				"methods": {},
				"version": 1
			}
		}
	}
}