{
	"auctionversion2.sol": {
		"Auction": {
			"abi": [
				{
					"constant": false,
					"inputs": [],
					"name": "register",
					"outputs": [],
					"payable": true,
					"stateMutability": "payable",
					"type": "function"
				},
				{
					"constant": true,
					"inputs": [],
					"name": "beneficiary",
					"outputs": [
						{
							"name": "",
							"type": "address"
						}
					],
					"payable": false,
					"stateMutability": "view",
					"type": "function"
				},
				{
					"constant": false,
					"inputs": [
						{
							"name": "_itemId",
							"type": "uint256"
						},
						{
							"name": "_count",
							"type": "uint256"
						}
					],
					"name": "bid",
					"outputs": [],
					"payable": false,
					"stateMutability": "nonpayable",
					"type": "function"
				},
				{
					"constant": true,
					"inputs": [
						{
							"name": "id",
							"type": "uint256"
						}
					],
					"name": "getPersonDetails",
					"outputs": [
						{
							"name": "",
							"type": "uint256"
						},
						{
							"name": "",
							"type": "uint256"
						},
						{
							"name": "",
							"type": "address"
						}
					],
					"payable": false,
					"stateMutability": "view",
					"type": "function"
				},
				{
					"constant": true,
					"inputs": [
						{
							"name": "id",
							"type": "uint256"
						}
					],
					"name": "getItemDetails",
					"outputs": [
						{
							"name": "",
							"type": "uint256"
						},
						{
							"name": "",
							"type": "uint256[]"
						}
					],
					"payable": false,
					"stateMutability": "view",
					"type": "function"
				},
				{
					"constant": false,
					"inputs": [],
					"name": "revealWinners",
					"outputs": [],
					"payable": false,
					"stateMutability": "nonpayable",
					"type": "function"
				},
				{
					"constant": true,
					"inputs": [
						{
							"name": "",
							"type": "uint256"
						}
					],
					"name": "winners",
					"outputs": [
						{
							"name": "",
							"type": "address"
						}
					],
					"payable": false,
					"stateMutability": "view",
					"type": "function"
				},
				{
					"constant": true,
					"inputs": [
						{
							"name": "",
							"type": "uint256"
						}
					],
					"name": "items",
					"outputs": [
						{
							"name": "itemId",
							"type": "uint256"
						}
					],
					"payable": false,
					"stateMutability": "view",
					"type": "function"
				},
				{
					"inputs": [],
					"payable": false,
					"stateMutability": "nonpayable",
					"type": "constructor"
				}
			],
			"devdoc": {
				"methods": {}
			},
			"evm": {
				"assembly": "    /* \"auctionversion2.sol\":58:3251  contract Auction {... */\n  mstore(0x40, 0x60)\n    /* \"auctionversion2.sol\":840:841  0 */\n  0x0\n    /* \"auctionversion2.sol\":821:841  uint bidderCount = 0 */\n  0x17\n  sstore\n    /* \"auctionversion2.sol\":878:1169  function Auction() public {... */\n  jumpi(tag_1, iszero(callvalue))\n  0x0\n  dup1\n  revert\ntag_1:\n    /* \"auctionversion2.sol\":928:938  msg.sender */\n  caller\n    /* \"auctionversion2.sol\":914:925  beneficiary */\n  0x16\n  0x0\n    /* \"auctionversion2.sol\":914:938  beneficiary = msg.sender */\n  0x100\n  exp\n  dup2\n  sload\n  dup2\n  0xffffffffffffffffffffffffffffffffffffffff\n  mul\n  not\n  and\n  swap1\n  dup4\n  0xffffffffffffffffffffffffffffffffffffffff\n  and\n  mul\n  or\n  swap1\n  sstore\n  pop\n    /* \"auctionversion2.sol\":988:1032  Item({itemId: 0, itemTokens: new uint[](0)}) */\n  0x40\n  dup1\n  mload\n  swap1\n  dup2\n  add\n  0x40\n  mstore\n  dup1\n    /* \"auctionversion2.sol\":1002:1003  0 */\n  0x0\n    /* \"auctionversion2.sol\":988:1032  Item({itemId: 0, itemTokens: new uint[](0)}) */\n  dup2\n  mstore\n  0x20\n  add\n    /* \"auctionversion2.sol\":1028:1029  0 */\n  0x0\n    /* \"auctionversion2.sol\":1017:1030  new uint[](0) */\n  mload(0x40)\n  dup1\n  msize\n  lt\n  tag_4\n  jumpi\n  pop\n  msize\ntag_4:\n  swap1\n  dup1\n  dup3\n  mstore\n  dup1\n  0x20\n  mul\n  0x20\n  add\n  dup3\n  add\n  0x40\n  mstore\n  pop\n    /* \"auctionversion2.sol\":988:1032  Item({itemId: 0, itemTokens: new uint[](0)}) */\n  dup2\n  mstore\n  pop\n    /* \"auctionversion2.sol\":977:982  items */\n  0xd\n    /* \"auctionversion2.sol\":983:984  0 */\n  0x0\n    /* \"auctionversion2.sol\":977:985  items[0] */\n  0x3\n  dup2\n  lt\n  iszero\n  iszero\n  tag_6\n  jumpi\n  invalid\ntag_6:\n  0x2\n  mul\n  add\n    /* \"auctionversion2.sol\":977:1032  items[0] = Item({itemId: 0, itemTokens: new uint[](0)}) */\n  0x0\n  dup3\n  add\n  mload\n  dup2\n  0x0\n  add\n  sstore\n  0x20\n  dup3\n  add\n  mload\n  dup2\n  0x1\n  add\n  swap1\n  dup1\n  mload\n  swap1\n  0x20\n  add\n  swap1\n  tag_8\n  swap3\n  swap2\n  swap1\n  jump\t// in(tag_9)\ntag_8:\n  pop\n  swap1\n  pop\n  pop\n    /* \"auctionversion2.sol\":1053:1097  Item({itemId: 1, itemTokens: new uint[](0)}) */\n  0x40\n  dup1\n  mload\n  swap1\n  dup2\n  add\n  0x40\n  mstore\n  dup1\n    /* \"auctionversion2.sol\":1067:1068  1 */\n  0x1\n    /* \"auctionversion2.sol\":1053:1097  Item({itemId: 1, itemTokens: new uint[](0)}) */\n  dup2\n  mstore\n  0x20\n  add\n    /* \"auctionversion2.sol\":1093:1094  0 */\n  0x0\n    /* \"auctionversion2.sol\":1082:1095  new uint[](0) */\n  mload(0x40)\n  dup1\n  msize\n  lt\n  tag_10\n  jumpi\n  pop\n  msize\ntag_10:\n  swap1\n  dup1\n  dup3\n  mstore\n  dup1\n  0x20\n  mul\n  0x20\n  add\n  dup3\n  add\n  0x40\n  mstore\n  pop\n    /* \"auctionversion2.sol\":1053:1097  Item({itemId: 1, itemTokens: new uint[](0)}) */\n  dup2\n  mstore\n  pop\n    /* \"auctionversion2.sol\":1042:1047  items */\n  0xd\n    /* \"auctionversion2.sol\":1048:1049  1 */\n  0x1\n    /* \"auctionversion2.sol\":1042:1050  items[1] */\n  0x3\n  dup2\n  lt\n  iszero\n  iszero\n  tag_12\n  jumpi\n  invalid\ntag_12:\n  0x2\n  mul\n  add\n    /* \"auctionversion2.sol\":1042:1097  items[1] = Item({itemId: 1, itemTokens: new uint[](0)}) */\n  0x0\n  dup3\n  add\n  mload\n  dup2\n  0x0\n  add\n  sstore\n  0x20\n  dup3\n  add\n  mload\n  dup2\n  0x1\n  add\n  swap1\n  dup1\n  mload\n  swap1\n  0x20\n  add\n  swap1\n  tag_14\n  swap3\n  swap2\n  swap1\n  jump\t// in(tag_9)\ntag_14:\n  pop\n  swap1\n  pop\n  pop\n    /* \"auctionversion2.sol\":1118:1162  Item({itemId: 2, itemTokens: new uint[](0)}) */\n  0x40\n  dup1\n  mload\n  swap1\n  dup2\n  add\n  0x40\n  mstore\n  dup1\n    /* \"auctionversion2.sol\":1132:1133  2 */\n  0x2\n    /* \"auctionversion2.sol\":1118:1162  Item({itemId: 2, itemTokens: new uint[](0)}) */\n  dup2\n  mstore\n  0x20\n  add\n    /* \"auctionversion2.sol\":1158:1159  0 */\n  0x0\n    /* \"auctionversion2.sol\":1147:1160  new uint[](0) */\n  mload(0x40)\n  dup1\n  msize\n  lt\n  tag_15\n  jumpi\n  pop\n  msize\ntag_15:\n  swap1\n  dup1\n  dup3\n  mstore\n  dup1\n  0x20\n  mul\n  0x20\n  add\n  dup3\n  add\n  0x40\n  mstore\n  pop\n    /* \"auctionversion2.sol\":1118:1162  Item({itemId: 2, itemTokens: new uint[](0)}) */\n  dup2\n  mstore\n  pop\n    /* \"auctionversion2.sol\":1107:1112  items */\n  0xd\n    /* \"auctionversion2.sol\":1113:1114  2 */\n  0x2\n    /* \"auctionversion2.sol\":1107:1115  items[2] */\n  0x3\n  dup2\n  lt\n  iszero\n  iszero\n  tag_17\n  jumpi\n  invalid\ntag_17:\n  0x2\n  mul\n  add\n    /* \"auctionversion2.sol\":1107:1162  items[2] = Item({itemId: 2, itemTokens: new uint[](0)}) */\n  0x0\n  dup3\n  add\n  mload\n  dup2\n  0x0\n  add\n  sstore\n  0x20\n  dup3\n  add\n  mload\n  dup2\n  0x1\n  add\n  swap1\n  dup1\n  mload\n  swap1\n  0x20\n  add\n  swap1\n  tag_19\n  swap3\n  swap2\n  swap1\n  jump\t// in(tag_9)\ntag_19:\n  pop\n  swap1\n  pop\n  pop\n    /* \"auctionversion2.sol\":58:3251  contract Auction {... */\n  jump(tag_20)\ntag_9:\n  dup3\n  dup1\n  sload\n  dup3\n  dup3\n  sstore\n  swap1\n  0x0\n  mstore\n  keccak256(0x0, 0x20)\n  swap1\n  dup2\n  add\n  swap3\n  dup3\n  iszero\n  tag_21\n  jumpi\n  swap2\n  0x20\n  mul\n  dup3\n  add\ntag_22:\n  dup3\n  dup2\n  gt\n  iszero\n  tag_23\n  jumpi\n  dup3\n  mload\n  dup3\n  sstore\n  swap2\n  0x20\n  add\n  swap2\n  swap1\n  0x1\n  add\n  swap1\n  jump(tag_22)\ntag_23:\ntag_21:\n  pop\n  swap1\n  pop\n  tag_24\n  swap2\n  swap1\n  jump\t// in(tag_25)\ntag_24:\n  pop\n  swap1\n  jump\t// out\ntag_25:\n  tag_26\n  swap2\n  swap1\ntag_27:\n  dup1\n  dup3\n  gt\n  iszero\n  tag_28\n  jumpi\n  0x0\n  dup2\n  0x0\n  swap1\n  sstore\n  pop\n  0x1\n  add\n  jump(tag_27)\ntag_28:\n  pop\n  swap1\n  jump\ntag_26:\n  swap1\n  jump\t// out\ntag_20:\n  dataSize(sub_0)\n  dup1\n  dataOffset(sub_0)\n  0x0\n  codecopy\n  0x0\n  return\nstop\n\nsub_0: assembly {\n        /* \"auctionversion2.sol\":58:3251  contract Auction {... */\n      mstore(0x40, 0x60)\n      jumpi(tag_1, iszero(calldatasize))\n      calldataload(0x0)\n      0x100000000000000000000000000000000000000000000000000000000\n      swap1\n      div\n      0xffffffff\n      and\n      dup1\n      0x1aa3a008\n      eq\n      tag_2\n      jumpi\n      dup1\n      0x38af3eed\n      eq\n      tag_3\n      jumpi\n      dup1\n      0x598647f8\n      eq\n      tag_4\n      jumpi\n      dup1\n      0x60981705\n      eq\n      tag_5\n      jumpi\n      dup1\n      0x73004ca0\n      eq\n      tag_6\n      jumpi\n      dup1\n      0x952587d6\n      eq\n      tag_7\n      jumpi\n      dup1\n      0xa2fb1175\n      eq\n      tag_8\n      jumpi\n      dup1\n      0xbfb231d2\n      eq\n      tag_9\n      jumpi\n    tag_1:\n      0x0\n      dup1\n      revert\n        /* \"auctionversion2.sol\":1212:1506  function register() public payable {    ... */\n    tag_2:\n      tag_10\n      jump(tag_11)\n    tag_10:\n      stop\n        /* \"auctionversion2.sol\":753:779  address public beneficiary */\n    tag_3:\n      jumpi(tag_12, iszero(callvalue))\n      0x0\n      dup1\n      revert\n    tag_12:\n      tag_13\n      jump(tag_14)\n    tag_13:\n      mload(0x40)\n      dup1\n      dup3\n      0xffffffffffffffffffffffffffffffffffffffff\n      and\n      0xffffffffffffffffffffffffffffffffffffffff\n      and\n      dup2\n      mstore\n      0x20\n      add\n      swap2\n      pop\n      pop\n      mload(0x40)\n      dup1\n      swap2\n      sub\n      swap1\n      return\n        /* \"auctionversion2.sol\":1536:2098  function bid(uint _itemId, uint _count) public {... */\n    tag_4:\n      jumpi(tag_15, iszero(callvalue))\n      0x0\n      dup1\n      revert\n    tag_15:\n      tag_16\n      0x4\n      dup1\n      dup1\n      calldataload\n      swap1\n      0x20\n      add\n      swap1\n      swap2\n      swap1\n      dup1\n      calldataload\n      swap1\n      0x20\n      add\n      swap1\n      swap2\n      swap1\n      pop\n      pop\n      jump(tag_17)\n    tag_16:\n      stop\n        /* \"auctionversion2.sol\":2935:3108  function getPersonDetails(uint id) public constant returns(uint, uint, address) {... */\n    tag_5:\n      jumpi(tag_18, iszero(callvalue))\n      0x0\n      dup1\n      revert\n    tag_18:\n      tag_19\n      0x4\n      dup1\n      dup1\n      calldataload\n      swap1\n      0x20\n      add\n      swap1\n      swap2\n      swap1\n      pop\n      pop\n      jump(tag_20)\n    tag_19:\n      mload(0x40)\n      dup1\n      dup5\n      dup2\n      mstore\n      0x20\n      add\n      dup4\n      dup2\n      mstore\n      0x20\n      add\n      dup3\n      0xffffffffffffffffffffffffffffffffffffffff\n      and\n      0xffffffffffffffffffffffffffffffffffffffff\n      and\n      dup2\n      mstore\n      0x20\n      add\n      swap4\n      pop\n      pop\n      pop\n      pop\n      mload(0x40)\n      dup1\n      swap2\n      sub\n      swap1\n      return\n        /* \"auctionversion2.sol\":3114:3249  function getItemDetails(uint id) public constant returns(uint, uint[]) {... */\n    tag_6:\n      jumpi(tag_21, iszero(callvalue))\n      0x0\n      dup1\n      revert\n    tag_21:\n      tag_22\n      0x4\n      dup1\n      dup1\n      calldataload\n      swap1\n      0x20\n      add\n      swap1\n      swap2\n      swap1\n      pop\n      pop\n      jump(tag_23)\n    tag_22:\n      mload(0x40)\n      dup1\n      dup4\n      dup2\n      mstore\n      0x20\n      add\n      dup1\n      0x20\n      add\n      dup3\n      dup2\n      sub\n      dup3\n      mstore\n      dup4\n      dup2\n      dup2\n      mload\n      dup2\n      mstore\n      0x20\n      add\n      swap2\n      pop\n      dup1\n      mload\n      swap1\n      0x20\n      add\n      swap1\n      0x20\n      mul\n      dup1\n      dup4\n      dup4\n        /* \"--CODEGEN--\":23:24   */\n      0x0\n        /* \"--CODEGEN--\":8:108   */\n    tag_24:\n        /* \"--CODEGEN--\":33:36   */\n      dup4\n        /* \"--CODEGEN--\":30:31   */\n      dup2\n        /* \"--CODEGEN--\":27:29   */\n      lt\n        /* \"--CODEGEN--\":8:108   */\n      iszero\n      tag_25\n      jumpi\n        /* \"--CODEGEN--\":99:100   */\n      dup1\n        /* \"--CODEGEN--\":94:97   */\n      dup3\n        /* \"--CODEGEN--\":90:93   */\n      add\n        /* \"--CODEGEN--\":84:89   */\n      mload\n        /* \"--CODEGEN--\":80:81   */\n      dup2\n        /* \"--CODEGEN--\":75:78   */\n      dup5\n        /* \"--CODEGEN--\":71:74   */\n      add\n        /* \"--CODEGEN--\":64:70   */\n      mstore\n        /* \"--CODEGEN--\":52:54   */\n      0x20\n        /* \"--CODEGEN--\":49:50   */\n      dup2\n        /* \"--CODEGEN--\":45:48   */\n      add\n        /* \"--CODEGEN--\":40:55   */\n      swap1\n      pop\n        /* \"--CODEGEN--\":8:108   */\n      jump(tag_24)\n    tag_25:\n        /* \"--CODEGEN--\":12:26   */\n      pop\n        /* \"--CODEGEN--\":3:112   */\n      pop\n      pop\n      pop\n      swap1\n      pop\n      add\n      swap4\n      pop\n      pop\n      pop\n      pop\n      mload(0x40)\n      dup1\n      swap2\n      sub\n      swap1\n      return\n        /* \"auctionversion2.sol\":2371:2828  function revealWinners() public onlyOwner {... */\n    tag_7:\n      jumpi(tag_27, iszero(callvalue))\n      0x0\n      dup1\n      revert\n    tag_27:\n      tag_28\n      jump(tag_29)\n    tag_28:\n      stop\n        /* \"auctionversion2.sol\":690:715  address[3] public winners */\n    tag_8:\n      jumpi(tag_30, iszero(callvalue))\n      0x0\n      dup1\n      revert\n    tag_30:\n      tag_31\n      0x4\n      dup1\n      dup1\n      calldataload\n      swap1\n      0x20\n      add\n      swap1\n      swap2\n      swap1\n      pop\n      pop\n      jump(tag_32)\n    tag_31:\n      mload(0x40)\n      dup1\n      dup3\n      0xffffffffffffffffffffffffffffffffffffffff\n      and\n      0xffffffffffffffffffffffffffffffffffffffff\n      and\n      dup2\n      mstore\n      0x20\n      add\n      swap2\n      pop\n      pop\n      mload(0x40)\n      dup1\n      swap2\n      sub\n      swap1\n      return\n        /* \"auctionversion2.sol\":629:649  Item[3] public items */\n    tag_9:\n      jumpi(tag_33, iszero(callvalue))\n      0x0\n      dup1\n      revert\n    tag_33:\n      tag_34\n      0x4\n      dup1\n      dup1\n      calldataload\n      swap1\n      0x20\n      add\n      swap1\n      swap2\n      swap1\n      pop\n      pop\n      jump(tag_35)\n    tag_34:\n      mload(0x40)\n      dup1\n      dup3\n      dup2\n      mstore\n      0x20\n      add\n      swap2\n      pop\n      pop\n      mload(0x40)\n      dup1\n      swap2\n      sub\n      swap1\n      return\n        /* \"auctionversion2.sol\":1212:1506  function register() public payable {    ... */\n    tag_11:\n        /* \"auctionversion2.sol\":1293:1304  bidderCount */\n      sload(0x17)\n        /* \"auctionversion2.sol\":1261:1268  bidders */\n      0x1\n        /* \"auctionversion2.sol\":1269:1280  bidderCount */\n      sload(0x17)\n        /* \"auctionversion2.sol\":1261:1281  bidders[bidderCount] */\n      0x4\n      dup2\n      lt\n      iszero\n      iszero\n      tag_37\n      jumpi\n      invalid\n    tag_37:\n      0x3\n      mul\n      add\n        /* \"auctionversion2.sol\":1261:1290  bidders[bidderCount].personId */\n      0x1\n      add\n        /* \"auctionversion2.sol\":1261:1304  bidders[bidderCount].personId = bidderCount */\n      dup2\n      swap1\n      sstore\n      pop\n        /* \"auctionversion2.sol\":1342:1352  msg.sender */\n      caller\n        /* \"auctionversion2.sol\":1314:1321  bidders */\n      0x1\n        /* \"auctionversion2.sol\":1322:1333  bidderCount */\n      sload(0x17)\n        /* \"auctionversion2.sol\":1314:1334  bidders[bidderCount] */\n      0x4\n      dup2\n      lt\n      iszero\n      iszero\n      tag_39\n      jumpi\n      invalid\n    tag_39:\n      0x3\n      mul\n      add\n        /* \"auctionversion2.sol\":1314:1339  bidders[bidderCount].addr */\n      0x2\n      add\n      0x0\n        /* \"auctionversion2.sol\":1314:1352  bidders[bidderCount].addr = msg.sender */\n      0x100\n      exp\n      dup2\n      sload\n      dup2\n      0xffffffffffffffffffffffffffffffffffffffff\n      mul\n      not\n      and\n      swap1\n      dup4\n      0xffffffffffffffffffffffffffffffffffffffff\n      and\n      mul\n      or\n      swap1\n      sstore\n      pop\n        /* \"auctionversion2.sol\":1401:1402  5 */\n      0x5\n        /* \"auctionversion2.sol\":1362:1369  bidders */\n      0x1\n        /* \"auctionversion2.sol\":1370:1381  bidderCount */\n      sload(0x17)\n        /* \"auctionversion2.sol\":1362:1382  bidders[bidderCount] */\n      0x4\n      dup2\n      lt\n      iszero\n      iszero\n      tag_41\n      jumpi\n      invalid\n    tag_41:\n      0x3\n      mul\n      add\n        /* \"auctionversion2.sol\":1362:1398  bidders[bidderCount].remainingTokens */\n      0x0\n      add\n        /* \"auctionversion2.sol\":1362:1402  bidders[bidderCount].remainingTokens = 5 */\n      dup2\n      swap1\n      sstore\n      pop\n        /* \"auctionversion2.sol\":1456:1463  bidders */\n      0x1\n        /* \"auctionversion2.sol\":1464:1475  bidderCount */\n      sload(0x17)\n        /* \"auctionversion2.sol\":1456:1476  bidders[bidderCount] */\n      0x4\n      dup2\n      lt\n      iszero\n      iszero\n      tag_43\n      jumpi\n      invalid\n    tag_43:\n      0x3\n      mul\n      add\n        /* \"auctionversion2.sol\":1429:1441  tokenDetails */\n      0x0\n        /* \"auctionversion2.sol\":1429:1453  tokenDetails[msg.sender] */\n      dup1\n        /* \"auctionversion2.sol\":1442:1452  msg.sender */\n      caller\n        /* \"auctionversion2.sol\":1429:1453  tokenDetails[msg.sender] */\n      0xffffffffffffffffffffffffffffffffffffffff\n      and\n      0xffffffffffffffffffffffffffffffffffffffff\n      and\n      dup2\n      mstore\n      0x20\n      add\n      swap1\n      dup2\n      mstore\n      0x20\n      add\n      0x0\n      keccak256\n        /* \"auctionversion2.sol\":1429:1476  tokenDetails[msg.sender] = bidders[bidderCount] */\n      0x0\n      dup3\n      add\n      sload\n      dup2\n      0x0\n      add\n      sstore\n      0x1\n      dup3\n      add\n      sload\n      dup2\n      0x1\n      add\n      sstore\n      0x2\n      dup3\n      add\n      0x0\n      swap1\n      sload\n      swap1\n      0x100\n      exp\n      swap1\n      div\n      0xffffffffffffffffffffffffffffffffffffffff\n      and\n      dup2\n      0x2\n      add\n      exp(0x100, 0x0)\n      dup2\n      sload\n      dup2\n      0xffffffffffffffffffffffffffffffffffffffff\n      mul\n      not\n      and\n      swap1\n      dup4\n      0xffffffffffffffffffffffffffffffffffffffff\n      and\n      mul\n      or\n      swap1\n      sstore\n      pop\n      swap1\n      pop\n      pop\n        /* \"auctionversion2.sol\":1486:1497  bidderCount */\n      0x17\n      0x0\n        /* \"auctionversion2.sol\":1486:1499  bidderCount++ */\n      dup2\n      sload\n      dup1\n      swap3\n      swap2\n      swap1\n      0x1\n      add\n      swap2\n      swap1\n      pop\n      sstore\n      pop\n        /* \"auctionversion2.sol\":1212:1506  function register() public payable {    ... */\n      jump\t// out\n        /* \"auctionversion2.sol\":753:779  address public beneficiary */\n    tag_14:\n      0x16\n      0x0\n      swap1\n      sload\n      swap1\n      0x100\n      exp\n      swap1\n      div\n      0xffffffffffffffffffffffffffffffffffffffff\n      and\n      dup2\n      jump\t// out\n        /* \"auctionversion2.sol\":1536:2098  function bid(uint _itemId, uint _count) public {... */\n    tag_17:\n        /* \"auctionversion2.sol\":1928:1948  Item storage bidItem */\n      0x0\n        /* \"auctionversion2.sol\":1980:1986  uint i */\n      dup1\n        /* \"auctionversion2.sol\":1645:1651  _count */\n      dup3\n        /* \"auctionversion2.sol\":1601:1613  tokenDetails */\n      0x0\n        /* \"auctionversion2.sol\":1601:1625  tokenDetails[msg.sender] */\n      dup1\n        /* \"auctionversion2.sol\":1614:1624  msg.sender */\n      caller\n        /* \"auctionversion2.sol\":1601:1625  tokenDetails[msg.sender] */\n      0xffffffffffffffffffffffffffffffffffffffff\n      and\n      0xffffffffffffffffffffffffffffffffffffffff\n      and\n      dup2\n      mstore\n      0x20\n      add\n      swap1\n      dup2\n      mstore\n      0x20\n      add\n      0x0\n      keccak256\n        /* \"auctionversion2.sol\":1601:1641  tokenDetails[msg.sender].remainingTokens */\n      0x0\n      add\n      sload\n        /* \"auctionversion2.sol\":1601:1651  tokenDetails[msg.sender].remainingTokens >= _count */\n      lt\n      iszero\n        /* \"auctionversion2.sol\":1593:1652  require(tokenDetails[msg.sender].remainingTokens >= _count) */\n      iszero\n      iszero\n      tag_46\n      jumpi\n      0x0\n      dup1\n      revert\n    tag_46:\n        /* \"auctionversion2.sol\":1713:1714  0 */\n      0x0\n        /* \"auctionversion2.sol\":1670:1682  tokenDetails */\n      dup1\n        /* \"auctionversion2.sol\":1670:1694  tokenDetails[msg.sender] */\n      0x0\n        /* \"auctionversion2.sol\":1683:1693  msg.sender */\n      caller\n        /* \"auctionversion2.sol\":1670:1694  tokenDetails[msg.sender] */\n      0xffffffffffffffffffffffffffffffffffffffff\n      and\n      0xffffffffffffffffffffffffffffffffffffffff\n      and\n      dup2\n      mstore\n      0x20\n      add\n      swap1\n      dup2\n      mstore\n      0x20\n      add\n      0x0\n      keccak256\n        /* \"auctionversion2.sol\":1670:1710  tokenDetails[msg.sender].remainingTokens */\n      0x0\n      add\n      sload\n        /* \"auctionversion2.sol\":1670:1714  tokenDetails[msg.sender].remainingTokens > 0 */\n      gt\n        /* \"auctionversion2.sol\":1662:1715  require(tokenDetails[msg.sender].remainingTokens > 0) */\n      iszero\n      iszero\n      tag_47\n      jumpi\n      0x0\n      dup1\n      revert\n    tag_47:\n        /* \"auctionversion2.sol\":1743:1744  3 */\n      0x3\n        /* \"auctionversion2.sol\":1733:1740  _itemId */\n      dup5\n        /* \"auctionversion2.sol\":1733:1744  _itemId < 3 */\n      lt\n        /* \"auctionversion2.sol\":1725:1745  require(_itemId < 3) */\n      iszero\n      iszero\n      tag_48\n      jumpi\n      0x0\n      dup1\n      revert\n    tag_48:\n        /* \"auctionversion2.sol\":1800:1806  _count */\n      dup3\n        /* \"auctionversion2.sol\":1756:1768  tokenDetails */\n      0x0\n        /* \"auctionversion2.sol\":1756:1780  tokenDetails[msg.sender] */\n      dup1\n        /* \"auctionversion2.sol\":1769:1779  msg.sender */\n      caller\n        /* \"auctionversion2.sol\":1756:1780  tokenDetails[msg.sender] */\n      0xffffffffffffffffffffffffffffffffffffffff\n      and\n      0xffffffffffffffffffffffffffffffffffffffff\n      and\n      dup2\n      mstore\n      0x20\n      add\n      swap1\n      dup2\n      mstore\n      0x20\n      add\n      0x0\n      keccak256\n        /* \"auctionversion2.sol\":1756:1796  tokenDetails[msg.sender].remainingTokens */\n      0x0\n      add\n      0x0\n        /* \"auctionversion2.sol\":1756:1806  tokenDetails[msg.sender].remainingTokens -= _count */\n      dup3\n      dup3\n      sload\n      sub\n      swap3\n      pop\n      pop\n      dup2\n      swap1\n      sstore\n      pop\n        /* \"auctionversion2.sol\":1877:1889  tokenDetails */\n      0x0\n        /* \"auctionversion2.sol\":1877:1901  tokenDetails[msg.sender] */\n      dup1\n        /* \"auctionversion2.sol\":1890:1900  msg.sender */\n      caller\n        /* \"auctionversion2.sol\":1877:1901  tokenDetails[msg.sender] */\n      0xffffffffffffffffffffffffffffffffffffffff\n      and\n      0xffffffffffffffffffffffffffffffffffffffff\n      and\n      dup2\n      mstore\n      0x20\n      add\n      swap1\n      dup2\n      mstore\n      0x20\n      add\n      0x0\n      keccak256\n        /* \"auctionversion2.sol\":1877:1917  tokenDetails[msg.sender].remainingTokens */\n      0x0\n      add\n      sload\n        /* \"auctionversion2.sol\":1816:1823  bidders */\n      0x1\n        /* \"auctionversion2.sol\":1824:1836  tokenDetails */\n      0x0\n        /* \"auctionversion2.sol\":1824:1848  tokenDetails[msg.sender] */\n      dup1\n        /* \"auctionversion2.sol\":1837:1847  msg.sender */\n      caller\n        /* \"auctionversion2.sol\":1824:1848  tokenDetails[msg.sender] */\n      0xffffffffffffffffffffffffffffffffffffffff\n      and\n      0xffffffffffffffffffffffffffffffffffffffff\n      and\n      dup2\n      mstore\n      0x20\n      add\n      swap1\n      dup2\n      mstore\n      0x20\n      add\n      0x0\n      keccak256\n        /* \"auctionversion2.sol\":1824:1857  tokenDetails[msg.sender].personId */\n      0x1\n      add\n      sload\n        /* \"auctionversion2.sol\":1816:1858  bidders[tokenDetails[msg.sender].personId] */\n      0x4\n      dup2\n      lt\n      iszero\n      iszero\n      tag_49\n      jumpi\n      invalid\n    tag_49:\n      0x3\n      mul\n      add\n        /* \"auctionversion2.sol\":1816:1874  bidders[tokenDetails[msg.sender].personId].remainingTokens */\n      0x0\n      add\n        /* \"auctionversion2.sol\":1816:1917  bidders[tokenDetails[msg.sender].personId].remainingTokens = tokenDetails[msg.sender].remainingTokens */\n      dup2\n      swap1\n      sstore\n      pop\n        /* \"auctionversion2.sol\":1951:1956  items */\n      0xd\n        /* \"auctionversion2.sol\":1957:1964  _itemId */\n      dup5\n        /* \"auctionversion2.sol\":1951:1965  items[_itemId] */\n      0x3\n      dup2\n      lt\n      iszero\n      iszero\n      tag_51\n      jumpi\n      invalid\n    tag_51:\n      0x2\n      mul\n      add\n        /* \"auctionversion2.sol\":1928:1965  Item storage bidItem = items[_itemId] */\n      swap2\n      pop\n        /* \"auctionversion2.sol\":1989:1990  0 */\n      0x0\n        /* \"auctionversion2.sol\":1980:1990  uint i = 0 */\n      swap1\n      pop\n        /* \"auctionversion2.sol\":1975:2092  for (uint i = 0; i < _count; i++) {... */\n    tag_53:\n        /* \"auctionversion2.sol\":1996:2002  _count */\n      dup3\n        /* \"auctionversion2.sol\":1992:1993  i */\n      dup2\n        /* \"auctionversion2.sol\":1992:2002  i < _count */\n      lt\n        /* \"auctionversion2.sol\":1975:2092  for (uint i = 0; i < _count; i++) {... */\n      iszero\n      tag_54\n      jumpi\n        /* \"auctionversion2.sol\":2023:2030  bidItem */\n      dup2\n        /* \"auctionversion2.sol\":2023:2041  bidItem.itemTokens */\n      0x1\n      add\n        /* \"auctionversion2.sol\":2023:2081  bidItem.itemTokens.push(tokenDetails[msg.sender].personId) */\n      dup1\n      sload\n      dup1\n      0x1\n      add\n      dup3\n      dup2\n      tag_56\n      swap2\n      swap1\n      jump\t// in(tag_57)\n    tag_56:\n      swap2\n      0x0\n      mstore\n      keccak256(0x0, 0x20)\n      swap1\n      add\n      0x0\n        /* \"auctionversion2.sol\":2047:2059  tokenDetails */\n      dup1\n        /* \"auctionversion2.sol\":2047:2071  tokenDetails[msg.sender] */\n      0x0\n        /* \"auctionversion2.sol\":2060:2070  msg.sender */\n      caller\n        /* \"auctionversion2.sol\":2047:2071  tokenDetails[msg.sender] */\n      0xffffffffffffffffffffffffffffffffffffffff\n      and\n      0xffffffffffffffffffffffffffffffffffffffff\n      and\n      dup2\n      mstore\n      0x20\n      add\n      swap1\n      dup2\n      mstore\n      0x20\n      add\n      0x0\n      keccak256\n        /* \"auctionversion2.sol\":2047:2080  tokenDetails[msg.sender].personId */\n      0x1\n      add\n      sload\n        /* \"auctionversion2.sol\":2023:2081  bidItem.itemTokens.push(tokenDetails[msg.sender].personId) */\n      swap1\n      swap2\n      swap1\n      swap2\n      pop\n      sstore\n      pop\n        /* \"auctionversion2.sol\":2004:2007  i++ */\n      dup1\n      dup1\n      0x1\n      add\n      swap2\n      pop\n      pop\n        /* \"auctionversion2.sol\":1975:2092  for (uint i = 0; i < _count; i++) {... */\n      jump(tag_53)\n    tag_54:\n        /* \"auctionversion2.sol\":1536:2098  function bid(uint _itemId, uint _count) public {... */\n      pop\n      pop\n      pop\n      pop\n      jump\t// out\n        /* \"auctionversion2.sol\":2935:3108  function getPersonDetails(uint id) public constant returns(uint, uint, address) {... */\n    tag_20:\n        /* \"auctionversion2.sol\":2994:2998  uint */\n      0x0\n        /* \"auctionversion2.sol\":3000:3004  uint */\n      dup1\n        /* \"auctionversion2.sol\":3006:3013  address */\n      0x0\n        /* \"auctionversion2.sol\":3033:3040  bidders */\n      0x1\n        /* \"auctionversion2.sol\":3041:3043  id */\n      dup5\n        /* \"auctionversion2.sol\":3033:3044  bidders[id] */\n      0x4\n      dup2\n      lt\n      iszero\n      iszero\n      tag_60\n      jumpi\n      invalid\n    tag_60:\n      0x3\n      mul\n      add\n        /* \"auctionversion2.sol\":3033:3060  bidders[id].remainingTokens */\n      0x0\n      add\n      sload\n        /* \"auctionversion2.sol\":3062:3069  bidders */\n      0x1\n        /* \"auctionversion2.sol\":3070:3072  id */\n      dup6\n        /* \"auctionversion2.sol\":3062:3073  bidders[id] */\n      0x4\n      dup2\n      lt\n      iszero\n      iszero\n      tag_62\n      jumpi\n      invalid\n    tag_62:\n      0x3\n      mul\n      add\n        /* \"auctionversion2.sol\":3062:3082  bidders[id].personId */\n      0x1\n      add\n      sload\n        /* \"auctionversion2.sol\":3084:3091  bidders */\n      0x1\n        /* \"auctionversion2.sol\":3092:3094  id */\n      dup7\n        /* \"auctionversion2.sol\":3084:3095  bidders[id] */\n      0x4\n      dup2\n      lt\n      iszero\n      iszero\n      tag_64\n      jumpi\n      invalid\n    tag_64:\n      0x3\n      mul\n      add\n        /* \"auctionversion2.sol\":3084:3100  bidders[id].addr */\n      0x2\n      add\n      0x0\n      swap1\n      sload\n      swap1\n      0x100\n      exp\n      swap1\n      div\n      0xffffffffffffffffffffffffffffffffffffffff\n      and\n        /* \"auctionversion2.sol\":3025:3101  return (bidders[id].remainingTokens, bidders[id].personId, bidders[id].addr) */\n      swap3\n      pop\n      swap3\n      pop\n      swap3\n      pop\n        /* \"auctionversion2.sol\":2935:3108  function getPersonDetails(uint id) public constant returns(uint, uint, address) {... */\n      swap2\n      swap4\n      swap1\n      swap3\n      pop\n      jump\t// out\n        /* \"auctionversion2.sol\":3114:3249  function getItemDetails(uint id) public constant returns(uint, uint[]) {... */\n    tag_23:\n        /* \"auctionversion2.sol\":3171:3175  uint */\n      0x0\n        /* \"auctionversion2.sol\":3177:3183  uint[] */\n      tag_66\n      jump\t// in(tag_67)\n    tag_66:\n        /* \"auctionversion2.sol\":3203:3208  items */\n      0xd\n        /* \"auctionversion2.sol\":3209:3211  id */\n      dup4\n        /* \"auctionversion2.sol\":3203:3212  items[id] */\n      0x3\n      dup2\n      lt\n      iszero\n      iszero\n      tag_69\n      jumpi\n      invalid\n    tag_69:\n      0x2\n      mul\n      add\n        /* \"auctionversion2.sol\":3203:3219  items[id].itemId */\n      0x0\n      add\n      sload\n        /* \"auctionversion2.sol\":3221:3226  items */\n      0xd\n        /* \"auctionversion2.sol\":3227:3229  id */\n      dup5\n        /* \"auctionversion2.sol\":3221:3230  items[id] */\n      0x3\n      dup2\n      lt\n      iszero\n      iszero\n      tag_71\n      jumpi\n      invalid\n    tag_71:\n      0x2\n      mul\n      add\n        /* \"auctionversion2.sol\":3221:3241  items[id].itemTokens */\n      0x1\n      add\n        /* \"auctionversion2.sol\":3195:3242  return (items[id].itemId, items[id].itemTokens) */\n      dup1\n      dup1\n      sload\n      dup1\n      0x20\n      mul\n      0x20\n      add\n      mload(0x40)\n      swap1\n      dup2\n      add\n      0x40\n      mstore\n      dup1\n      swap3\n      swap2\n      swap1\n      dup2\n      dup2\n      mstore\n      0x20\n      add\n      dup3\n      dup1\n      sload\n      dup1\n      iszero\n      tag_73\n      jumpi\n      0x20\n      mul\n      dup3\n      add\n      swap2\n      swap1\n      0x0\n      mstore\n      keccak256(0x0, 0x20)\n      swap1\n    tag_74:\n      dup2\n      sload\n      dup2\n      mstore\n      0x20\n      add\n      swap1\n      0x1\n      add\n      swap1\n      dup1\n      dup4\n      gt\n      tag_74\n      jumpi\n    tag_73:\n      pop\n      pop\n      pop\n      pop\n      pop\n      swap1\n      pop\n      swap2\n      pop\n      swap2\n      pop\n        /* \"auctionversion2.sol\":3114:3249  function getItemDetails(uint id) public constant returns(uint, uint[]) {... */\n      swap2\n      pop\n      swap2\n      jump\t// out\n        /* \"auctionversion2.sol\":2371:2828  function revealWinners() public onlyOwner {... */\n    tag_29:\n        /* \"auctionversion2.sol\":2428:2435  uint id */\n      0x0\n        /* \"auctionversion2.sol\":2469:2493  Item storage currentItem */\n      dup1\n        /* \"auctionversion2.sol\":2577:2593  uint randomIndex */\n      0x0\n        /* \"auctionversion2.sol\":2692:2705  uint winnerId */\n      dup1\n        /* \"auctionversion2.sol\":2276:2287  beneficiary */\n      0x16\n      0x0\n      swap1\n      sload\n      swap1\n      0x100\n      exp\n      swap1\n      div\n      0xffffffffffffffffffffffffffffffffffffffff\n      and\n        /* \"auctionversion2.sol\":2262:2287  msg.sender == beneficiary */\n      0xffffffffffffffffffffffffffffffffffffffff\n      and\n        /* \"auctionversion2.sol\":2262:2272  msg.sender */\n      caller\n        /* \"auctionversion2.sol\":2262:2287  msg.sender == beneficiary */\n      0xffffffffffffffffffffffffffffffffffffffff\n      and\n      eq\n        /* \"auctionversion2.sol\":2254:2288  require(msg.sender == beneficiary) */\n      iszero\n      iszero\n      tag_76\n      jumpi\n      0x0\n      dup1\n      revert\n    tag_76:\n        /* \"auctionversion2.sol\":2438:2439  0 */\n      0x0\n        /* \"auctionversion2.sol\":2428:2439  uint id = 0 */\n      swap4\n      pop\n        /* \"auctionversion2.sol\":2423:2822  for (uint id = 0; id < 3; id++) {... */\n    tag_78:\n        /* \"auctionversion2.sol\":2446:2447  3 */\n      0x3\n        /* \"auctionversion2.sol\":2441:2443  id */\n      dup5\n        /* \"auctionversion2.sol\":2441:2447  id < 3 */\n      lt\n        /* \"auctionversion2.sol\":2423:2822  for (uint id = 0; id < 3; id++) {... */\n      iszero\n      tag_79\n      jumpi\n        /* \"auctionversion2.sol\":2496:2501  items */\n      0xd\n        /* \"auctionversion2.sol\":2502:2504  id */\n      dup5\n        /* \"auctionversion2.sol\":2496:2505  items[id] */\n      0x3\n      dup2\n      lt\n      iszero\n      iszero\n      tag_81\n      jumpi\n      invalid\n    tag_81:\n      0x2\n      mul\n      add\n        /* \"auctionversion2.sol\":2469:2505  Item storage currentItem = items[id] */\n      swap3\n      pop\n        /* \"auctionversion2.sol\":2556:2557  0 */\n      0x0\n        /* \"auctionversion2.sol\":2523:2534  currentItem */\n      dup4\n        /* \"auctionversion2.sol\":2523:2545  currentItem.itemTokens */\n      0x1\n      add\n        /* \"auctionversion2.sol\":2523:2552  currentItem.itemTokens.length */\n      dup1\n      sload\n      swap1\n      pop\n        /* \"auctionversion2.sol\":2523:2557  currentItem.itemTokens.length != 0 */\n      eq\n      iszero\n        /* \"auctionversion2.sol\":2519:2812  if (currentItem.itemTokens.length != 0) {... */\n      iszero\n      tag_83\n      jumpi\n        /* \"auctionversion2.sol\":2645:2656  currentItem */\n      dup3\n        /* \"auctionversion2.sol\":2645:2667  currentItem.itemTokens */\n      0x1\n      add\n        /* \"auctionversion2.sol\":2645:2674  currentItem.itemTokens.length */\n      dup1\n      sload\n      swap1\n      pop\n        /* \"auctionversion2.sol\":2612:2623  currentItem */\n      dup4\n        /* \"auctionversion2.sol\":2612:2634  currentItem.itemTokens */\n      0x1\n      add\n        /* \"auctionversion2.sol\":2612:2641  currentItem.itemTokens.length */\n      dup1\n      sload\n      swap1\n      pop\n        /* \"auctionversion2.sol\":2597:2609  block.number */\n      number\n        /* \"auctionversion2.sol\":2597:2641  block.number / currentItem.itemTokens.length */\n      dup2\n      iszero\n      iszero\n      tag_84\n      jumpi\n      invalid\n    tag_84:\n      div\n        /* \"auctionversion2.sol\":2596:2674  (block.number / currentItem.itemTokens.length) % currentItem.itemTokens.length */\n      dup2\n      iszero\n      iszero\n      tag_85\n      jumpi\n      invalid\n    tag_85:\n      mod\n        /* \"auctionversion2.sol\":2577:2674  uint randomIndex = (block.number / currentItem.itemTokens.length) % currentItem.itemTokens.length */\n      swap2\n      pop\n        /* \"auctionversion2.sol\":2708:2719  currentItem */\n      dup3\n        /* \"auctionversion2.sol\":2708:2730  currentItem.itemTokens */\n      0x1\n      add\n        /* \"auctionversion2.sol\":2731:2742  randomIndex */\n      dup3\n        /* \"auctionversion2.sol\":2708:2743  currentItem.itemTokens[randomIndex] */\n      dup2\n      sload\n      dup2\n      lt\n      iszero\n      iszero\n      tag_86\n      jumpi\n      invalid\n    tag_86:\n      swap1\n      0x0\n      mstore\n      keccak256(0x0, 0x20)\n      swap1\n      add\n      sload\n        /* \"auctionversion2.sol\":2692:2743  uint winnerId = currentItem.itemTokens[randomIndex] */\n      swap1\n      pop\n        /* \"auctionversion2.sol\":2775:2782  bidders */\n      0x1\n        /* \"auctionversion2.sol\":2783:2791  winnerId */\n      dup2\n        /* \"auctionversion2.sol\":2775:2792  bidders[winnerId] */\n      0x4\n      dup2\n      lt\n      iszero\n      iszero\n      tag_88\n      jumpi\n      invalid\n    tag_88:\n      0x3\n      mul\n      add\n        /* \"auctionversion2.sol\":2775:2797  bidders[winnerId].addr */\n      0x2\n      add\n      0x0\n      swap1\n      sload\n      swap1\n      0x100\n      exp\n      swap1\n      div\n      0xffffffffffffffffffffffffffffffffffffffff\n      and\n        /* \"auctionversion2.sol\":2761:2768  winners */\n      0x13\n        /* \"auctionversion2.sol\":2769:2771  id */\n      dup6\n        /* \"auctionversion2.sol\":2761:2772  winners[id] */\n      0x3\n      dup2\n      lt\n      iszero\n      iszero\n      tag_90\n      jumpi\n      invalid\n    tag_90:\n      add\n      0x0\n        /* \"auctionversion2.sol\":2761:2797  winners[id] = bidders[winnerId].addr */\n      0x100\n      exp\n      dup2\n      sload\n      dup2\n      0xffffffffffffffffffffffffffffffffffffffff\n      mul\n      not\n      and\n      swap1\n      dup4\n      0xffffffffffffffffffffffffffffffffffffffff\n      and\n      mul\n      or\n      swap1\n      sstore\n      pop\n        /* \"auctionversion2.sol\":2519:2812  if (currentItem.itemTokens.length != 0) {... */\n    tag_83:\n        /* \"auctionversion2.sol\":2449:2453  id++ */\n      dup4\n      dup1\n      0x1\n      add\n      swap5\n      pop\n      pop\n        /* \"auctionversion2.sol\":2423:2822  for (uint id = 0; id < 3; id++) {... */\n      jump(tag_78)\n    tag_79:\n        /* \"auctionversion2.sol\":2371:2828  function revealWinners() public onlyOwner {... */\n      pop\n      pop\n      pop\n      pop\n      jump\t// out\n        /* \"auctionversion2.sol\":690:715  address[3] public winners */\n    tag_32:\n      0x13\n      dup2\n      0x3\n      dup2\n      lt\n      iszero\n      iszero\n      tag_92\n      jumpi\n      invalid\n    tag_92:\n      add\n      0x0\n      swap2\n      pop\n      sload\n      swap1\n      0x100\n      exp\n      swap1\n      div\n      0xffffffffffffffffffffffffffffffffffffffff\n      and\n      dup2\n      jump\t// out\n        /* \"auctionversion2.sol\":629:649  Item[3] public items */\n    tag_35:\n      0xd\n      dup2\n      0x3\n      dup2\n      lt\n      iszero\n      iszero\n      tag_94\n      jumpi\n      invalid\n    tag_94:\n      0x2\n      mul\n      add\n      0x0\n      swap2\n      pop\n      swap1\n      pop\n      dup1\n      0x0\n      add\n      sload\n      swap1\n      pop\n      dup2\n      jump\t// out\n        /* \"auctionversion2.sol\":58:3251  contract Auction {... */\n    tag_57:\n      dup2\n      sload\n      dup2\n      dup4\n      sstore\n      dup2\n      dup2\n      iszero\n      gt\n      tag_96\n      jumpi\n      dup2\n      dup4\n      0x0\n      mstore\n      keccak256(0x0, 0x20)\n      swap2\n      dup3\n      add\n      swap2\n      add\n      tag_97\n      swap2\n      swap1\n      jump\t// in(tag_98)\n    tag_97:\n    tag_96:\n      pop\n      pop\n      pop\n      jump\t// out\n    tag_67:\n      0x20\n      mload(0x40)\n      swap1\n      dup2\n      add\n      0x40\n      mstore\n      dup1\n      0x0\n      dup2\n      mstore\n      pop\n      swap1\n      jump\t// out\n    tag_98:\n      tag_99\n      swap2\n      swap1\n    tag_100:\n      dup1\n      dup3\n      gt\n      iszero\n      tag_101\n      jumpi\n      0x0\n      dup2\n      0x0\n      swap1\n      sstore\n      pop\n      0x1\n      add\n      jump(tag_100)\n    tag_101:\n      pop\n      swap1\n      jump\n    tag_99:\n      swap1\n      jump\t// out\n\n    auxdata: 0xa165627a7a723058203f75bb923e16df2153b1cef03881272bd21fc9fb4e04046c04ed0771206bfd830029\n}\n",
				"bytecode": {
					"linkReferences": {},
					"object": "60606040526000601755341561001457600080fd5b33601660006101000a81548173ffffffffffffffffffffffffffffffffffffffff021916908373ffffffffffffffffffffffffffffffffffffffff16021790555060408051908101604052806000815260200160006040518059106100765750595b9080825280602002602001820160405250815250600d600060038110151561009a57fe5b600202016000820151816000015560208201518160010190805190602001906100c49291906101b3565b5090505060408051908101604052806001815260200160006040518059106100e95750595b9080825280602002602001820160405250815250600d600160038110151561010d57fe5b600202016000820151816000015560208201518160010190805190602001906101379291906101b3565b50905050604080519081016040528060028152602001600060405180591061015c5750595b9080825280602002602001820160405250815250600d600260038110151561018057fe5b600202016000820151816000015560208201518160010190805190602001906101aa9291906101b3565b50905050610225565b8280548282559060005260206000209081019282156101ef579160200282015b828111156101ee5782518255916020019190600101906101d3565b5b5090506101fc9190610200565b5090565b61022291905b8082111561021e576000816000905550600101610206565b5090565b90565b610a00806102346000396000f3006060604052361561008c576000357c0100000000000000000000000000000000000000000000000000000000900463ffffffff1680631aa3a0081461009157806338af3eed1461009b578063598647f8146100f0578063609817051461011c57806373004ca01461018d578063952587d61461020c578063a2fb117514610221578063bfb231d214610284575b600080fd5b6100996102bb565b005b34156100a657600080fd5b6100ae610434565b604051808273ffffffffffffffffffffffffffffffffffffffff1673ffffffffffffffffffffffffffffffffffffffff16815260200191505060405180910390f35b34156100fb57600080fd5b61011a600480803590602001909190803590602001909190505061045a565b005b341561012757600080fd5b61013d6004808035906020019091905050610699565b604051808481526020018381526020018273ffffffffffffffffffffffffffffffffffffffff1673ffffffffffffffffffffffffffffffffffffffff168152602001935050505060405180910390f35b341561019857600080fd5b6101ae6004808035906020019091905050610710565b6040518083815260200180602001828103825283818151815260200191508051906020019060200280838360005b838110156101f75780820151818401526020810190506101dc565b50505050905001935050505060405180910390f35b341561021757600080fd5b61021f6107a2565b005b341561022c57600080fd5b6102426004808035906020019091905050610917565b604051808273ffffffffffffffffffffffffffffffffffffffff1673ffffffffffffffffffffffffffffffffffffffff16815260200191505060405180910390f35b341561028f57600080fd5b6102a5600480803590602001909190505061094c565b6040518082815260200191505060405180910390f35b60175460016017546004811015156102cf57fe5b60030201600101819055503360016017546004811015156102ec57fe5b6003020160020160006101000a81548173ffffffffffffffffffffffffffffffffffffffff021916908373ffffffffffffffffffffffffffffffffffffffff1602179055506005600160175460048110151561034457fe5b6003020160000181905550600160175460048110151561036057fe5b600302016000803373ffffffffffffffffffffffffffffffffffffffff1673ffffffffffffffffffffffffffffffffffffffff16815260200190815260200160002060008201548160000155600182015481600101556002820160009054906101000a900473ffffffffffffffffffffffffffffffffffffffff168160020160006101000a81548173ffffffffffffffffffffffffffffffffffffffff021916908373ffffffffffffffffffffffffffffffffffffffff160217905550905050601760008154809291906001019190505550565b601660009054906101000a900473ffffffffffffffffffffffffffffffffffffffff1681565b600080826000803373ffffffffffffffffffffffffffffffffffffffff1673ffffffffffffffffffffffffffffffffffffffff16815260200190815260200160002060000154101515156104ad57600080fd5b60008060003373ffffffffffffffffffffffffffffffffffffffff1673ffffffffffffffffffffffffffffffffffffffff168152602001908152602001600020600001541115156104fd57600080fd5b60038410151561050c57600080fd5b826000803373ffffffffffffffffffffffffffffffffffffffff1673ffffffffffffffffffffffffffffffffffffffff168152602001908152602001600020600001600082825403925050819055506000803373ffffffffffffffffffffffffffffffffffffffff1673ffffffffffffffffffffffffffffffffffffffff1681526020019081526020016000206000015460016000803373ffffffffffffffffffffffffffffffffffffffff1673ffffffffffffffffffffffffffffffffffffffff168152602001908152602001600020600101546004811015156105ed57fe5b6003020160000181905550600d8460038110151561060757fe5b600202019150600090505b8281101561069357816001018054806001018281610630919061096f565b916000526020600020900160008060003373ffffffffffffffffffffffffffffffffffffffff1673ffffffffffffffffffffffffffffffffffffffff16815260200190815260200160002060010154909190915055508080600101915050610612565b50505050565b60008060006001846004811015156106ad57fe5b60030201600001546001856004811015156106c457fe5b60030201600101546001866004811015156106db57fe5b6003020160020160009054906101000a900473ffffffffffffffffffffffffffffffffffffffff169250925092509193909250565b600061071a61099b565b600d8360038110151561072957fe5b6002020160000154600d8460038110151561074057fe5b600202016001018080548060200260200160405190810160405280929190818152602001828054801561079257602002820191906000526020600020905b81548152602001906001019080831161077e575b5050505050905091509150915091565b600080600080601660009054906101000a900473ffffffffffffffffffffffffffffffffffffffff1673ffffffffffffffffffffffffffffffffffffffff163373ffffffffffffffffffffffffffffffffffffffff1614151561080457600080fd5b600093505b600384101561091157600d8460038110151561082157fe5b6002020192506000836001018054905014151561090457826001018054905083600101805490504381151561085257fe5b0481151561085c57fe5b069150826001018281548110151561087057fe5b906000526020600020900154905060018160048110151561088d57fe5b6003020160020160009054906101000a900473ffffffffffffffffffffffffffffffffffffffff166013856003811015156108c457fe5b0160006101000a81548173ffffffffffffffffffffffffffffffffffffffff021916908373ffffffffffffffffffffffffffffffffffffffff1602179055505b8380600101945050610809565b50505050565b60138160038110151561092657fe5b016000915054906101000a900473ffffffffffffffffffffffffffffffffffffffff1681565b600d8160038110151561095b57fe5b600202016000915090508060000154905081565b8154818355818115116109965781836000526020600020918201910161099591906109af565b5b505050565b602060405190810160405280600081525090565b6109d191905b808211156109cd5760008160009055506001016109b5565b5090565b905600a165627a7a723058203f75bb923e16df2153b1cef03881272bd21fc9fb4e04046c04ed0771206bfd830029",
					"opcodes": "PUSH1 0x60 PUSH1 0x40 MSTORE PUSH1 0x0 PUSH1 0x17 SSTORE CALLVALUE ISZERO PUSH2 0x14 JUMPI PUSH1 0x0 DUP1 REVERT JUMPDEST CALLER PUSH1 0x16 PUSH1 0x0 PUSH2 0x100 EXP DUP2 SLOAD DUP2 PUSH20 0xFFFFFFFFFFFFFFFFFFFFFFFFFFFFFFFFFFFFFFFF MUL NOT AND SWAP1 DUP4 PUSH20 0xFFFFFFFFFFFFFFFFFFFFFFFFFFFFFFFFFFFFFFFF AND MUL OR SWAP1 SSTORE POP PUSH1 0x40 DUP1 MLOAD SWAP1 DUP2 ADD PUSH1 0x40 MSTORE DUP1 PUSH1 0x0 DUP2 MSTORE PUSH1 0x20 ADD PUSH1 0x0 PUSH1 0x40 MLOAD DUP1 MSIZE LT PUSH2 0x76 JUMPI POP MSIZE JUMPDEST SWAP1 DUP1 DUP3 MSTORE DUP1 PUSH1 0x20 MUL PUSH1 0x20 ADD DUP3 ADD PUSH1 0x40 MSTORE POP DUP2 MSTORE POP PUSH1 0xD PUSH1 0x0 PUSH1 0x3 DUP2 LT ISZERO ISZERO PUSH2 0x9A JUMPI INVALID JUMPDEST PUSH1 0x2 MUL ADD PUSH1 0x0 DUP3 ADD MLOAD DUP2 PUSH1 0x0 ADD SSTORE PUSH1 0x20 DUP3 ADD MLOAD DUP2 PUSH1 0x1 ADD SWAP1 DUP1 MLOAD SWAP1 PUSH1 0x20 ADD SWAP1 PUSH2 0xC4 SWAP3 SWAP2 SWAP1 PUSH2 0x1B3 JUMP JUMPDEST POP SWAP1 POP POP PUSH1 0x40 DUP1 MLOAD SWAP1 DUP2 ADD PUSH1 0x40 MSTORE DUP1 PUSH1 0x1 DUP2 MSTORE PUSH1 0x20 ADD PUSH1 0x0 PUSH1 0x40 MLOAD DUP1 MSIZE LT PUSH2 0xE9 JUMPI POP MSIZE JUMPDEST SWAP1 DUP1 DUP3 MSTORE DUP1 PUSH1 0x20 MUL PUSH1 0x20 ADD DUP3 ADD PUSH1 0x40 MSTORE POP DUP2 MSTORE POP PUSH1 0xD PUSH1 0x1 PUSH1 0x3 DUP2 LT ISZERO ISZERO PUSH2 0x10D JUMPI INVALID JUMPDEST PUSH1 0x2 MUL ADD PUSH1 0x0 DUP3 ADD MLOAD DUP2 PUSH1 0x0 ADD SSTORE PUSH1 0x20 DUP3 ADD MLOAD DUP2 PUSH1 0x1 ADD SWAP1 DUP1 MLOAD SWAP1 PUSH1 0x20 ADD SWAP1 PUSH2 0x137 SWAP3 SWAP2 SWAP1 PUSH2 0x1B3 JUMP JUMPDEST POP SWAP1 POP POP PUSH1 0x40 DUP1 MLOAD SWAP1 DUP2 ADD PUSH1 0x40 MSTORE DUP1 PUSH1 0x2 DUP2 MSTORE PUSH1 0x20 ADD PUSH1 0x0 PUSH1 0x40 MLOAD DUP1 MSIZE LT PUSH2 0x15C JUMPI POP MSIZE JUMPDEST SWAP1 DUP1 DUP3 MSTORE DUP1 PUSH1 0x20 MUL PUSH1 0x20 ADD DUP3 ADD PUSH1 0x40 MSTORE POP DUP2 MSTORE POP PUSH1 0xD PUSH1 0x2 PUSH1 0x3 DUP2 LT ISZERO ISZERO PUSH2 0x180 JUMPI INVALID JUMPDEST PUSH1 0x2 MUL ADD PUSH1 0x0 DUP3 ADD MLOAD DUP2 PUSH1 0x0 ADD SSTORE PUSH1 0x20 DUP3 ADD MLOAD DUP2 PUSH1 0x1 ADD SWAP1 DUP1 MLOAD SWAP1 PUSH1 0x20 ADD SWAP1 PUSH2 0x1AA SWAP3 SWAP2 SWAP1 PUSH2 0x1B3 JUMP JUMPDEST POP SWAP1 POP POP PUSH2 0x225 JUMP JUMPDEST DUP3 DUP1 SLOAD DUP3 DUP3 SSTORE SWAP1 PUSH1 0x0 MSTORE PUSH1 0x20 PUSH1 0x0 KECCAK256 SWAP1 DUP2 ADD SWAP3 DUP3 ISZERO PUSH2 0x1EF JUMPI SWAP2 PUSH1 0x20 MUL DUP3 ADD JUMPDEST DUP3 DUP2 GT ISZERO PUSH2 0x1EE JUMPI DUP3 MLOAD DUP3 SSTORE SWAP2 PUSH1 0x20 ADD SWAP2 SWAP1 PUSH1 0x1 ADD SWAP1 PUSH2 0x1D3 JUMP JUMPDEST JUMPDEST POP SWAP1 POP PUSH2 0x1FC SWAP2 SWAP1 PUSH2 0x200 JUMP JUMPDEST POP SWAP1 JUMP JUMPDEST PUSH2 0x222 SWAP2 SWAP1 JUMPDEST DUP1 DUP3 GT ISZERO PUSH2 0x21E JUMPI PUSH1 0x0 DUP2 PUSH1 0x0 SWAP1 SSTORE POP PUSH1 0x1 ADD PUSH2 0x206 JUMP JUMPDEST POP SWAP1 JUMP JUMPDEST SWAP1 JUMP JUMPDEST PUSH2 0xA00 DUP1 PUSH2 0x234 PUSH1 0x0 CODECOPY PUSH1 0x0 RETURN STOP PUSH1 0x60 PUSH1 0x40 MSTORE CALLDATASIZE ISZERO PUSH2 0x8C JUMPI PUSH1 0x0 CALLDATALOAD PUSH29 0x100000000000000000000000000000000000000000000000000000000 SWAP1 DIV PUSH4 0xFFFFFFFF AND DUP1 PUSH4 0x1AA3A008 EQ PUSH2 0x91 JUMPI DUP1 PUSH4 0x38AF3EED EQ PUSH2 0x9B JUMPI DUP1 PUSH4 0x598647F8 EQ PUSH2 0xF0 JUMPI DUP1 PUSH4 0x60981705 EQ PUSH2 0x11C JUMPI DUP1 PUSH4 0x73004CA0 EQ PUSH2 0x18D JUMPI DUP1 PUSH4 0x952587D6 EQ PUSH2 0x20C JUMPI DUP1 PUSH4 0xA2FB1175 EQ PUSH2 0x221 JUMPI DUP1 PUSH4 0xBFB231D2 EQ PUSH2 0x284 JUMPI JUMPDEST PUSH1 0x0 DUP1 REVERT JUMPDEST PUSH2 0x99 PUSH2 0x2BB JUMP JUMPDEST STOP JUMPDEST CALLVALUE ISZERO PUSH2 0xA6 JUMPI PUSH1 0x0 DUP1 REVERT JUMPDEST PUSH2 0xAE PUSH2 0x434 JUMP JUMPDEST PUSH1 0x40 MLOAD DUP1 DUP3 PUSH20 0xFFFFFFFFFFFFFFFFFFFFFFFFFFFFFFFFFFFFFFFF AND PUSH20 0xFFFFFFFFFFFFFFFFFFFFFFFFFFFFFFFFFFFFFFFF AND DUP2 MSTORE PUSH1 0x20 ADD SWAP2 POP POP PUSH1 0x40 MLOAD DUP1 SWAP2 SUB SWAP1 RETURN JUMPDEST CALLVALUE ISZERO PUSH2 0xFB JUMPI PUSH1 0x0 DUP1 REVERT JUMPDEST PUSH2 0x11A PUSH1 0x4 DUP1 DUP1 CALLDATALOAD SWAP1 PUSH1 0x20 ADD SWAP1 SWAP2 SWAP1 DUP1 CALLDATALOAD SWAP1 PUSH1 0x20 ADD SWAP1 SWAP2 SWAP1 POP POP PUSH2 0x45A JUMP JUMPDEST STOP JUMPDEST CALLVALUE ISZERO PUSH2 0x127 JUMPI PUSH1 0x0 DUP1 REVERT JUMPDEST PUSH2 0x13D PUSH1 0x4 DUP1 DUP1 CALLDATALOAD SWAP1 PUSH1 0x20 ADD SWAP1 SWAP2 SWAP1 POP POP PUSH2 0x699 JUMP JUMPDEST PUSH1 0x40 MLOAD DUP1 DUP5 DUP2 MSTORE PUSH1 0x20 ADD DUP4 DUP2 MSTORE PUSH1 0x20 ADD DUP3 PUSH20 0xFFFFFFFFFFFFFFFFFFFFFFFFFFFFFFFFFFFFFFFF AND PUSH20 0xFFFFFFFFFFFFFFFFFFFFFFFFFFFFFFFFFFFFFFFF AND DUP2 MSTORE PUSH1 0x20 ADD SWAP4 POP POP POP POP PUSH1 0x40 MLOAD DUP1 SWAP2 SUB SWAP1 RETURN JUMPDEST CALLVALUE ISZERO PUSH2 0x198 JUMPI PUSH1 0x0 DUP1 REVERT JUMPDEST PUSH2 0x1AE PUSH1 0x4 DUP1 DUP1 CALLDATALOAD SWAP1 PUSH1 0x20 ADD SWAP1 SWAP2 SWAP1 POP POP PUSH2 0x710 JUMP JUMPDEST PUSH1 0x40 MLOAD DUP1 DUP4 DUP2 MSTORE PUSH1 0x20 ADD DUP1 PUSH1 0x20 ADD DUP3 DUP2 SUB DUP3 MSTORE DUP4 DUP2 DUP2 MLOAD DUP2 MSTORE PUSH1 0x20 ADD SWAP2 POP DUP1 MLOAD SWAP1 PUSH1 0x20 ADD SWAP1 PUSH1 0x20 MUL DUP1 DUP4 DUP4 PUSH1 0x0 JUMPDEST DUP4 DUP2 LT ISZERO PUSH2 0x1F7 JUMPI DUP1 DUP3 ADD MLOAD DUP2 DUP5 ADD MSTORE PUSH1 0x20 DUP2 ADD SWAP1 POP PUSH2 0x1DC JUMP JUMPDEST POP POP POP POP SWAP1 POP ADD SWAP4 POP POP POP POP PUSH1 0x40 MLOAD DUP1 SWAP2 SUB SWAP1 RETURN JUMPDEST CALLVALUE ISZERO PUSH2 0x217 JUMPI PUSH1 0x0 DUP1 REVERT JUMPDEST PUSH2 0x21F PUSH2 0x7A2 JUMP JUMPDEST STOP JUMPDEST CALLVALUE ISZERO PUSH2 0x22C JUMPI PUSH1 0x0 DUP1 REVERT JUMPDEST PUSH2 0x242 PUSH1 0x4 DUP1 DUP1 CALLDATALOAD SWAP1 PUSH1 0x20 ADD SWAP1 SWAP2 SWAP1 POP POP PUSH2 0x917 JUMP JUMPDEST PUSH1 0x40 MLOAD DUP1 DUP3 PUSH20 0xFFFFFFFFFFFFFFFFFFFFFFFFFFFFFFFFFFFFFFFF AND PUSH20 0xFFFFFFFFFFFFFFFFFFFFFFFFFFFFFFFFFFFFFFFF AND DUP2 MSTORE PUSH1 0x20 ADD SWAP2 POP POP PUSH1 0x40 MLOAD DUP1 SWAP2 SUB SWAP1 RETURN JUMPDEST CALLVALUE ISZERO PUSH2 0x28F JUMPI PUSH1 0x0 DUP1 REVERT JUMPDEST PUSH2 0x2A5 PUSH1 0x4 DUP1 DUP1 CALLDATALOAD SWAP1 PUSH1 0x20 ADD SWAP1 SWAP2 SWAP1 POP POP PUSH2 0x94C JUMP JUMPDEST PUSH1 0x40 MLOAD DUP1 DUP3 DUP2 MSTORE PUSH1 0x20 ADD SWAP2 POP POP PUSH1 0x40 MLOAD DUP1 SWAP2 SUB SWAP1 RETURN JUMPDEST PUSH1 0x17 SLOAD PUSH1 0x1 PUSH1 0x17 SLOAD PUSH1 0x4 DUP2 LT ISZERO ISZERO PUSH2 0x2CF JUMPI INVALID JUMPDEST PUSH1 0x3 MUL ADD PUSH1 0x1 ADD DUP2 SWAP1 SSTORE POP CALLER PUSH1 0x1 PUSH1 0x17 SLOAD PUSH1 0x4 DUP2 LT ISZERO ISZERO PUSH2 0x2EC JUMPI INVALID JUMPDEST PUSH1 0x3 MUL ADD PUSH1 0x2 ADD PUSH1 0x0 PUSH2 0x100 EXP DUP2 SLOAD DUP2 PUSH20 0xFFFFFFFFFFFFFFFFFFFFFFFFFFFFFFFFFFFFFFFF MUL NOT AND SWAP1 DUP4 PUSH20 0xFFFFFFFFFFFFFFFFFFFFFFFFFFFFFFFFFFFFFFFF AND MUL OR SWAP1 SSTORE POP PUSH1 0x5 PUSH1 0x1 PUSH1 0x17 SLOAD PUSH1 0x4 DUP2 LT ISZERO ISZERO PUSH2 0x344 JUMPI INVALID JUMPDEST PUSH1 0x3 MUL ADD PUSH1 0x0 ADD DUP2 SWAP1 SSTORE POP PUSH1 0x1 PUSH1 0x17 SLOAD PUSH1 0x4 DUP2 LT ISZERO ISZERO PUSH2 0x360 JUMPI INVALID JUMPDEST PUSH1 0x3 MUL ADD PUSH1 0x0 DUP1 CALLER PUSH20 0xFFFFFFFFFFFFFFFFFFFFFFFFFFFFFFFFFFFFFFFF AND PUSH20 0xFFFFFFFFFFFFFFFFFFFFFFFFFFFFFFFFFFFFFFFF AND DUP2 MSTORE PUSH1 0x20 ADD SWAP1 DUP2 MSTORE PUSH1 0x20 ADD PUSH1 0x0 KECCAK256 PUSH1 0x0 DUP3 ADD SLOAD DUP2 PUSH1 0x0 ADD SSTORE PUSH1 0x1 DUP3 ADD SLOAD DUP2 PUSH1 0x1 ADD SSTORE PUSH1 0x2 DUP3 ADD PUSH1 0x0 SWAP1 SLOAD SWAP1 PUSH2 0x100 EXP SWAP1 DIV PUSH20 0xFFFFFFFFFFFFFFFFFFFFFFFFFFFFFFFFFFFFFFFF AND DUP2 PUSH1 0x2 ADD PUSH1 0x0 PUSH2 0x100 EXP DUP2 SLOAD DUP2 PUSH20 0xFFFFFFFFFFFFFFFFFFFFFFFFFFFFFFFFFFFFFFFF MUL NOT AND SWAP1 DUP4 PUSH20 0xFFFFFFFFFFFFFFFFFFFFFFFFFFFFFFFFFFFFFFFF AND MUL OR SWAP1 SSTORE POP SWAP1 POP POP PUSH1 0x17 PUSH1 0x0 DUP2 SLOAD DUP1 SWAP3 SWAP2 SWAP1 PUSH1 0x1 ADD SWAP2 SWAP1 POP SSTORE POP JUMP JUMPDEST PUSH1 0x16 PUSH1 0x0 SWAP1 SLOAD SWAP1 PUSH2 0x100 EXP SWAP1 DIV PUSH20 0xFFFFFFFFFFFFFFFFFFFFFFFFFFFFFFFFFFFFFFFF AND DUP2 JUMP JUMPDEST PUSH1 0x0 DUP1 DUP3 PUSH1 0x0 DUP1 CALLER PUSH20 0xFFFFFFFFFFFFFFFFFFFFFFFFFFFFFFFFFFFFFFFF AND PUSH20 0xFFFFFFFFFFFFFFFFFFFFFFFFFFFFFFFFFFFFFFFF AND DUP2 MSTORE PUSH1 0x20 ADD SWAP1 DUP2 MSTORE PUSH1 0x20 ADD PUSH1 0x0 KECCAK256 PUSH1 0x0 ADD SLOAD LT ISZERO ISZERO ISZERO PUSH2 0x4AD JUMPI PUSH1 0x0 DUP1 REVERT JUMPDEST PUSH1 0x0 DUP1 PUSH1 0x0 CALLER PUSH20 0xFFFFFFFFFFFFFFFFFFFFFFFFFFFFFFFFFFFFFFFF AND PUSH20 0xFFFFFFFFFFFFFFFFFFFFFFFFFFFFFFFFFFFFFFFF AND DUP2 MSTORE PUSH1 0x20 ADD SWAP1 DUP2 MSTORE PUSH1 0x20 ADD PUSH1 0x0 KECCAK256 PUSH1 0x0 ADD SLOAD GT ISZERO ISZERO PUSH2 0x4FD JUMPI PUSH1 0x0 DUP1 REVERT JUMPDEST PUSH1 0x3 DUP5 LT ISZERO ISZERO PUSH2 0x50C JUMPI PUSH1 0x0 DUP1 REVERT JUMPDEST DUP3 PUSH1 0x0 DUP1 CALLER PUSH20 0xFFFFFFFFFFFFFFFFFFFFFFFFFFFFFFFFFFFFFFFF AND PUSH20 0xFFFFFFFFFFFFFFFFFFFFFFFFFFFFFFFFFFFFFFFF AND DUP2 MSTORE PUSH1 0x20 ADD SWAP1 DUP2 MSTORE PUSH1 0x20 ADD PUSH1 0x0 KECCAK256 PUSH1 0x0 ADD PUSH1 0x0 DUP3 DUP3 SLOAD SUB SWAP3 POP POP DUP2 SWAP1 SSTORE POP PUSH1 0x0 DUP1 CALLER PUSH20 0xFFFFFFFFFFFFFFFFFFFFFFFFFFFFFFFFFFFFFFFF AND PUSH20 0xFFFFFFFFFFFFFFFFFFFFFFFFFFFFFFFFFFFFFFFF AND DUP2 MSTORE PUSH1 0x20 ADD SWAP1 DUP2 MSTORE PUSH1 0x20 ADD PUSH1 0x0 KECCAK256 PUSH1 0x0 ADD SLOAD PUSH1 0x1 PUSH1 0x0 DUP1 CALLER PUSH20 0xFFFFFFFFFFFFFFFFFFFFFFFFFFFFFFFFFFFFFFFF AND PUSH20 0xFFFFFFFFFFFFFFFFFFFFFFFFFFFFFFFFFFFFFFFF AND DUP2 MSTORE PUSH1 0x20 ADD SWAP1 DUP2 MSTORE PUSH1 0x20 ADD PUSH1 0x0 KECCAK256 PUSH1 0x1 ADD SLOAD PUSH1 0x4 DUP2 LT ISZERO ISZERO PUSH2 0x5ED JUMPI INVALID JUMPDEST PUSH1 0x3 MUL ADD PUSH1 0x0 ADD DUP2 SWAP1 SSTORE POP PUSH1 0xD DUP5 PUSH1 0x3 DUP2 LT ISZERO ISZERO PUSH2 0x607 JUMPI INVALID JUMPDEST PUSH1 0x2 MUL ADD SWAP2 POP PUSH1 0x0 SWAP1 POP JUMPDEST DUP3 DUP2 LT ISZERO PUSH2 0x693 JUMPI DUP2 PUSH1 0x1 ADD DUP1 SLOAD DUP1 PUSH1 0x1 ADD DUP3 DUP2 PUSH2 0x630 SWAP2 SWAP1 PUSH2 0x96F JUMP JUMPDEST SWAP2 PUSH1 0x0 MSTORE PUSH1 0x20 PUSH1 0x0 KECCAK256 SWAP1 ADD PUSH1 0x0 DUP1 PUSH1 0x0 CALLER PUSH20 0xFFFFFFFFFFFFFFFFFFFFFFFFFFFFFFFFFFFFFFFF AND PUSH20 0xFFFFFFFFFFFFFFFFFFFFFFFFFFFFFFFFFFFFFFFF AND DUP2 MSTORE PUSH1 0x20 ADD SWAP1 DUP2 MSTORE PUSH1 0x20 ADD PUSH1 0x0 KECCAK256 PUSH1 0x1 ADD SLOAD SWAP1 SWAP2 SWAP1 SWAP2 POP SSTORE POP DUP1 DUP1 PUSH1 0x1 ADD SWAP2 POP POP PUSH2 0x612 JUMP JUMPDEST POP POP POP POP JUMP JUMPDEST PUSH1 0x0 DUP1 PUSH1 0x0 PUSH1 0x1 DUP5 PUSH1 0x4 DUP2 LT ISZERO ISZERO PUSH2 0x6AD JUMPI INVALID JUMPDEST PUSH1 0x3 MUL ADD PUSH1 0x0 ADD SLOAD PUSH1 0x1 DUP6 PUSH1 0x4 DUP2 LT ISZERO ISZERO PUSH2 0x6C4 JUMPI INVALID JUMPDEST PUSH1 0x3 MUL ADD PUSH1 0x1 ADD SLOAD PUSH1 0x1 DUP7 PUSH1 0x4 DUP2 LT ISZERO ISZERO PUSH2 0x6DB JUMPI INVALID JUMPDEST PUSH1 0x3 MUL ADD PUSH1 0x2 ADD PUSH1 0x0 SWAP1 SLOAD SWAP1 PUSH2 0x100 EXP SWAP1 DIV PUSH20 0xFFFFFFFFFFFFFFFFFFFFFFFFFFFFFFFFFFFFFFFF AND SWAP3 POP SWAP3 POP SWAP3 POP SWAP2 SWAP4 SWAP1 SWAP3 POP JUMP JUMPDEST PUSH1 0x0 PUSH2 0x71A PUSH2 0x99B JUMP JUMPDEST PUSH1 0xD DUP4 PUSH1 0x3 DUP2 LT ISZERO ISZERO PUSH2 0x729 JUMPI INVALID JUMPDEST PUSH1 0x2 MUL ADD PUSH1 0x0 ADD SLOAD PUSH1 0xD DUP5 PUSH1 0x3 DUP2 LT ISZERO ISZERO PUSH2 0x740 JUMPI INVALID JUMPDEST PUSH1 0x2 MUL ADD PUSH1 0x1 ADD DUP1 DUP1 SLOAD DUP1 PUSH1 0x20 MUL PUSH1 0x20 ADD PUSH1 0x40 MLOAD SWAP1 DUP2 ADD PUSH1 0x40 MSTORE DUP1 SWAP3 SWAP2 SWAP1 DUP2 DUP2 MSTORE PUSH1 0x20 ADD DUP3 DUP1 SLOAD DUP1 ISZERO PUSH2 0x792 JUMPI PUSH1 0x20 MUL DUP3 ADD SWAP2 SWAP1 PUSH1 0x0 MSTORE PUSH1 0x20 PUSH1 0x0 KECCAK256 SWAP1 JUMPDEST DUP2 SLOAD DUP2 MSTORE PUSH1 0x20 ADD SWAP1 PUSH1 0x1 ADD SWAP1 DUP1 DUP4 GT PUSH2 0x77E JUMPI JUMPDEST POP POP POP POP POP SWAP1 POP SWAP2 POP SWAP2 POP SWAP2 POP SWAP2 JUMP JUMPDEST PUSH1 0x0 DUP1 PUSH1 0x0 DUP1 PUSH1 0x16 PUSH1 0x0 SWAP1 SLOAD SWAP1 PUSH2 0x100 EXP SWAP1 DIV PUSH20 0xFFFFFFFFFFFFFFFFFFFFFFFFFFFFFFFFFFFFFFFF AND PUSH20 0xFFFFFFFFFFFFFFFFFFFFFFFFFFFFFFFFFFFFFFFF AND CALLER PUSH20 0xFFFFFFFFFFFFFFFFFFFFFFFFFFFFFFFFFFFFFFFF AND EQ ISZERO ISZERO PUSH2 0x804 JUMPI PUSH1 0x0 DUP1 REVERT JUMPDEST PUSH1 0x0 SWAP4 POP JUMPDEST PUSH1 0x3 DUP5 LT ISZERO PUSH2 0x911 JUMPI PUSH1 0xD DUP5 PUSH1 0x3 DUP2 LT ISZERO ISZERO PUSH2 0x821 JUMPI INVALID JUMPDEST PUSH1 0x2 MUL ADD SWAP3 POP PUSH1 0x0 DUP4 PUSH1 0x1 ADD DUP1 SLOAD SWAP1 POP EQ ISZERO ISZERO PUSH2 0x904 JUMPI DUP3 PUSH1 0x1 ADD DUP1 SLOAD SWAP1 POP DUP4 PUSH1 0x1 ADD DUP1 SLOAD SWAP1 POP NUMBER DUP2 ISZERO ISZERO PUSH2 0x852 JUMPI INVALID JUMPDEST DIV DUP2 ISZERO ISZERO PUSH2 0x85C JUMPI INVALID JUMPDEST MOD SWAP2 POP DUP3 PUSH1 0x1 ADD DUP3 DUP2 SLOAD DUP2 LT ISZERO ISZERO PUSH2 0x870 JUMPI INVALID JUMPDEST SWAP1 PUSH1 0x0 MSTORE PUSH1 0x20 PUSH1 0x0 KECCAK256 SWAP1 ADD SLOAD SWAP1 POP PUSH1 0x1 DUP2 PUSH1 0x4 DUP2 LT ISZERO ISZERO PUSH2 0x88D JUMPI INVALID JUMPDEST PUSH1 0x3 MUL ADD PUSH1 0x2 ADD PUSH1 0x0 SWAP1 SLOAD SWAP1 PUSH2 0x100 EXP SWAP1 DIV PUSH20 0xFFFFFFFFFFFFFFFFFFFFFFFFFFFFFFFFFFFFFFFF AND PUSH1 0x13 DUP6 PUSH1 0x3 DUP2 LT ISZERO ISZERO PUSH2 0x8C4 JUMPI INVALID JUMPDEST ADD PUSH1 0x0 PUSH2 0x100 EXP DUP2 SLOAD DUP2 PUSH20 0xFFFFFFFFFFFFFFFFFFFFFFFFFFFFFFFFFFFFFFFF MUL NOT AND SWAP1 DUP4 PUSH20 0xFFFFFFFFFFFFFFFFFFFFFFFFFFFFFFFFFFFFFFFF AND MUL OR SWAP1 SSTORE POP JUMPDEST DUP4 DUP1 PUSH1 0x1 ADD SWAP5 POP POP PUSH2 0x809 JUMP JUMPDEST POP POP POP POP JUMP JUMPDEST PUSH1 0x13 DUP2 PUSH1 0x3 DUP2 LT ISZERO ISZERO PUSH2 0x926 JUMPI INVALID JUMPDEST ADD PUSH1 0x0 SWAP2 POP SLOAD SWAP1 PUSH2 0x100 EXP SWAP1 DIV PUSH20 0xFFFFFFFFFFFFFFFFFFFFFFFFFFFFFFFFFFFFFFFF AND DUP2 JUMP JUMPDEST PUSH1 0xD DUP2 PUSH1 0x3 DUP2 LT ISZERO ISZERO PUSH2 0x95B JUMPI INVALID JUMPDEST PUSH1 0x2 MUL ADD PUSH1 0x0 SWAP2 POP SWAP1 POP DUP1 PUSH1 0x0 ADD SLOAD SWAP1 POP DUP2 JUMP JUMPDEST DUP2 SLOAD DUP2 DUP4 SSTORE DUP2 DUP2 ISZERO GT PUSH2 0x996 JUMPI DUP2 DUP4 PUSH1 0x0 MSTORE PUSH1 0x20 PUSH1 0x0 KECCAK256 SWAP2 DUP3 ADD SWAP2 ADD PUSH2 0x995 SWAP2 SWAP1 PUSH2 0x9AF JUMP JUMPDEST JUMPDEST POP POP POP JUMP JUMPDEST PUSH1 0x20 PUSH1 0x40 MLOAD SWAP1 DUP2 ADD PUSH1 0x40 MSTORE DUP1 PUSH1 0x0 DUP2 MSTORE POP SWAP1 JUMP JUMPDEST PUSH2 0x9D1 SWAP2 SWAP1 JUMPDEST DUP1 DUP3 GT ISZERO PUSH2 0x9CD JUMPI PUSH1 0x0 DUP2 PUSH1 0x0 SWAP1 SSTORE POP PUSH1 0x1 ADD PUSH2 0x9B5 JUMP JUMPDEST POP SWAP1 JUMP JUMPDEST SWAP1 JUMP STOP LOG1 PUSH6 0x627A7A723058 KECCAK256 0x3f PUSH22 0xBB923E16DF2153B1CEF03881272BD21FC9FB4E04046C DIV 0xed SMOD PUSH18 0x206BFD830029000000000000000000000000 "
				},
				"gasEstimates": {
					"creation": {
						"codeDepositCost": "512000",
						"executionCost": "infinite",
						"totalCost": "infinite"
					},
					"external": {
						"beneficiary()": "453",
						"bid(uint256,uint256)": "infinite",
						"getItemDetails(uint256)": "infinite",
						"getPersonDetails(uint256)": "1159",
						"items(uint256)": "641",
						"register()": "142880",
						"revealWinners()": "infinite",
						"winners(uint256)": "634"
					}
				},
				"methodIdentifiers": {
					"beneficiary()": "38af3eed",
					"bid(uint256,uint256)": "598647f8",
					"getItemDetails(uint256)": "73004ca0",
					"getPersonDetails(uint256)": "60981705",
					"items(uint256)": "bfb231d2",
					"register()": "1aa3a008",
					"revealWinners()": "952587d6",
					"winners(uint256)": "a2fb1175"
				}
			},
			"userdoc": {
				"methods": {}
			}
		}
	}
}