{
	"ba.sol": {
		"Ballot": {
			"abi": [
				{
					"inputs": [
						{
							"internalType": "uint8",
							"name": "_numProposals",
							"type": "uint8"
						}
					],
					"payable": false,
					"stateMutability": "nonpayable",
					"type": "constructor"
				},
				{
					"anonymous": false,
					"inputs": [],
					"name": "votingCompleted",
					"type": "event"
				},
				{
					"constant": false,
					"inputs": [
						{
							"internalType": "address",
							"name": "toVoter",
							"type": "address"
						}
					],
					"name": "register",
					"outputs": [],
					"payable": false,
					"stateMutability": "nonpayable",
					"type": "function"
				},
				{
					"constant": true,
					"inputs": [],
					"name": "stage",
					"outputs": [
						{
							"internalType": "enum Ballot.Stage",
							"name": "",
							"type": "uint8"
						}
					],
					"payable": false,
					"stateMutability": "view",
					"type": "function"
				},
				{
					"constant": false,
					"inputs": [
						{
							"internalType": "uint8",
							"name": "toProposal",
							"type": "uint8"
						}
					],
					"name": "vote",
					"outputs": [],
					"payable": false,
					"stateMutability": "nonpayable",
					"type": "function"
				},
				{
					"constant": true,
					"inputs": [],
					"name": "winningProposal",
					"outputs": [
						{
							"internalType": "uint8",
							"name": "_winningProposal",
							"type": "uint8"
						}
					],
					"payable": false,
					"stateMutability": "view",
					"type": "function"
				}
			],
			"devdoc": {
				"methods": {}
			},
			"evm": {
				"assembly": "    /* \"ba.sol\":60:2346  contract Ballot {... */\n  mstore(0x40, 0x80)\n    /* \"ba.sol\":308:318  Stage.Init */\n  0x00\n    /* \"ba.sol\":287:318  Stage public stage = Stage.Init */\n  dup1\n  exp(0x0100, 0x00)\n  dup2\n  sload\n  dup2\n  0xff\n  mul\n  not\n  and\n  swap1\n  dup4\n  0x03\n  dup2\n  gt\n  iszero\n  tag_1\n  jumpi\n  invalid\ntag_1:\n  mul\n  or\n  swap1\n  sstore\n  pop\n    /* \"ba.sol\":651:903  constructor(uint8 _numProposals) public  {... */\n  callvalue\n    /* \"--CODEGEN--\":8:17   */\n  dup1\n    /* \"--CODEGEN--\":5:7   */\n  iszero\n  tag_2\n  jumpi\n    /* \"--CODEGEN--\":30:31   */\n  0x00\n    /* \"--CODEGEN--\":27:28   */\n  dup1\n    /* \"--CODEGEN--\":20:32   */\n  revert\n    /* \"--CODEGEN--\":5:7   */\ntag_2:\n    /* \"ba.sol\":651:903  constructor(uint8 _numProposals) public  {... */\n  pop\n  mload(0x40)\n  sub(codesize, bytecodeSize)\n  dup1\n  bytecodeSize\n  dup4\n  codecopy\n  dup2\n  dup2\n  add\n  0x40\n  mstore\n    /* \"--CODEGEN--\":13:15   */\n  0x20\n    /* \"--CODEGEN--\":8:11   */\n  dup2\n    /* \"--CODEGEN--\":5:16   */\n  lt\n    /* \"--CODEGEN--\":2:4   */\n  iszero\n  tag_3\n  jumpi\n    /* \"--CODEGEN--\":29:30   */\n  0x00\n    /* \"--CODEGEN--\":26:27   */\n  dup1\n    /* \"--CODEGEN--\":19:31   */\n  revert\n    /* \"--CODEGEN--\":2:4   */\ntag_3:\n    /* \"ba.sol\":651:903  constructor(uint8 _numProposals) public  {... */\n  dup2\n  add\n  swap1\n  dup1\n  dup1\n  mload\n  swap1\n  0x20\n  add\n  swap1\n  swap3\n  swap2\n  swap1\n  pop\n  pop\n  pop\n    /* \"ba.sol\":716:726  msg.sender */\n  caller\n    /* \"ba.sol\":702:713  chairperson */\n  0x00\n  0x01\n    /* \"ba.sol\":702:726  chairperson = msg.sender */\n  0x0100\n  exp\n  dup2\n  sload\n  dup2\n  0xffffffffffffffffffffffffffffffffffffffff\n  mul\n  not\n  and\n  swap1\n  dup4\n  0xffffffffffffffffffffffffffffffffffffffff\n  and\n  mul\n  or\n  swap1\n  sstore\n  pop\n    /* \"ba.sol\":765:766  2 */\n  0x02\n    /* \"ba.sol\":736:742  voters */\n  0x01\n    /* \"ba.sol\":736:755  voters[chairperson] */\n  0x00\n    /* \"ba.sol\":743:754  chairperson */\n  dup1\n  0x01\n  swap1\n  sload\n  swap1\n  0x0100\n  exp\n  swap1\n  div\n  0xffffffffffffffffffffffffffffffffffffffff\n  and\n    /* \"ba.sol\":736:755  voters[chairperson] */\n  0xffffffffffffffffffffffffffffffffffffffff\n  and\n  0xffffffffffffffffffffffffffffffffffffffff\n  and\n  dup2\n  mstore\n  0x20\n  add\n  swap1\n  dup2\n  mstore\n  0x20\n  add\n  0x00\n  keccak256\n    /* \"ba.sol\":736:762  voters[chairperson].weight */\n  0x00\n  add\n    /* \"ba.sol\":736:766  voters[chairperson].weight = 2 */\n  dup2\n  swap1\n  sstore\n  pop\n    /* \"ba.sol\":831:844  _numProposals */\n  dup1\n    /* \"ba.sol\":812:844  proposals.length = _numProposals */\n  0xff\n  and\n    /* \"ba.sol\":812:821  proposals */\n  0x02\n    /* \"ba.sol\":812:844  proposals.length = _numProposals */\n  dup2\n  tag_6\n  swap2\n  swap1\n  tag_7\n  jump\t// in\ntag_6:\n  pop\n    /* \"ba.sol\":862:871  Stage.Reg */\n  0x01\n    /* \"ba.sol\":854:859  stage */\n  0x00\n  dup1\n    /* \"ba.sol\":854:871  stage = Stage.Reg */\n  0x0100\n  exp\n  dup2\n  sload\n  dup2\n  0xff\n  mul\n  not\n  and\n  swap1\n  dup4\n  0x03\n  dup2\n  gt\n  iszero\n  tag_8\n  jumpi\n  invalid\ntag_8:\n  mul\n  or\n  swap1\n  sstore\n  pop\n    /* \"ba.sol\":893:896  now */\n  timestamp\n    /* \"ba.sol\":881:890  startTime */\n  0x03\n    /* \"ba.sol\":881:896  startTime = now */\n  dup2\n  swap1\n  sstore\n  pop\n    /* \"ba.sol\":651:903  constructor(uint8 _numProposals) public  {... */\n  pop\n    /* \"ba.sol\":60:2346  contract Ballot {... */\n  jump(tag_9)\ntag_7:\n  dup2\n  sload\n  dup2\n  dup4\n  sstore\n  dup2\n  dup2\n  gt\n  iszero\n  tag_10\n  jumpi\n  dup2\n  dup4\n  0x00\n  mstore\n  keccak256(0x00, 0x20)\n  swap2\n  dup3\n  add\n  swap2\n  add\n  tag_11\n  swap2\n  swap1\n  tag_12\n  jump\t// in\ntag_11:\ntag_10:\n  pop\n  pop\n  pop\n  jump\t// out\ntag_12:\n  tag_13\n  swap2\n  swap1\ntag_14:\n  dup1\n  dup3\n  gt\n  iszero\n  tag_15\n  jumpi\n  0x00\n  dup1\n  dup3\n  add\n  0x00\n  swap1\n  sstore\n  pop\n  0x01\n  add\n  jump(tag_14)\ntag_15:\n  pop\n  swap1\n  jump\ntag_13:\n  swap1\n  jump\t// out\ntag_9:\n  dataSize(sub_0)\n  dup1\n  dataOffset(sub_0)\n  0x00\n  codecopy\n  0x00\n  return\nstop\n\nsub_0: assembly {\n        /* \"ba.sol\":60:2346  contract Ballot {... */\n      mstore(0x40, 0x80)\n      callvalue\n        /* \"--CODEGEN--\":8:17   */\n      dup1\n        /* \"--CODEGEN--\":5:7   */\n      iszero\n      tag_1\n      jumpi\n        /* \"--CODEGEN--\":30:31   */\n      0x00\n        /* \"--CODEGEN--\":27:28   */\n      dup1\n        /* \"--CODEGEN--\":20:32   */\n      revert\n        /* \"--CODEGEN--\":5:7   */\n    tag_1:\n        /* \"ba.sol\":60:2346  contract Ballot {... */\n      pop\n      jumpi(tag_2, lt(calldatasize, 0x04))\n      shr(0xe0, calldataload(0x00))\n      dup1\n      0x4420e486\n      eq\n      tag_3\n      jumpi\n      dup1\n      0x609ff1bd\n      eq\n      tag_4\n      jumpi\n      dup1\n      0xb3f98adc\n      eq\n      tag_5\n      jumpi\n      dup1\n      0xc040e6b8\n      eq\n      tag_6\n      jumpi\n    tag_2:\n      0x00\n      dup1\n      revert\n        /* \"ba.sol\":1013:1349  function register(address toVoter) public validStage(Stage.Reg) {... */\n    tag_3:\n      tag_7\n      0x04\n      dup1\n      calldatasize\n      sub\n        /* \"--CODEGEN--\":13:15   */\n      0x20\n        /* \"--CODEGEN--\":8:11   */\n      dup2\n        /* \"--CODEGEN--\":5:16   */\n      lt\n        /* \"--CODEGEN--\":2:4   */\n      iszero\n      tag_8\n      jumpi\n        /* \"--CODEGEN--\":29:30   */\n      0x00\n        /* \"--CODEGEN--\":26:27   */\n      dup1\n        /* \"--CODEGEN--\":19:31   */\n      revert\n        /* \"--CODEGEN--\":2:4   */\n    tag_8:\n        /* \"ba.sol\":1013:1349  function register(address toVoter) public validStage(Stage.Reg) {... */\n      dup2\n      add\n      swap1\n      dup1\n      dup1\n      calldataload\n      0xffffffffffffffffffffffffffffffffffffffff\n      and\n      swap1\n      0x20\n      add\n      swap1\n      swap3\n      swap2\n      swap1\n      pop\n      pop\n      pop\n      tag_9\n      jump\t// in\n    tag_7:\n      stop\n        /* \"ba.sol\":1879:2344  function winningProposal() public validStage(Stage.Done) view returns (uint8 _winningProposal) {... */\n    tag_4:\n      tag_10\n      tag_11\n      jump\t// in\n    tag_10:\n      mload(0x40)\n      dup1\n      dup3\n      0xff\n      and\n      0xff\n      and\n      dup2\n      mstore\n      0x20\n      add\n      swap2\n      pop\n      pop\n      mload(0x40)\n      dup1\n      swap2\n      sub\n      swap1\n      return\n        /* \"ba.sol\":1409:1873  function vote(uint8 toProposal) public validStage(Stage.Vote)  {... */\n    tag_5:\n      tag_12\n      0x04\n      dup1\n      calldatasize\n      sub\n        /* \"--CODEGEN--\":13:15   */\n      0x20\n        /* \"--CODEGEN--\":8:11   */\n      dup2\n        /* \"--CODEGEN--\":5:16   */\n      lt\n        /* \"--CODEGEN--\":2:4   */\n      iszero\n      tag_13\n      jumpi\n        /* \"--CODEGEN--\":29:30   */\n      0x00\n        /* \"--CODEGEN--\":26:27   */\n      dup1\n        /* \"--CODEGEN--\":19:31   */\n      revert\n        /* \"--CODEGEN--\":2:4   */\n    tag_13:\n        /* \"ba.sol\":1409:1873  function vote(uint8 toProposal) public validStage(Stage.Vote)  {... */\n      dup2\n      add\n      swap1\n      dup1\n      dup1\n      calldataload\n      0xff\n      and\n      swap1\n      0x20\n      add\n      swap1\n      swap3\n      swap2\n      swap1\n      pop\n      pop\n      pop\n      tag_14\n      jump\t// in\n    tag_12:\n      stop\n        /* \"ba.sol\":287:318  Stage public stage = Stage.Init */\n    tag_6:\n      tag_15\n      tag_16\n      jump\t// in\n    tag_15:\n      mload(0x40)\n      dup1\n      dup3\n      0x03\n      dup2\n      gt\n      iszero\n      tag_17\n      jumpi\n      invalid\n    tag_17:\n      0xff\n      and\n      dup2\n      mstore\n      0x20\n      add\n      swap2\n      pop\n      pop\n      mload(0x40)\n      dup1\n      swap2\n      sub\n      swap1\n      return\n        /* \"ba.sol\":1013:1349  function register(address toVoter) public validStage(Stage.Reg) {... */\n    tag_9:\n        /* \"ba.sol\":1066:1075  Stage.Reg */\n      0x01\n        /* \"ba.sol\":548:556  reqStage */\n      dup1\n        /* \"ba.sol\":539:556  stage == reqStage */\n      0x03\n      dup2\n      gt\n      iszero\n      tag_19\n      jumpi\n      invalid\n    tag_19:\n        /* \"ba.sol\":539:544  stage */\n      0x00\n      dup1\n      swap1\n      sload\n      swap1\n      0x0100\n      exp\n      swap1\n      div\n      0xff\n      and\n        /* \"ba.sol\":539:556  stage == reqStage */\n      0x03\n      dup2\n      gt\n      iszero\n      tag_20\n      jumpi\n      invalid\n    tag_20:\n      eq\n        /* \"ba.sol\":531:557  require(stage == reqStage) */\n      tag_21\n      jumpi\n      0x00\n      dup1\n      revert\n    tag_21:\n        /* \"ba.sol\":1149:1160  chairperson */\n      0x00\n      0x01\n      swap1\n      sload\n      swap1\n      0x0100\n      exp\n      swap1\n      div\n      0xffffffffffffffffffffffffffffffffffffffff\n      and\n        /* \"ba.sol\":1135:1160  msg.sender != chairperson */\n      0xffffffffffffffffffffffffffffffffffffffff\n      and\n        /* \"ba.sol\":1135:1145  msg.sender */\n      caller\n        /* \"ba.sol\":1135:1160  msg.sender != chairperson */\n      0xffffffffffffffffffffffffffffffffffffffff\n      and\n      eq\n      iszero\n        /* \"ba.sol\":1135:1185  msg.sender != chairperson || voters[toVoter].voted */\n      dup1\n      tag_23\n      jumpi\n      pop\n        /* \"ba.sol\":1164:1170  voters */\n      0x01\n        /* \"ba.sol\":1164:1179  voters[toVoter] */\n      0x00\n        /* \"ba.sol\":1171:1178  toVoter */\n      dup4\n        /* \"ba.sol\":1164:1179  voters[toVoter] */\n      0xffffffffffffffffffffffffffffffffffffffff\n      and\n      0xffffffffffffffffffffffffffffffffffffffff\n      and\n      dup2\n      mstore\n      0x20\n      add\n      swap1\n      dup2\n      mstore\n      0x20\n      add\n      0x00\n      keccak256\n        /* \"ba.sol\":1164:1185  voters[toVoter].voted */\n      0x01\n      add\n      0x00\n      swap1\n      sload\n      swap1\n      0x0100\n      exp\n      swap1\n      div\n      0xff\n      and\n        /* \"ba.sol\":1135:1185  msg.sender != chairperson || voters[toVoter].voted */\n    tag_23:\n        /* \"ba.sol\":1131:1194  if (msg.sender != chairperson || voters[toVoter].voted) return; */\n      iszero\n      tag_24\n      jumpi\n        /* \"ba.sol\":1187:1194  return; */\n      jump(tag_22)\n        /* \"ba.sol\":1131:1194  if (msg.sender != chairperson || voters[toVoter].voted) return; */\n    tag_24:\n        /* \"ba.sol\":1228:1229  1 */\n      0x01\n        /* \"ba.sol\":1203:1209  voters */\n      dup1\n        /* \"ba.sol\":1203:1218  voters[toVoter] */\n      0x00\n        /* \"ba.sol\":1210:1217  toVoter */\n      dup5\n        /* \"ba.sol\":1203:1218  voters[toVoter] */\n      0xffffffffffffffffffffffffffffffffffffffff\n      and\n      0xffffffffffffffffffffffffffffffffffffffff\n      and\n      dup2\n      mstore\n      0x20\n      add\n      swap1\n      dup2\n      mstore\n      0x20\n      add\n      0x00\n      keccak256\n        /* \"ba.sol\":1203:1225  voters[toVoter].weight */\n      0x00\n      add\n        /* \"ba.sol\":1203:1229  voters[toVoter].weight = 1 */\n      dup2\n      swap1\n      sstore\n      pop\n        /* \"ba.sol\":1263:1268  false */\n      0x00\n        /* \"ba.sol\":1239:1245  voters */\n      0x01\n        /* \"ba.sol\":1239:1254  voters[toVoter] */\n      0x00\n        /* \"ba.sol\":1246:1253  toVoter */\n      dup5\n        /* \"ba.sol\":1239:1254  voters[toVoter] */\n      0xffffffffffffffffffffffffffffffffffffffff\n      and\n      0xffffffffffffffffffffffffffffffffffffffff\n      and\n      dup2\n      mstore\n      0x20\n      add\n      swap1\n      dup2\n      mstore\n      0x20\n      add\n      0x00\n      keccak256\n        /* \"ba.sol\":1239:1260  voters[toVoter].voted */\n      0x01\n      add\n      0x00\n        /* \"ba.sol\":1239:1268  voters[toVoter].voted = false */\n      0x0100\n      exp\n      dup2\n      sload\n      dup2\n      0xff\n      mul\n      not\n      and\n      swap1\n      dup4\n      iszero\n      iszero\n      mul\n      or\n      swap1\n      sstore\n      pop\n        /* \"ba.sol\":1300:1310  30 seconds */\n      0x1e\n        /* \"ba.sol\":1289:1298  startTime */\n      sload(0x03)\n        /* \"ba.sol\":1289:1310  startTime+ 30 seconds */\n      add\n        /* \"ba.sol\":1282:1285  now */\n      timestamp\n        /* \"ba.sol\":1282:1311  now > (startTime+ 30 seconds) */\n      gt\n        /* \"ba.sol\":1278:1335  if (now > (startTime+ 30 seconds)) {stage = Stage.Vote; } */\n      iszero\n      tag_25\n      jumpi\n        /* \"ba.sol\":1322:1332  Stage.Vote */\n      0x02\n        /* \"ba.sol\":1314:1319  stage */\n      0x00\n      dup1\n        /* \"ba.sol\":1314:1332  stage = Stage.Vote */\n      0x0100\n      exp\n      dup2\n      sload\n      dup2\n      0xff\n      mul\n      not\n      and\n      swap1\n      dup4\n      0x03\n      dup2\n      gt\n      iszero\n      tag_26\n      jumpi\n      invalid\n    tag_26:\n      mul\n      or\n      swap1\n      sstore\n      pop\n        /* \"ba.sol\":1278:1335  if (now > (startTime+ 30 seconds)) {stage = Stage.Vote; } */\n    tag_25:\n        /* \"ba.sol\":565:566  _ */\n    tag_22:\n        /* \"ba.sol\":1013:1349  function register(address toVoter) public validStage(Stage.Reg) {... */\n      pop\n      pop\n      jump\t// out\n        /* \"ba.sol\":1879:2344  function winningProposal() public validStage(Stage.Done) view returns (uint8 _winningProposal) {... */\n    tag_11:\n        /* \"ba.sol\":1950:1972  uint8 _winningProposal */\n      0x00\n        /* \"ba.sol\":1924:1934  Stage.Done */\n      0x03\n        /* \"ba.sol\":548:556  reqStage */\n      dup1\n        /* \"ba.sol\":539:556  stage == reqStage */\n      0x03\n      dup2\n      gt\n      iszero\n      tag_28\n      jumpi\n      invalid\n    tag_28:\n        /* \"ba.sol\":539:544  stage */\n      0x00\n      dup1\n      swap1\n      sload\n      swap1\n      0x0100\n      exp\n      swap1\n      div\n      0xff\n      and\n        /* \"ba.sol\":539:556  stage == reqStage */\n      0x03\n      dup2\n      gt\n      iszero\n      tag_29\n      jumpi\n      invalid\n    tag_29:\n      eq\n        /* \"ba.sol\":531:557  require(stage == reqStage) */\n      tag_30\n      jumpi\n      0x00\n      dup1\n      revert\n    tag_30:\n        /* \"ba.sol\":2027:2051  uint256 winningVoteCount */\n      0x00\n        /* \"ba.sol\":2054:2055  0 */\n      dup1\n        /* \"ba.sol\":2027:2055  uint256 winningVoteCount = 0 */\n      swap1\n      pop\n        /* \"ba.sol\":2070:2080  uint8 prop */\n      0x00\n        /* \"ba.sol\":2083:2084  0 */\n      dup1\n        /* \"ba.sol\":2070:2084  uint8 prop = 0 */\n      swap1\n      pop\n        /* \"ba.sol\":2065:2299  for (uint8 prop = 0; prop < proposals.length; prop++)... */\n    tag_32:\n        /* \"ba.sol\":2093:2102  proposals */\n      0x02\n        /* \"ba.sol\":2093:2109  proposals.length */\n      dup1\n      sload\n      swap1\n      pop\n        /* \"ba.sol\":2086:2090  prop */\n      dup2\n        /* \"ba.sol\":2086:2109  prop < proposals.length */\n      0xff\n      and\n      lt\n        /* \"ba.sol\":2065:2299  for (uint8 prop = 0; prop < proposals.length; prop++)... */\n      iszero\n      tag_33\n      jumpi\n        /* \"ba.sol\":2163:2179  winningVoteCount */\n      dup2\n        /* \"ba.sol\":2135:2144  proposals */\n      0x02\n        /* \"ba.sol\":2145:2149  prop */\n      dup3\n        /* \"ba.sol\":2135:2150  proposals[prop] */\n      0xff\n      and\n      dup2\n      sload\n      dup2\n      lt\n      tag_35\n      jumpi\n      invalid\n    tag_35:\n      swap1\n      0x00\n      mstore\n      keccak256(0x00, 0x20)\n      add\n        /* \"ba.sol\":2135:2160  proposals[prop].voteCount */\n      0x00\n      add\n      sload\n        /* \"ba.sol\":2135:2179  proposals[prop].voteCount > winningVoteCount */\n      gt\n        /* \"ba.sol\":2131:2299  if (proposals[prop].voteCount > winningVoteCount) {... */\n      iszero\n      tag_37\n      jumpi\n        /* \"ba.sol\":2218:2227  proposals */\n      0x02\n        /* \"ba.sol\":2228:2232  prop */\n      dup2\n        /* \"ba.sol\":2218:2233  proposals[prop] */\n      0xff\n      and\n      dup2\n      sload\n      dup2\n      lt\n      tag_38\n      jumpi\n      invalid\n    tag_38:\n      swap1\n      0x00\n      mstore\n      keccak256(0x00, 0x20)\n      add\n        /* \"ba.sol\":2218:2243  proposals[prop].voteCount */\n      0x00\n      add\n      sload\n        /* \"ba.sol\":2199:2243  winningVoteCount = proposals[prop].voteCount */\n      swap2\n      pop\n        /* \"ba.sol\":2280:2284  prop */\n      dup1\n        /* \"ba.sol\":2261:2284  _winningProposal = prop */\n      swap4\n      pop\n        /* \"ba.sol\":2131:2299  if (proposals[prop].voteCount > winningVoteCount) {... */\n    tag_37:\n        /* \"ba.sol\":2111:2117  prop++ */\n      dup1\n      dup1\n      0x01\n      add\n      swap2\n      pop\n      pop\n        /* \"ba.sol\":2065:2299  for (uint8 prop = 0; prop < proposals.length; prop++)... */\n      jump(tag_32)\n    tag_33:\n      pop\n        /* \"ba.sol\":2334:2335  0 */\n      0x00\n        /* \"ba.sol\":2315:2331  winningVoteCount */\n      dup2\n        /* \"ba.sol\":2315:2335  winningVoteCount > 0 */\n      gt\n        /* \"ba.sol\":2307:2336  assert (winningVoteCount > 0) */\n      tag_40\n      jumpi\n      invalid\n    tag_40:\n        /* \"ba.sol\":565:566  _ */\n      pop\n        /* \"ba.sol\":1879:2344  function winningProposal() public validStage(Stage.Done) view returns (uint8 _winningProposal) {... */\n      pop\n      swap1\n      jump\t// out\n        /* \"ba.sol\":1409:1873  function vote(uint8 toProposal) public validStage(Stage.Vote)  {... */\n    tag_14:\n        /* \"ba.sol\":1459:1469  Stage.Vote */\n      0x02\n        /* \"ba.sol\":548:556  reqStage */\n      dup1\n        /* \"ba.sol\":539:556  stage == reqStage */\n      0x03\n      dup2\n      gt\n      iszero\n      tag_42\n      jumpi\n      invalid\n    tag_42:\n        /* \"ba.sol\":539:544  stage */\n      0x00\n      dup1\n      swap1\n      sload\n      swap1\n      0x0100\n      exp\n      swap1\n      div\n      0xff\n      and\n        /* \"ba.sol\":539:556  stage == reqStage */\n      0x03\n      dup2\n      gt\n      iszero\n      tag_43\n      jumpi\n      invalid\n    tag_43:\n      eq\n        /* \"ba.sol\":531:557  require(stage == reqStage) */\n      tag_44\n      jumpi\n      0x00\n      dup1\n      revert\n    tag_44:\n        /* \"ba.sol\":1527:1547  Voter storage sender */\n      0x00\n        /* \"ba.sol\":1550:1556  voters */\n      0x01\n        /* \"ba.sol\":1550:1568  voters[msg.sender] */\n      0x00\n        /* \"ba.sol\":1557:1567  msg.sender */\n      caller\n        /* \"ba.sol\":1550:1568  voters[msg.sender] */\n      0xffffffffffffffffffffffffffffffffffffffff\n      and\n      0xffffffffffffffffffffffffffffffffffffffff\n      and\n      dup2\n      mstore\n      0x20\n      add\n      swap1\n      dup2\n      mstore\n      0x20\n      add\n      0x00\n      keccak256\n        /* \"ba.sol\":1527:1568  Voter storage sender = voters[msg.sender] */\n      swap1\n      pop\n        /* \"ba.sol\":1582:1588  sender */\n      dup1\n        /* \"ba.sol\":1582:1594  sender.voted */\n      0x01\n      add\n      0x00\n      swap1\n      sload\n      swap1\n      0x0100\n      exp\n      swap1\n      div\n      0xff\n      and\n        /* \"ba.sol\":1582:1628  sender.voted || toProposal >= proposals.length */\n      dup1\n      tag_46\n      jumpi\n      pop\n        /* \"ba.sol\":1612:1621  proposals */\n      0x02\n        /* \"ba.sol\":1612:1628  proposals.length */\n      dup1\n      sload\n      swap1\n      pop\n        /* \"ba.sol\":1598:1608  toProposal */\n      dup4\n        /* \"ba.sol\":1598:1628  toProposal >= proposals.length */\n      0xff\n      and\n      lt\n      iszero\n        /* \"ba.sol\":1582:1628  sender.voted || toProposal >= proposals.length */\n    tag_46:\n        /* \"ba.sol\":1578:1637  if (sender.voted || toProposal >= proposals.length) return; */\n      iszero\n      tag_47\n      jumpi\n        /* \"ba.sol\":1630:1637  return; */\n      pop\n      jump(tag_45)\n        /* \"ba.sol\":1578:1637  if (sender.voted || toProposal >= proposals.length) return; */\n    tag_47:\n        /* \"ba.sol\":1661:1665  true */\n      0x01\n        /* \"ba.sol\":1646:1652  sender */\n      dup2\n        /* \"ba.sol\":1646:1658  sender.voted */\n      0x01\n      add\n      0x00\n        /* \"ba.sol\":1646:1665  sender.voted = true */\n      0x0100\n      exp\n      dup2\n      sload\n      dup2\n      0xff\n      mul\n      not\n      and\n      swap1\n      dup4\n      iszero\n      iszero\n      mul\n      or\n      swap1\n      sstore\n      pop\n        /* \"ba.sol\":1689:1699  toProposal */\n      dup3\n        /* \"ba.sol\":1675:1681  sender */\n      dup2\n        /* \"ba.sol\":1675:1686  sender.vote */\n      0x01\n      add\n      0x01\n        /* \"ba.sol\":1675:1699  sender.vote = toProposal */\n      0x0100\n      exp\n      dup2\n      sload\n      dup2\n      0xff\n      mul\n      not\n      and\n      swap1\n      dup4\n      0xff\n      and\n      mul\n      or\n      swap1\n      sstore\n      pop\n        /* \"ba.sol\":1747:1753  sender */\n      dup1\n        /* \"ba.sol\":1747:1760  sender.weight */\n      0x00\n      add\n      sload\n        /* \"ba.sol\":1712:1721  proposals */\n      0x02\n        /* \"ba.sol\":1722:1732  toProposal */\n      dup5\n        /* \"ba.sol\":1712:1733  proposals[toProposal] */\n      0xff\n      and\n      dup2\n      sload\n      dup2\n      lt\n      tag_48\n      jumpi\n      invalid\n    tag_48:\n      swap1\n      0x00\n      mstore\n      keccak256(0x00, 0x20)\n      add\n        /* \"ba.sol\":1712:1743  proposals[toProposal].voteCount */\n      0x00\n      add\n      0x00\n        /* \"ba.sol\":1712:1760  proposals[toProposal].voteCount += sender.weight */\n      dup3\n      dup3\n      sload\n      add\n      swap3\n      pop\n      pop\n      dup2\n      swap1\n      sstore\n      pop\n        /* \"ba.sol\":1792:1802  30 seconds */\n      0x1e\n        /* \"ba.sol\":1781:1790  startTime */\n      sload(0x03)\n        /* \"ba.sol\":1781:1802  startTime+ 30 seconds */\n      add\n        /* \"ba.sol\":1774:1777  now */\n      timestamp\n        /* \"ba.sol\":1774:1803  now > (startTime+ 30 seconds) */\n      gt\n        /* \"ba.sol\":1770:1850  if (now > (startTime+ 30 seconds)) {stage = Stage.Done; emit votingCompleted();} */\n      iszero\n      tag_50\n      jumpi\n        /* \"ba.sol\":1814:1824  Stage.Done */\n      0x03\n        /* \"ba.sol\":1806:1811  stage */\n      0x00\n      dup1\n        /* \"ba.sol\":1806:1824  stage = Stage.Done */\n      0x0100\n      exp\n      dup2\n      sload\n      dup2\n      0xff\n      mul\n      not\n      and\n      swap1\n      dup4\n      0x03\n      dup2\n      gt\n      iszero\n      tag_51\n      jumpi\n      invalid\n    tag_51:\n      mul\n      or\n      swap1\n      sstore\n      pop\n        /* \"ba.sol\":1831:1848  votingCompleted() */\n      0x6ac0c89219f0135e3a87cecdf1851abced71da933a0a00e1eada0ef035382351\n      mload(0x40)\n      mload(0x40)\n      dup1\n      swap2\n      sub\n      swap1\n      log1\n        /* \"ba.sol\":1770:1850  if (now > (startTime+ 30 seconds)) {stage = Stage.Done; emit votingCompleted();} */\n    tag_50:\n        /* \"ba.sol\":565:566  _ */\n      pop\n    tag_45:\n        /* \"ba.sol\":1409:1873  function vote(uint8 toProposal) public validStage(Stage.Vote)  {... */\n      pop\n      pop\n      jump\t// out\n        /* \"ba.sol\":287:318  Stage public stage = Stage.Init */\n    tag_16:\n      0x00\n      dup1\n      swap1\n      sload\n      swap1\n      0x0100\n      exp\n      swap1\n      div\n      0xff\n      and\n      dup2\n      jump\t// out\n\n    auxdata: 0xa265627a7a7231582073d1e1b77a16bbcb63c64ed2a6333b8b746aa69867bf5b2aadbfc726933258f264736f6c63430005110032\n}\n",
				"bytecode": {
					"linkReferences": {},
					"object": "608060405260008060006101000a81548160ff0219169083600381111561002257fe5b021790555034801561003357600080fd5b506040516106f53803806106f58339818101604052602081101561005657600080fd5b810190808051906020019092919050505033600060016101000a81548173ffffffffffffffffffffffffffffffffffffffff021916908373ffffffffffffffffffffffffffffffffffffffff1602179055506002600160008060019054906101000a900473ffffffffffffffffffffffffffffffffffffffff1673ffffffffffffffffffffffffffffffffffffffff1673ffffffffffffffffffffffffffffffffffffffff168152602001908152602001600020600001819055508060ff166002816101229190610153565b5060016000806101000a81548160ff0219169083600381111561014157fe5b021790555042600381905550506101a6565b81548183558181111561017a57818360005260206000209182019101610179919061017f565b5b505050565b6101a391905b8082111561019f5760008082016000905550600101610185565b5090565b90565b610540806101b56000396000f3fe608060405234801561001057600080fd5b506004361061004c5760003560e01c80634420e48614610051578063609ff1bd14610095578063b3f98adc146100b9578063c040e6b8146100ea575b600080fd5b6100936004803603602081101561006757600080fd5b81019080803573ffffffffffffffffffffffffffffffffffffffff169060200190929190505050610116565b005b61009d6102d3565b604051808260ff1660ff16815260200191505060405180910390f35b6100e8600480360360208110156100cf57600080fd5b81019080803560ff169060200190929190505050610388565b005b6100f26104f9565b6040518082600381111561010257fe5b60ff16815260200191505060405180910390f35b600180600381111561012457fe5b6000809054906101000a900460ff16600381111561013e57fe5b1461014857600080fd5b600060019054906101000a900473ffffffffffffffffffffffffffffffffffffffff1673ffffffffffffffffffffffffffffffffffffffff163373ffffffffffffffffffffffffffffffffffffffff161415806101f15750600160008373ffffffffffffffffffffffffffffffffffffffff1673ffffffffffffffffffffffffffffffffffffffff16815260200190815260200160002060010160009054906101000a900460ff165b156101fb576102cf565b60018060008473ffffffffffffffffffffffffffffffffffffffff1673ffffffffffffffffffffffffffffffffffffffff168152602001908152602001600020600001819055506000600160008473ffffffffffffffffffffffffffffffffffffffff1673ffffffffffffffffffffffffffffffffffffffff16815260200190815260200160002060010160006101000a81548160ff021916908315150217905550601e600354014211156102ce5760026000806101000a81548160ff021916908360038111156102c857fe5b02179055505b5b5050565b600060038060038111156102e357fe5b6000809054906101000a900460ff1660038111156102fd57fe5b1461030757600080fd5b600080905060008090505b6002805490508160ff161015610378578160028260ff168154811061033357fe5b9060005260206000200160000154111561036b5760028160ff168154811061035757fe5b906000526020600020016000015491508093505b8080600101915050610312565b506000811161038357fe5b505090565b600280600381111561039657fe5b6000809054906101000a900460ff1660038111156103b057fe5b146103ba57600080fd5b6000600160003373ffffffffffffffffffffffffffffffffffffffff1673ffffffffffffffffffffffffffffffffffffffff16815260200190815260200160002090508060010160009054906101000a900460ff168061042257506002805490508360ff1610155b1561042d57506104f5565b60018160010160006101000a81548160ff021916908315150217905550828160010160016101000a81548160ff021916908360ff160217905550806000015460028460ff168154811061047c57fe5b9060005260206000200160000160008282540192505081905550601e600354014211156104f35760036000806101000a81548160ff021916908360038111156104c157fe5b02179055507f6ac0c89219f0135e3a87cecdf1851abced71da933a0a00e1eada0ef03538235160405160405180910390a15b505b5050565b6000809054906101000a900460ff168156fea265627a7a7231582073d1e1b77a16bbcb63c64ed2a6333b8b746aa69867bf5b2aadbfc726933258f264736f6c63430005110032",
					"opcodes": "PUSH1 0x80 PUSH1 0x40 MSTORE PUSH1 0x0 DUP1 PUSH1 0x0 PUSH2 0x100 EXP DUP2 SLOAD DUP2 PUSH1 0xFF MUL NOT AND SWAP1 DUP4 PUSH1 0x3 DUP2 GT ISZERO PUSH2 0x22 JUMPI INVALID JUMPDEST MUL OR SWAP1 SSTORE POP CALLVALUE DUP1 ISZERO PUSH2 0x33 JUMPI PUSH1 0x0 DUP1 REVERT JUMPDEST POP PUSH1 0x40 MLOAD PUSH2 0x6F5 CODESIZE SUB DUP1 PUSH2 0x6F5 DUP4 CODECOPY DUP2 DUP2 ADD PUSH1 0x40 MSTORE PUSH1 0x20 DUP2 LT ISZERO PUSH2 0x56 JUMPI PUSH1 0x0 DUP1 REVERT JUMPDEST DUP2 ADD SWAP1 DUP1 DUP1 MLOAD SWAP1 PUSH1 0x20 ADD SWAP1 SWAP3 SWAP2 SWAP1 POP POP POP CALLER PUSH1 0x0 PUSH1 0x1 PUSH2 0x100 EXP DUP2 SLOAD DUP2 PUSH20 0xFFFFFFFFFFFFFFFFFFFFFFFFFFFFFFFFFFFFFFFF MUL NOT AND SWAP1 DUP4 PUSH20 0xFFFFFFFFFFFFFFFFFFFFFFFFFFFFFFFFFFFFFFFF AND MUL OR SWAP1 SSTORE POP PUSH1 0x2 PUSH1 0x1 PUSH1 0x0 DUP1 PUSH1 0x1 SWAP1 SLOAD SWAP1 PUSH2 0x100 EXP SWAP1 DIV PUSH20 0xFFFFFFFFFFFFFFFFFFFFFFFFFFFFFFFFFFFFFFFF AND PUSH20 0xFFFFFFFFFFFFFFFFFFFFFFFFFFFFFFFFFFFFFFFF AND PUSH20 0xFFFFFFFFFFFFFFFFFFFFFFFFFFFFFFFFFFFFFFFF AND DUP2 MSTORE PUSH1 0x20 ADD SWAP1 DUP2 MSTORE PUSH1 0x20 ADD PUSH1 0x0 KECCAK256 PUSH1 0x0 ADD DUP2 SWAP1 SSTORE POP DUP1 PUSH1 0xFF AND PUSH1 0x2 DUP2 PUSH2 0x122 SWAP2 SWAP1 PUSH2 0x153 JUMP JUMPDEST POP PUSH1 0x1 PUSH1 0x0 DUP1 PUSH2 0x100 EXP DUP2 SLOAD DUP2 PUSH1 0xFF MUL NOT AND SWAP1 DUP4 PUSH1 0x3 DUP2 GT ISZERO PUSH2 0x141 JUMPI INVALID JUMPDEST MUL OR SWAP1 SSTORE POP TIMESTAMP PUSH1 0x3 DUP2 SWAP1 SSTORE POP POP PUSH2 0x1A6 JUMP JUMPDEST DUP2 SLOAD DUP2 DUP4 SSTORE DUP2 DUP2 GT ISZERO PUSH2 0x17A JUMPI DUP2 DUP4 PUSH1 0x0 MSTORE PUSH1 0x20 PUSH1 0x0 KECCAK256 SWAP2 DUP3 ADD SWAP2 ADD PUSH2 0x179 SWAP2 SWAP1 PUSH2 0x17F JUMP JUMPDEST JUMPDEST POP POP POP JUMP JUMPDEST PUSH2 0x1A3 SWAP2 SWAP1 JUMPDEST DUP1 DUP3 GT ISZERO PUSH2 0x19F JUMPI PUSH1 0x0 DUP1 DUP3 ADD PUSH1 0x0 SWAP1 SSTORE POP PUSH1 0x1 ADD PUSH2 0x185 JUMP JUMPDEST POP SWAP1 JUMP JUMPDEST SWAP1 JUMP JUMPDEST PUSH2 0x540 DUP1 PUSH2 0x1B5 PUSH1 0x0 CODECOPY PUSH1 0x0 RETURN INVALID PUSH1 0x80 PUSH1 0x40 MSTORE CALLVALUE DUP1 ISZERO PUSH2 0x10 JUMPI PUSH1 0x0 DUP1 REVERT JUMPDEST POP PUSH1 0x4 CALLDATASIZE LT PUSH2 0x4C JUMPI PUSH1 0x0 CALLDATALOAD PUSH1 0xE0 SHR DUP1 PUSH4 0x4420E486 EQ PUSH2 0x51 JUMPI DUP1 PUSH4 0x609FF1BD EQ PUSH2 0x95 JUMPI DUP1 PUSH4 0xB3F98ADC EQ PUSH2 0xB9 JUMPI DUP1 PUSH4 0xC040E6B8 EQ PUSH2 0xEA JUMPI JUMPDEST PUSH1 0x0 DUP1 REVERT JUMPDEST PUSH2 0x93 PUSH1 0x4 DUP1 CALLDATASIZE SUB PUSH1 0x20 DUP2 LT ISZERO PUSH2 0x67 JUMPI PUSH1 0x0 DUP1 REVERT JUMPDEST DUP2 ADD SWAP1 DUP1 DUP1 CALLDATALOAD PUSH20 0xFFFFFFFFFFFFFFFFFFFFFFFFFFFFFFFFFFFFFFFF AND SWAP1 PUSH1 0x20 ADD SWAP1 SWAP3 SWAP2 SWAP1 POP POP POP PUSH2 0x116 JUMP JUMPDEST STOP JUMPDEST PUSH2 0x9D PUSH2 0x2D3 JUMP JUMPDEST PUSH1 0x40 MLOAD DUP1 DUP3 PUSH1 0xFF AND PUSH1 0xFF AND DUP2 MSTORE PUSH1 0x20 ADD SWAP2 POP POP PUSH1 0x40 MLOAD DUP1 SWAP2 SUB SWAP1 RETURN JUMPDEST PUSH2 0xE8 PUSH1 0x4 DUP1 CALLDATASIZE SUB PUSH1 0x20 DUP2 LT ISZERO PUSH2 0xCF JUMPI PUSH1 0x0 DUP1 REVERT JUMPDEST DUP2 ADD SWAP1 DUP1 DUP1 CALLDATALOAD PUSH1 0xFF AND SWAP1 PUSH1 0x20 ADD SWAP1 SWAP3 SWAP2 SWAP1 POP POP POP PUSH2 0x388 JUMP JUMPDEST STOP JUMPDEST PUSH2 0xF2 PUSH2 0x4F9 JUMP JUMPDEST PUSH1 0x40 MLOAD DUP1 DUP3 PUSH1 0x3 DUP2 GT ISZERO PUSH2 0x102 JUMPI INVALID JUMPDEST PUSH1 0xFF AND DUP2 MSTORE PUSH1 0x20 ADD SWAP2 POP POP PUSH1 0x40 MLOAD DUP1 SWAP2 SUB SWAP1 RETURN JUMPDEST PUSH1 0x1 DUP1 PUSH1 0x3 DUP2 GT ISZERO PUSH2 0x124 JUMPI INVALID JUMPDEST PUSH1 0x0 DUP1 SWAP1 SLOAD SWAP1 PUSH2 0x100 EXP SWAP1 DIV PUSH1 0xFF AND PUSH1 0x3 DUP2 GT ISZERO PUSH2 0x13E JUMPI INVALID JUMPDEST EQ PUSH2 0x148 JUMPI PUSH1 0x0 DUP1 REVERT JUMPDEST PUSH1 0x0 PUSH1 0x1 SWAP1 SLOAD SWAP1 PUSH2 0x100 EXP SWAP1 DIV PUSH20 0xFFFFFFFFFFFFFFFFFFFFFFFFFFFFFFFFFFFFFFFF AND PUSH20 0xFFFFFFFFFFFFFFFFFFFFFFFFFFFFFFFFFFFFFFFF AND CALLER PUSH20 0xFFFFFFFFFFFFFFFFFFFFFFFFFFFFFFFFFFFFFFFF AND EQ ISZERO DUP1 PUSH2 0x1F1 JUMPI POP PUSH1 0x1 PUSH1 0x0 DUP4 PUSH20 0xFFFFFFFFFFFFFFFFFFFFFFFFFFFFFFFFFFFFFFFF AND PUSH20 0xFFFFFFFFFFFFFFFFFFFFFFFFFFFFFFFFFFFFFFFF AND DUP2 MSTORE PUSH1 0x20 ADD SWAP1 DUP2 MSTORE PUSH1 0x20 ADD PUSH1 0x0 KECCAK256 PUSH1 0x1 ADD PUSH1 0x0 SWAP1 SLOAD SWAP1 PUSH2 0x100 EXP SWAP1 DIV PUSH1 0xFF AND JUMPDEST ISZERO PUSH2 0x1FB JUMPI PUSH2 0x2CF JUMP JUMPDEST PUSH1 0x1 DUP1 PUSH1 0x0 DUP5 PUSH20 0xFFFFFFFFFFFFFFFFFFFFFFFFFFFFFFFFFFFFFFFF AND PUSH20 0xFFFFFFFFFFFFFFFFFFFFFFFFFFFFFFFFFFFFFFFF AND DUP2 MSTORE PUSH1 0x20 ADD SWAP1 DUP2 MSTORE PUSH1 0x20 ADD PUSH1 0x0 KECCAK256 PUSH1 0x0 ADD DUP2 SWAP1 SSTORE POP PUSH1 0x0 PUSH1 0x1 PUSH1 0x0 DUP5 PUSH20 0xFFFFFFFFFFFFFFFFFFFFFFFFFFFFFFFFFFFFFFFF AND PUSH20 0xFFFFFFFFFFFFFFFFFFFFFFFFFFFFFFFFFFFFFFFF AND DUP2 MSTORE PUSH1 0x20 ADD SWAP1 DUP2 MSTORE PUSH1 0x20 ADD PUSH1 0x0 KECCAK256 PUSH1 0x1 ADD PUSH1 0x0 PUSH2 0x100 EXP DUP2 SLOAD DUP2 PUSH1 0xFF MUL NOT AND SWAP1 DUP4 ISZERO ISZERO MUL OR SWAP1 SSTORE POP PUSH1 0x1E PUSH1 0x3 SLOAD ADD TIMESTAMP GT ISZERO PUSH2 0x2CE JUMPI PUSH1 0x2 PUSH1 0x0 DUP1 PUSH2 0x100 EXP DUP2 SLOAD DUP2 PUSH1 0xFF MUL NOT AND SWAP1 DUP4 PUSH1 0x3 DUP2 GT ISZERO PUSH2 0x2C8 JUMPI INVALID JUMPDEST MUL OR SWAP1 SSTORE POP JUMPDEST JUMPDEST POP POP JUMP JUMPDEST PUSH1 0x0 PUSH1 0x3 DUP1 PUSH1 0x3 DUP2 GT ISZERO PUSH2 0x2E3 JUMPI INVALID JUMPDEST PUSH1 0x0 DUP1 SWAP1 SLOAD SWAP1 PUSH2 0x100 EXP SWAP1 DIV PUSH1 0xFF AND PUSH1 0x3 DUP2 GT ISZERO PUSH2 0x2FD JUMPI INVALID JUMPDEST EQ PUSH2 0x307 JUMPI PUSH1 0x0 DUP1 REVERT JUMPDEST PUSH1 0x0 DUP1 SWAP1 POP PUSH1 0x0 DUP1 SWAP1 POP JUMPDEST PUSH1 0x2 DUP1 SLOAD SWAP1 POP DUP2 PUSH1 0xFF AND LT ISZERO PUSH2 0x378 JUMPI DUP2 PUSH1 0x2 DUP3 PUSH1 0xFF AND DUP2 SLOAD DUP2 LT PUSH2 0x333 JUMPI INVALID JUMPDEST SWAP1 PUSH1 0x0 MSTORE PUSH1 0x20 PUSH1 0x0 KECCAK256 ADD PUSH1 0x0 ADD SLOAD GT ISZERO PUSH2 0x36B JUMPI PUSH1 0x2 DUP2 PUSH1 0xFF AND DUP2 SLOAD DUP2 LT PUSH2 0x357 JUMPI INVALID JUMPDEST SWAP1 PUSH1 0x0 MSTORE PUSH1 0x20 PUSH1 0x0 KECCAK256 ADD PUSH1 0x0 ADD SLOAD SWAP2 POP DUP1 SWAP4 POP JUMPDEST DUP1 DUP1 PUSH1 0x1 ADD SWAP2 POP POP PUSH2 0x312 JUMP JUMPDEST POP PUSH1 0x0 DUP2 GT PUSH2 0x383 JUMPI INVALID JUMPDEST POP POP SWAP1 JUMP JUMPDEST PUSH1 0x2 DUP1 PUSH1 0x3 DUP2 GT ISZERO PUSH2 0x396 JUMPI INVALID JUMPDEST PUSH1 0x0 DUP1 SWAP1 SLOAD SWAP1 PUSH2 0x100 EXP SWAP1 DIV PUSH1 0xFF AND PUSH1 0x3 DUP2 GT ISZERO PUSH2 0x3B0 JUMPI INVALID JUMPDEST EQ PUSH2 0x3BA JUMPI PUSH1 0x0 DUP1 REVERT JUMPDEST PUSH1 0x0 PUSH1 0x1 PUSH1 0x0 CALLER PUSH20 0xFFFFFFFFFFFFFFFFFFFFFFFFFFFFFFFFFFFFFFFF AND PUSH20 0xFFFFFFFFFFFFFFFFFFFFFFFFFFFFFFFFFFFFFFFF AND DUP2 MSTORE PUSH1 0x20 ADD SWAP1 DUP2 MSTORE PUSH1 0x20 ADD PUSH1 0x0 KECCAK256 SWAP1 POP DUP1 PUSH1 0x1 ADD PUSH1 0x0 SWAP1 SLOAD SWAP1 PUSH2 0x100 EXP SWAP1 DIV PUSH1 0xFF AND DUP1 PUSH2 0x422 JUMPI POP PUSH1 0x2 DUP1 SLOAD SWAP1 POP DUP4 PUSH1 0xFF AND LT ISZERO JUMPDEST ISZERO PUSH2 0x42D JUMPI POP PUSH2 0x4F5 JUMP JUMPDEST PUSH1 0x1 DUP2 PUSH1 0x1 ADD PUSH1 0x0 PUSH2 0x100 EXP DUP2 SLOAD DUP2 PUSH1 0xFF MUL NOT AND SWAP1 DUP4 ISZERO ISZERO MUL OR SWAP1 SSTORE POP DUP3 DUP2 PUSH1 0x1 ADD PUSH1 0x1 PUSH2 0x100 EXP DUP2 SLOAD DUP2 PUSH1 0xFF MUL NOT AND SWAP1 DUP4 PUSH1 0xFF AND MUL OR SWAP1 SSTORE POP DUP1 PUSH1 0x0 ADD SLOAD PUSH1 0x2 DUP5 PUSH1 0xFF AND DUP2 SLOAD DUP2 LT PUSH2 0x47C JUMPI INVALID JUMPDEST SWAP1 PUSH1 0x0 MSTORE PUSH1 0x20 PUSH1 0x0 KECCAK256 ADD PUSH1 0x0 ADD PUSH1 0x0 DUP3 DUP3 SLOAD ADD SWAP3 POP POP DUP2 SWAP1 SSTORE POP PUSH1 0x1E PUSH1 0x3 SLOAD ADD TIMESTAMP GT ISZERO PUSH2 0x4F3 JUMPI PUSH1 0x3 PUSH1 0x0 DUP1 PUSH2 0x100 EXP DUP2 SLOAD DUP2 PUSH1 0xFF MUL NOT AND SWAP1 DUP4 PUSH1 0x3 DUP2 GT ISZERO PUSH2 0x4C1 JUMPI INVALID JUMPDEST MUL OR SWAP1 SSTORE POP PUSH32 0x6AC0C89219F0135E3A87CECDF1851ABCED71DA933A0A00E1EADA0EF035382351 PUSH1 0x40 MLOAD PUSH1 0x40 MLOAD DUP1 SWAP2 SUB SWAP1 LOG1 JUMPDEST POP JUMPDEST POP POP JUMP JUMPDEST PUSH1 0x0 DUP1 SWAP1 SLOAD SWAP1 PUSH2 0x100 EXP SWAP1 DIV PUSH1 0xFF AND DUP2 JUMP INVALID LOG2 PUSH6 0x627A7A723158 KECCAK256 PUSH20 0xD1E1B77A16BBCB63C64ED2A6333B8B746AA69867 0xBF JUMPDEST 0x2A 0xAD 0xBF 0xC7 0x26 SWAP4 ORIGIN PC CALLCODE PUSH5 0x736F6C6343 STOP SDIV GT STOP ORIGIN "
				},
				"gasEstimates": {
					"creation": {
						"codeDepositCost": "268800",
						"executionCost": "infinite",
						"totalCost": "infinite"
					},
					"external": {
						"register(address)": "65800",
						"stage()": "1117",
						"vote(uint8)": "89804",
						"winningProposal()": "infinite"
					}
				},
				"methodIdentifiers": {
					"register(address)": "4420e486",
					"stage()": "c040e6b8",
					"vote(uint8)": "b3f98adc",
					"winningProposal()": "609ff1bd"
				}
			},
			"storageLayout": {
				"storage": [
					{
						"astId": 20,
						"contract": "ba.sol:Ballot",
						"label": "stage",
						"offset": 0,
						"slot": "0",
						"type": "t_enum(Stage)16"
					},
					{
						"astId": 22,
						"contract": "ba.sol:Ballot",
						"label": "chairperson",
						"offset": 1,
						"slot": "0",
						"type": "t_address"
					},
					{
						"astId": 26,
						"contract": "ba.sol:Ballot",
						"label": "voters",
						"offset": 0,
						"slot": "1",
						"type": "t_mapping(t_address,t_struct(Voter)8_storage)"
					},
					{
						"astId": 29,
						"contract": "ba.sol:Ballot",
						"label": "proposals",
						"offset": 0,
						"slot": "2",
						"type": "t_array(t_struct(Proposal)11_storage)dyn_storage"
					},
					{
						"astId": 33,
						"contract": "ba.sol:Ballot",
						"label": "startTime",
						"offset": 0,
						"slot": "3",
						"type": "t_uint256"
					}
				],
				"types": {
					"t_address": {
						"encoding": "inplace",
						"label": "address",
						"numberOfBytes": "20"
					},
					"t_array(t_struct(Proposal)11_storage)dyn_storage": {
						"base": "t_struct(Proposal)11_storage",
						"encoding": "dynamic_array",
						"label": "struct Ballot.Proposal[]",
						"numberOfBytes": "32"
					},
					"t_bool": {
						"encoding": "inplace",
						"label": "bool",
						"numberOfBytes": "1"
					},
					"t_enum(Stage)16": {
						"encoding": "inplace",
						"label": "enum Ballot.Stage",
						"numberOfBytes": "1"
					},
					"t_mapping(t_address,t_struct(Voter)8_storage)": {
						"encoding": "mapping",
						"key": "t_address",
						"label": "mapping(address => struct Ballot.Voter)",
						"numberOfBytes": "32",
						"value": "t_struct(Voter)8_storage"
					},
					"t_struct(Proposal)11_storage": {
						"encoding": "inplace",
						"label": "struct Ballot.Proposal",
						"members": [
							{
								"astId": 10,
								"contract": "ba.sol:Ballot",
								"label": "voteCount",
								"offset": 0,
								"slot": "0",
								"type": "t_uint256"
							}
						],
						"numberOfBytes": "32"
					},
					"t_struct(Voter)8_storage": {
						"encoding": "inplace",
						"label": "struct Ballot.Voter",
						"members": [
							{
								"astId": 3,
								"contract": "ba.sol:Ballot",
								"label": "weight",
								"offset": 0,
								"slot": "0",
								"type": "t_uint256"
							},
							{
								"astId": 5,
								"contract": "ba.sol:Ballot",
								"label": "voted",
								"offset": 0,
								"slot": "1",
								"type": "t_bool"
							},
							{
								"astId": 7,
								"contract": "ba.sol:Ballot",
								"label": "vote",
								"offset": 1,
								"slot": "1",
								"type": "t_uint8"
							}
						],
						"numberOfBytes": "64"
					},
					"t_uint256": {
						"encoding": "inplace",
						"label": "uint256",
						"numberOfBytes": "32"
					},
					"t_uint8": {
						"encoding": "inplace",
						"label": "uint8",
						"numberOfBytes": "1"
					}
				}
			},
			"userdoc": {
				"methods": {
					"constructor": "Create a new ballot with $(_numProposals) different proposals.",
					"register(address)": {
						"notice": "Give $(toVoter) the right to vote on this ballot. May only be called by $(chairperson)."
					},
					"vote(uint8)": {
						"notice": "Give a single vote to proposal $(toProposal)."
					}
				}
			}
		}
	}
}