{
	"auction.sol": {
		"Auction": {
			"abi": [
				{
					"inputs": [],
					"stateMutability": "nonpayable",
					"type": "constructor"
				},
				{
					"inputs": [],
					"name": "beneficiary",
					"outputs": [
						{
							"internalType": "address",
							"name": "",
							"type": "address"
						}
					],
					"stateMutability": "view",
					"type": "function"
				},
				{
					"inputs": [
						{
							"internalType": "uint256",
							"name": "_itemId",
							"type": "uint256"
						},
						{
							"internalType": "uint256",
							"name": "_count",
							"type": "uint256"
						}
					],
					"name": "bid",
					"outputs": [],
					"stateMutability": "nonpayable",
					"type": "function"
				},
				{
					"inputs": [
						{
							"internalType": "uint256",
							"name": "id",
							"type": "uint256"
						}
					],
					"name": "getItemDetails",
					"outputs": [
						{
							"internalType": "uint256",
							"name": "",
							"type": "uint256"
						},
						{
							"internalType": "uint256[]",
							"name": "",
							"type": "uint256[]"
						}
					],
					"stateMutability": "view",
					"type": "function"
				},
				{
					"inputs": [
						{
							"internalType": "uint256",
							"name": "id",
							"type": "uint256"
						}
					],
					"name": "getPersonDetails",
					"outputs": [
						{
							"internalType": "uint256",
							"name": "",
							"type": "uint256"
						},
						{
							"internalType": "uint256",
							"name": "",
							"type": "uint256"
						},
						{
							"internalType": "address",
							"name": "",
							"type": "address"
						}
					],
					"stateMutability": "view",
					"type": "function"
				},
				{
					"inputs": [
						{
							"internalType": "uint256",
							"name": "",
							"type": "uint256"
						}
					],
					"name": "items",
					"outputs": [
						{
							"internalType": "uint256",
							"name": "itemId",
							"type": "uint256"
						}
					],
					"stateMutability": "view",
					"type": "function"
				},
				{
					"inputs": [],
					"name": "register",
					"outputs": [],
					"stateMutability": "payable",
					"type": "function"
				},
				{
					"inputs": [],
					"name": "revealWinners",
					"outputs": [],
					"stateMutability": "nonpayable",
					"type": "function"
				},
				{
					"inputs": [
						{
							"internalType": "uint256",
							"name": "",
							"type": "uint256"
						}
					],
					"name": "winners",
					"outputs": [
						{
							"internalType": "address",
							"name": "",
							"type": "address"
						}
					],
					"stateMutability": "view",
					"type": "function"
				}
			],
			"devdoc": {
				"kind": "dev",
				"methods": {},
				"version": 1
			},
			"evm": {
				"assembly": "    /* \"auction.sol\":57:3085  contract Auction {... */\n  mstore(0x40, 0x80)\n    /* \"auction.sol\":839:840  0 */\n  0x00\n    /* \"auction.sol\":820:840  uint bidderCount = 0 */\n  0x17\n  sstore\n    /* \"auction.sol\":877:1181  constructor() {... */\n  callvalue\n  dup1\n  iszero\n  tag_1\n  jumpi\n  0x00\n  dup1\n  revert\ntag_1:\n  pop\n    /* \"auction.sol\":915:925  msg.sender */\n  caller\n    /* \"auction.sol\":901:912  beneficiary */\n  0x16\n  0x00\n    /* \"auction.sol\":901:925  beneficiary = msg.sender */\n  0x0100\n  exp\n  dup2\n  sload\n  dup2\n  0xffffffffffffffffffffffffffffffffffffffff\n  mul\n  not\n  and\n  swap1\n  dup4\n  0xffffffffffffffffffffffffffffffffffffffff\n  and\n  mul\n  or\n  swap1\n  sstore\n  pop\n    /* \"auction.sol\":964:988  uint[] memory emptyArray */\n  0x60\n    /* \"auction.sol\":1009:1050  Item({itemId: 0, itemTokens: emptyArray}) */\n  mload(0x40)\n  dup1\n  0x40\n  add\n  0x40\n  mstore\n  dup1\n    /* \"auction.sol\":1023:1024  0 */\n  0x00\n    /* \"auction.sol\":1009:1050  Item({itemId: 0, itemTokens: emptyArray}) */\n  dup2\n  mstore\n  0x20\n  add\n    /* \"auction.sol\":1038:1048  emptyArray */\n  dup3\n    /* \"auction.sol\":1009:1050  Item({itemId: 0, itemTokens: emptyArray}) */\n  dup2\n  mstore\n  pop\n    /* \"auction.sol\":998:1003  items */\n  0x0d\n    /* \"auction.sol\":1004:1005  0 */\n  0x00\n    /* \"auction.sol\":998:1006  items[0] */\n  0x03\n  dup2\n  lt\n  tag_4\n  jumpi\n  tag_5\n  tag_6\n  jump\t// in\ntag_5:\ntag_4:\n  0x02\n  mul\n  add\n    /* \"auction.sol\":998:1050  items[0] = Item({itemId: 0, itemTokens: emptyArray}) */\n  0x00\n  dup3\n  add\n  mload\n  dup2\n  0x00\n  add\n  sstore\n  0x20\n  dup3\n  add\n  mload\n  dup2\n  0x01\n  add\n  swap1\n  dup1\n  mload\n  swap1\n  0x20\n  add\n  swap1\n  tag_8\n  swap3\n  swap2\n  swap1\n  tag_9\n  jump\t// in\ntag_8:\n  pop\n  swap1\n  pop\n  pop\n    /* \"auction.sol\":1071:1112  Item({itemId: 1, itemTokens: emptyArray}) */\n  mload(0x40)\n  dup1\n  0x40\n  add\n  0x40\n  mstore\n  dup1\n    /* \"auction.sol\":1085:1086  1 */\n  0x01\n    /* \"auction.sol\":1071:1112  Item({itemId: 1, itemTokens: emptyArray}) */\n  dup2\n  mstore\n  0x20\n  add\n    /* \"auction.sol\":1100:1110  emptyArray */\n  dup3\n    /* \"auction.sol\":1071:1112  Item({itemId: 1, itemTokens: emptyArray}) */\n  dup2\n  mstore\n  pop\n    /* \"auction.sol\":1060:1065  items */\n  0x0d\n    /* \"auction.sol\":1066:1067  1 */\n  0x01\n    /* \"auction.sol\":1060:1068  items[1] */\n  0x03\n  dup2\n  lt\n  tag_10\n  jumpi\n  tag_11\n  tag_6\n  jump\t// in\ntag_11:\ntag_10:\n  0x02\n  mul\n  add\n    /* \"auction.sol\":1060:1112  items[1] = Item({itemId: 1, itemTokens: emptyArray}) */\n  0x00\n  dup3\n  add\n  mload\n  dup2\n  0x00\n  add\n  sstore\n  0x20\n  dup3\n  add\n  mload\n  dup2\n  0x01\n  add\n  swap1\n  dup1\n  mload\n  swap1\n  0x20\n  add\n  swap1\n  tag_13\n  swap3\n  swap2\n  swap1\n  tag_9\n  jump\t// in\ntag_13:\n  pop\n  swap1\n  pop\n  pop\n    /* \"auction.sol\":1133:1174  Item({itemId: 2, itemTokens: emptyArray}) */\n  mload(0x40)\n  dup1\n  0x40\n  add\n  0x40\n  mstore\n  dup1\n    /* \"auction.sol\":1147:1148  2 */\n  0x02\n    /* \"auction.sol\":1133:1174  Item({itemId: 2, itemTokens: emptyArray}) */\n  dup2\n  mstore\n  0x20\n  add\n    /* \"auction.sol\":1162:1172  emptyArray */\n  dup3\n    /* \"auction.sol\":1133:1174  Item({itemId: 2, itemTokens: emptyArray}) */\n  dup2\n  mstore\n  pop\n    /* \"auction.sol\":1122:1127  items */\n  0x0d\n    /* \"auction.sol\":1128:1129  2 */\n  0x02\n    /* \"auction.sol\":1122:1130  items[2] */\n  0x03\n  dup2\n  lt\n  tag_14\n  jumpi\n  tag_15\n  tag_6\n  jump\t// in\ntag_15:\ntag_14:\n  0x02\n  mul\n  add\n    /* \"auction.sol\":1122:1174  items[2] = Item({itemId: 2, itemTokens: emptyArray}) */\n  0x00\n  dup3\n  add\n  mload\n  dup2\n  0x00\n  add\n  sstore\n  0x20\n  dup3\n  add\n  mload\n  dup2\n  0x01\n  add\n  swap1\n  dup1\n  mload\n  swap1\n  0x20\n  add\n  swap1\n  tag_17\n  swap3\n  swap2\n  swap1\n  tag_9\n  jump\t// in\ntag_17:\n  pop\n  swap1\n  pop\n  pop\n    /* \"auction.sol\":891:1181  {... */\n  pop\n    /* \"auction.sol\":57:3085  contract Auction {... */\n  jump(tag_18)\ntag_9:\n  dup3\n  dup1\n  sload\n  dup3\n  dup3\n  sstore\n  swap1\n  0x00\n  mstore\n  keccak256(0x00, 0x20)\n  swap1\n  dup2\n  add\n  swap3\n  dup3\n  iszero\n  tag_19\n  jumpi\n  swap2\n  0x20\n  mul\n  dup3\n  add\ntag_20:\n  dup3\n  dup2\n  gt\n  iszero\n  tag_21\n  jumpi\n  dup3\n  mload\n  dup3\n  sstore\n  swap2\n  0x20\n  add\n  swap2\n  swap1\n  0x01\n  add\n  swap1\n  jump(tag_20)\ntag_21:\ntag_19:\n  pop\n  swap1\n  pop\n  tag_22\n  swap2\n  swap1\n  tag_23\n  jump\t// in\ntag_22:\n  pop\n  swap1\n  jump\t// out\ntag_23:\ntag_24:\n  dup1\n  dup3\n  gt\n  iszero\n  tag_25\n  jumpi\n  0x00\n  dup2\n  0x00\n  swap1\n  sstore\n  pop\n  0x01\n  add\n  jump(tag_24)\ntag_25:\n  pop\n  swap1\n  jump\t// out\n    /* \"#utility.yul\":7:187   */\ntag_6:\n    /* \"#utility.yul\":55:132   */\n  0x4e487b7100000000000000000000000000000000000000000000000000000000\n    /* \"#utility.yul\":52:53   */\n  0x00\n    /* \"#utility.yul\":45:133   */\n  mstore\n    /* \"#utility.yul\":152:156   */\n  0x32\n    /* \"#utility.yul\":149:150   */\n  0x04\n    /* \"#utility.yul\":142:157   */\n  mstore\n    /* \"#utility.yul\":176:180   */\n  0x24\n    /* \"#utility.yul\":173:174   */\n  0x00\n    /* \"#utility.yul\":166:181   */\n  revert\n    /* \"auction.sol\":57:3085  contract Auction {... */\ntag_18:\n  dataSize(sub_0)\n  dup1\n  dataOffset(sub_0)\n  0x00\n  codecopy\n  0x00\n  return\nstop\n\nsub_0: assembly {\n        /* \"auction.sol\":57:3085  contract Auction {... */\n      mstore(0x40, 0x80)\n      jumpi(tag_1, lt(calldatasize, 0x04))\n      shr(0xe0, calldataload(0x00))\n      dup1\n      0x73004ca0\n      gt\n      tag_10\n      jumpi\n      dup1\n      0x73004ca0\n      eq\n      tag_6\n      jumpi\n      dup1\n      0x952587d6\n      eq\n      tag_7\n      jumpi\n      dup1\n      0xa2fb1175\n      eq\n      tag_8\n      jumpi\n      dup1\n      0xbfb231d2\n      eq\n      tag_9\n      jumpi\n      jump(tag_1)\n    tag_10:\n      dup1\n      0x1aa3a008\n      eq\n      tag_2\n      jumpi\n      dup1\n      0x38af3eed\n      eq\n      tag_3\n      jumpi\n      dup1\n      0x598647f8\n      eq\n      tag_4\n      jumpi\n      dup1\n      0x60981705\n      eq\n      tag_5\n      jumpi\n    tag_1:\n      0x00\n      dup1\n      revert\n        /* \"auction.sol\":1224:1518  function register() public payable {    ... */\n    tag_2:\n      tag_11\n      tag_12\n      jump\t// in\n    tag_11:\n      stop\n        /* \"auction.sol\":752:778  address public beneficiary */\n    tag_3:\n      callvalue\n      dup1\n      iszero\n      tag_13\n      jumpi\n      0x00\n      dup1\n      revert\n    tag_13:\n      pop\n      tag_14\n      tag_15\n      jump\t// in\n    tag_14:\n      mload(0x40)\n      tag_16\n      swap2\n      swap1\n      tag_17\n      jump\t// in\n    tag_16:\n      mload(0x40)\n      dup1\n      swap2\n      sub\n      swap1\n      return\n        /* \"auction.sol\":1548:2175  function bid(uint _itemId, uint _count) public {... */\n    tag_4:\n      callvalue\n      dup1\n      iszero\n      tag_18\n      jumpi\n      0x00\n      dup1\n      revert\n    tag_18:\n      pop\n      tag_19\n      0x04\n      dup1\n      calldatasize\n      sub\n      dup2\n      add\n      swap1\n      tag_20\n      swap2\n      swap1\n      tag_21\n      jump\t// in\n    tag_20:\n      tag_22\n      jump\t// in\n    tag_19:\n      stop\n        /* \"auction.sol\":2770:2939  function getPersonDetails(uint id) public view returns(uint, uint, address) {... */\n    tag_5:\n      callvalue\n      dup1\n      iszero\n      tag_23\n      jumpi\n      0x00\n      dup1\n      revert\n    tag_23:\n      pop\n      tag_24\n      0x04\n      dup1\n      calldatasize\n      sub\n      dup2\n      add\n      swap1\n      tag_25\n      swap2\n      swap1\n      tag_26\n      jump\t// in\n    tag_25:\n      tag_27\n      jump\t// in\n    tag_24:\n      mload(0x40)\n      tag_28\n      swap4\n      swap3\n      swap2\n      swap1\n      tag_29\n      jump\t// in\n    tag_28:\n      mload(0x40)\n      dup1\n      swap2\n      sub\n      swap1\n      return\n        /* \"auction.sol\":2945:3083  function getItemDetails(uint id) public view returns(uint, uint[] memory) {... */\n    tag_6:\n      callvalue\n      dup1\n      iszero\n      tag_30\n      jumpi\n      0x00\n      dup1\n      revert\n    tag_30:\n      pop\n      tag_31\n      0x04\n      dup1\n      calldatasize\n      sub\n      dup2\n      add\n      swap1\n      tag_32\n      swap2\n      swap1\n      tag_26\n      jump\t// in\n    tag_32:\n      tag_33\n      jump\t// in\n    tag_31:\n      mload(0x40)\n      tag_34\n      swap3\n      swap2\n      swap1\n      tag_35\n      jump\t// in\n    tag_34:\n      mload(0x40)\n      dup1\n      swap2\n      sub\n      swap1\n      return\n        /* \"auction.sol\":2216:2663  function revealWinners() public {... */\n    tag_7:\n      callvalue\n      dup1\n      iszero\n      tag_36\n      jumpi\n      0x00\n      dup1\n      revert\n    tag_36:\n      pop\n      tag_37\n      tag_38\n      jump\t// in\n    tag_37:\n      stop\n        /* \"auction.sol\":689:714  address[3] public winners */\n    tag_8:\n      callvalue\n      dup1\n      iszero\n      tag_39\n      jumpi\n      0x00\n      dup1\n      revert\n    tag_39:\n      pop\n      tag_40\n      0x04\n      dup1\n      calldatasize\n      sub\n      dup2\n      add\n      swap1\n      tag_41\n      swap2\n      swap1\n      tag_26\n      jump\t// in\n    tag_41:\n      tag_42\n      jump\t// in\n    tag_40:\n      mload(0x40)\n      tag_43\n      swap2\n      swap1\n      tag_17\n      jump\t// in\n    tag_43:\n      mload(0x40)\n      dup1\n      swap2\n      sub\n      swap1\n      return\n        /* \"auction.sol\":628:648  Item[3] public items */\n    tag_9:\n      callvalue\n      dup1\n      iszero\n      tag_44\n      jumpi\n      0x00\n      dup1\n      revert\n    tag_44:\n      pop\n      tag_45\n      0x04\n      dup1\n      calldatasize\n      sub\n      dup2\n      add\n      swap1\n      tag_46\n      swap2\n      swap1\n      tag_26\n      jump\t// in\n    tag_46:\n      tag_47\n      jump\t// in\n    tag_45:\n      mload(0x40)\n      tag_48\n      swap2\n      swap1\n      tag_49\n      jump\t// in\n    tag_48:\n      mload(0x40)\n      dup1\n      swap2\n      sub\n      swap1\n      return\n        /* \"auction.sol\":1224:1518  function register() public payable {    ... */\n    tag_12:\n        /* \"auction.sol\":1305:1316  bidderCount */\n      sload(0x17)\n        /* \"auction.sol\":1273:1280  bidders */\n      0x01\n        /* \"auction.sol\":1281:1292  bidderCount */\n      sload(0x17)\n        /* \"auction.sol\":1273:1293  bidders[bidderCount] */\n      0x04\n      dup2\n      lt\n      tag_51\n      jumpi\n      tag_52\n      tag_53\n      jump\t// in\n    tag_52:\n    tag_51:\n      0x03\n      mul\n      add\n        /* \"auction.sol\":1273:1302  bidders[bidderCount].personId */\n      0x01\n      add\n        /* \"auction.sol\":1273:1316  bidders[bidderCount].personId = bidderCount */\n      dup2\n      swap1\n      sstore\n      pop\n        /* \"auction.sol\":1354:1364  msg.sender */\n      caller\n        /* \"auction.sol\":1326:1333  bidders */\n      0x01\n        /* \"auction.sol\":1334:1345  bidderCount */\n      sload(0x17)\n        /* \"auction.sol\":1326:1346  bidders[bidderCount] */\n      0x04\n      dup2\n      lt\n      tag_55\n      jumpi\n      tag_56\n      tag_53\n      jump\t// in\n    tag_56:\n    tag_55:\n      0x03\n      mul\n      add\n        /* \"auction.sol\":1326:1351  bidders[bidderCount].addr */\n      0x02\n      add\n      0x00\n        /* \"auction.sol\":1326:1364  bidders[bidderCount].addr = msg.sender */\n      0x0100\n      exp\n      dup2\n      sload\n      dup2\n      0xffffffffffffffffffffffffffffffffffffffff\n      mul\n      not\n      and\n      swap1\n      dup4\n      0xffffffffffffffffffffffffffffffffffffffff\n      and\n      mul\n      or\n      swap1\n      sstore\n      pop\n        /* \"auction.sol\":1413:1414  5 */\n      0x05\n        /* \"auction.sol\":1374:1381  bidders */\n      0x01\n        /* \"auction.sol\":1382:1393  bidderCount */\n      sload(0x17)\n        /* \"auction.sol\":1374:1394  bidders[bidderCount] */\n      0x04\n      dup2\n      lt\n      tag_58\n      jumpi\n      tag_59\n      tag_53\n      jump\t// in\n    tag_59:\n    tag_58:\n      0x03\n      mul\n      add\n        /* \"auction.sol\":1374:1410  bidders[bidderCount].remainingTokens */\n      0x00\n      add\n        /* \"auction.sol\":1374:1414  bidders[bidderCount].remainingTokens = 5 */\n      dup2\n      swap1\n      sstore\n      pop\n        /* \"auction.sol\":1468:1475  bidders */\n      0x01\n        /* \"auction.sol\":1476:1487  bidderCount */\n      sload(0x17)\n        /* \"auction.sol\":1468:1488  bidders[bidderCount] */\n      0x04\n      dup2\n      lt\n      tag_61\n      jumpi\n      tag_62\n      tag_53\n      jump\t// in\n    tag_62:\n    tag_61:\n      0x03\n      mul\n      add\n        /* \"auction.sol\":1441:1453  tokenDetails */\n      0x00\n        /* \"auction.sol\":1441:1465  tokenDetails[msg.sender] */\n      dup1\n        /* \"auction.sol\":1454:1464  msg.sender */\n      caller\n        /* \"auction.sol\":1441:1465  tokenDetails[msg.sender] */\n      0xffffffffffffffffffffffffffffffffffffffff\n      and\n      0xffffffffffffffffffffffffffffffffffffffff\n      and\n      dup2\n      mstore\n      0x20\n      add\n      swap1\n      dup2\n      mstore\n      0x20\n      add\n      0x00\n      keccak256\n        /* \"auction.sol\":1441:1488  tokenDetails[msg.sender] = bidders[bidderCount] */\n      0x00\n      dup3\n      add\n      sload\n      dup2\n      0x00\n      add\n      sstore\n      0x01\n      dup3\n      add\n      sload\n      dup2\n      0x01\n      add\n      sstore\n      0x02\n      dup3\n      add\n      0x00\n      swap1\n      sload\n      swap1\n      0x0100\n      exp\n      swap1\n      div\n      0xffffffffffffffffffffffffffffffffffffffff\n      and\n      dup2\n      0x02\n      add\n      exp(0x0100, 0x00)\n      dup2\n      sload\n      dup2\n      0xffffffffffffffffffffffffffffffffffffffff\n      mul\n      not\n      and\n      swap1\n      dup4\n      0xffffffffffffffffffffffffffffffffffffffff\n      and\n      mul\n      or\n      swap1\n      sstore\n      pop\n      swap1\n      pop\n      pop\n        /* \"auction.sol\":1498:1509  bidderCount */\n      0x17\n      0x00\n        /* \"auction.sol\":1498:1511  bidderCount++ */\n      dup2\n      sload\n      dup1\n      swap3\n      swap2\n      swap1\n      tag_64\n      swap1\n      tag_65\n      jump\t// in\n    tag_64:\n      swap2\n      swap1\n      pop\n      sstore\n      pop\n        /* \"auction.sol\":1224:1518  function register() public payable {    ... */\n      jump\t// out\n        /* \"auction.sol\":752:778  address public beneficiary */\n    tag_15:\n      0x16\n      0x00\n      swap1\n      sload\n      swap1\n      0x0100\n      exp\n      swap1\n      div\n      0xffffffffffffffffffffffffffffffffffffffff\n      and\n      dup2\n      jump\t// out\n        /* \"auction.sol\":1548:2175  function bid(uint _itemId, uint _count) public {... */\n    tag_22:\n        /* \"auction.sol\":1657:1663  _count */\n      dup1\n        /* \"auction.sol\":1613:1625  tokenDetails */\n      0x00\n        /* \"auction.sol\":1613:1637  tokenDetails[msg.sender] */\n      dup1\n        /* \"auction.sol\":1626:1636  msg.sender */\n      caller\n        /* \"auction.sol\":1613:1637  tokenDetails[msg.sender] */\n      0xffffffffffffffffffffffffffffffffffffffff\n      and\n      0xffffffffffffffffffffffffffffffffffffffff\n      and\n      dup2\n      mstore\n      0x20\n      add\n      swap1\n      dup2\n      mstore\n      0x20\n      add\n      0x00\n      keccak256\n        /* \"auction.sol\":1613:1653  tokenDetails[msg.sender].remainingTokens */\n      0x00\n      add\n      sload\n        /* \"auction.sol\":1613:1663  tokenDetails[msg.sender].remainingTokens >= _count */\n      lt\n      iszero\n        /* \"auction.sol\":1605:1687  require(tokenDetails[msg.sender].remainingTokens >= _count, \"Insufficient tokens\") */\n      tag_67\n      jumpi\n      mload(0x40)\n      0x08c379a000000000000000000000000000000000000000000000000000000000\n      dup2\n      mstore\n      0x04\n      add\n      tag_68\n      swap1\n      tag_69\n      jump\t// in\n    tag_68:\n      mload(0x40)\n      dup1\n      swap2\n      sub\n      swap1\n      revert\n    tag_67:\n        /* \"auction.sol\":1748:1749  0 */\n      0x00\n        /* \"auction.sol\":1705:1717  tokenDetails */\n      dup1\n        /* \"auction.sol\":1705:1729  tokenDetails[msg.sender] */\n      0x00\n        /* \"auction.sol\":1718:1728  msg.sender */\n      caller\n        /* \"auction.sol\":1705:1729  tokenDetails[msg.sender] */\n      0xffffffffffffffffffffffffffffffffffffffff\n      and\n      0xffffffffffffffffffffffffffffffffffffffff\n      and\n      dup2\n      mstore\n      0x20\n      add\n      swap1\n      dup2\n      mstore\n      0x20\n      add\n      0x00\n      keccak256\n        /* \"auction.sol\":1705:1745  tokenDetails[msg.sender].remainingTokens */\n      0x00\n      add\n      sload\n        /* \"auction.sol\":1705:1749  tokenDetails[msg.sender].remainingTokens > 0 */\n      gt\n        /* \"auction.sol\":1697:1773  require(tokenDetails[msg.sender].remainingTokens > 0, \"No tokens remaining\") */\n      tag_70\n      jumpi\n      mload(0x40)\n      0x08c379a000000000000000000000000000000000000000000000000000000000\n      dup2\n      mstore\n      0x04\n      add\n      tag_71\n      swap1\n      tag_72\n      jump\t// in\n    tag_71:\n      mload(0x40)\n      dup1\n      swap2\n      sub\n      swap1\n      revert\n    tag_70:\n        /* \"auction.sol\":1801:1802  3 */\n      0x03\n        /* \"auction.sol\":1791:1798  _itemId */\n      dup3\n        /* \"auction.sol\":1791:1802  _itemId < 3 */\n      lt\n        /* \"auction.sol\":1783:1822  require(_itemId < 3, \"Invalid item ID\") */\n      tag_73\n      jumpi\n      mload(0x40)\n      0x08c379a000000000000000000000000000000000000000000000000000000000\n      dup2\n      mstore\n      0x04\n      add\n      tag_74\n      swap1\n      tag_75\n      jump\t// in\n    tag_74:\n      mload(0x40)\n      dup1\n      swap2\n      sub\n      swap1\n      revert\n    tag_73:\n        /* \"auction.sol\":1877:1883  _count */\n      dup1\n        /* \"auction.sol\":1833:1845  tokenDetails */\n      0x00\n        /* \"auction.sol\":1833:1857  tokenDetails[msg.sender] */\n      dup1\n        /* \"auction.sol\":1846:1856  msg.sender */\n      caller\n        /* \"auction.sol\":1833:1857  tokenDetails[msg.sender] */\n      0xffffffffffffffffffffffffffffffffffffffff\n      and\n      0xffffffffffffffffffffffffffffffffffffffff\n      and\n      dup2\n      mstore\n      0x20\n      add\n      swap1\n      dup2\n      mstore\n      0x20\n      add\n      0x00\n      keccak256\n        /* \"auction.sol\":1833:1873  tokenDetails[msg.sender].remainingTokens */\n      0x00\n      add\n      0x00\n        /* \"auction.sol\":1833:1883  tokenDetails[msg.sender].remainingTokens -= _count */\n      dup3\n      dup3\n      sload\n      tag_76\n      swap2\n      swap1\n      tag_77\n      jump\t// in\n    tag_76:\n      swap3\n      pop\n      pop\n      dup2\n      swap1\n      sstore\n      pop\n        /* \"auction.sol\":1954:1966  tokenDetails */\n      0x00\n        /* \"auction.sol\":1954:1978  tokenDetails[msg.sender] */\n      dup1\n        /* \"auction.sol\":1967:1977  msg.sender */\n      caller\n        /* \"auction.sol\":1954:1978  tokenDetails[msg.sender] */\n      0xffffffffffffffffffffffffffffffffffffffff\n      and\n      0xffffffffffffffffffffffffffffffffffffffff\n      and\n      dup2\n      mstore\n      0x20\n      add\n      swap1\n      dup2\n      mstore\n      0x20\n      add\n      0x00\n      keccak256\n        /* \"auction.sol\":1954:1994  tokenDetails[msg.sender].remainingTokens */\n      0x00\n      add\n      sload\n        /* \"auction.sol\":1893:1900  bidders */\n      0x01\n        /* \"auction.sol\":1901:1913  tokenDetails */\n      0x00\n        /* \"auction.sol\":1901:1925  tokenDetails[msg.sender] */\n      dup1\n        /* \"auction.sol\":1914:1924  msg.sender */\n      caller\n        /* \"auction.sol\":1901:1925  tokenDetails[msg.sender] */\n      0xffffffffffffffffffffffffffffffffffffffff\n      and\n      0xffffffffffffffffffffffffffffffffffffffff\n      and\n      dup2\n      mstore\n      0x20\n      add\n      swap1\n      dup2\n      mstore\n      0x20\n      add\n      0x00\n      keccak256\n        /* \"auction.sol\":1901:1934  tokenDetails[msg.sender].personId */\n      0x01\n      add\n      sload\n        /* \"auction.sol\":1893:1935  bidders[tokenDetails[msg.sender].personId] */\n      0x04\n      dup2\n      lt\n      tag_78\n      jumpi\n      tag_79\n      tag_53\n      jump\t// in\n    tag_79:\n    tag_78:\n      0x03\n      mul\n      add\n        /* \"auction.sol\":1893:1951  bidders[tokenDetails[msg.sender].personId].remainingTokens */\n      0x00\n      add\n        /* \"auction.sol\":1893:1994  bidders[tokenDetails[msg.sender].personId].remainingTokens = tokenDetails[msg.sender].remainingTokens */\n      dup2\n      swap1\n      sstore\n      pop\n        /* \"auction.sol\":2005:2025  Item storage bidItem */\n      0x00\n        /* \"auction.sol\":2028:2033  items */\n      0x0d\n        /* \"auction.sol\":2034:2041  _itemId */\n      dup4\n        /* \"auction.sol\":2028:2042  items[_itemId] */\n      0x03\n      dup2\n      lt\n      tag_81\n      jumpi\n      tag_82\n      tag_53\n      jump\t// in\n    tag_82:\n    tag_81:\n      0x02\n      mul\n      add\n        /* \"auction.sol\":2005:2042  Item storage bidItem = items[_itemId] */\n      swap1\n      pop\n        /* \"auction.sol\":2057:2063  uint i */\n      0x00\n        /* \"auction.sol\":2052:2169  for (uint i = 0; i < _count; i++) {... */\n    tag_84:\n        /* \"auction.sol\":2073:2079  _count */\n      dup3\n        /* \"auction.sol\":2069:2070  i */\n      dup2\n        /* \"auction.sol\":2069:2079  i < _count */\n      lt\n        /* \"auction.sol\":2052:2169  for (uint i = 0; i < _count; i++) {... */\n      iszero\n      tag_85\n      jumpi\n        /* \"auction.sol\":2100:2107  bidItem */\n      dup2\n        /* \"auction.sol\":2100:2118  bidItem.itemTokens */\n      0x01\n      add\n        /* \"auction.sol\":2124:2136  tokenDetails */\n      0x00\n        /* \"auction.sol\":2124:2148  tokenDetails[msg.sender] */\n      dup1\n        /* \"auction.sol\":2137:2147  msg.sender */\n      caller\n        /* \"auction.sol\":2124:2148  tokenDetails[msg.sender] */\n      0xffffffffffffffffffffffffffffffffffffffff\n      and\n      0xffffffffffffffffffffffffffffffffffffffff\n      and\n      dup2\n      mstore\n      0x20\n      add\n      swap1\n      dup2\n      mstore\n      0x20\n      add\n      0x00\n      keccak256\n        /* \"auction.sol\":2124:2157  tokenDetails[msg.sender].personId */\n      0x01\n      add\n      sload\n        /* \"auction.sol\":2100:2158  bidItem.itemTokens.push(tokenDetails[msg.sender].personId) */\n      swap1\n      dup1\n      0x01\n      dup2\n      sload\n      add\n      dup1\n      dup3\n      sstore\n      dup1\n      swap2\n      pop\n      pop\n      0x01\n      swap1\n      sub\n      swap1\n      0x00\n      mstore\n      keccak256(0x00, 0x20)\n      add\n      0x00\n      swap1\n      swap2\n      swap1\n      swap2\n      swap1\n      swap2\n      pop\n      sstore\n        /* \"auction.sol\":2081:2084  i++ */\n      dup1\n      dup1\n      0x01\n      add\n      swap2\n      pop\n      pop\n        /* \"auction.sol\":2052:2169  for (uint i = 0; i < _count; i++) {... */\n      jump(tag_84)\n    tag_85:\n      pop\n        /* \"auction.sol\":1595:2175  {... */\n      pop\n        /* \"auction.sol\":1548:2175  function bid(uint _itemId, uint _count) public {... */\n      pop\n      pop\n      jump\t// out\n        /* \"auction.sol\":2770:2939  function getPersonDetails(uint id) public view returns(uint, uint, address) {... */\n    tag_27:\n        /* \"auction.sol\":2825:2829  uint */\n      0x00\n        /* \"auction.sol\":2831:2835  uint */\n      dup1\n        /* \"auction.sol\":2837:2844  address */\n      0x00\n        /* \"auction.sol\":2864:2871  bidders */\n      0x01\n        /* \"auction.sol\":2872:2874  id */\n      dup5\n        /* \"auction.sol\":2864:2875  bidders[id] */\n      0x04\n      dup2\n      lt\n      tag_89\n      jumpi\n      tag_90\n      tag_53\n      jump\t// in\n    tag_90:\n    tag_89:\n      0x03\n      mul\n      add\n        /* \"auction.sol\":2864:2891  bidders[id].remainingTokens */\n      0x00\n      add\n      sload\n        /* \"auction.sol\":2893:2900  bidders */\n      0x01\n        /* \"auction.sol\":2901:2903  id */\n      dup6\n        /* \"auction.sol\":2893:2904  bidders[id] */\n      0x04\n      dup2\n      lt\n      tag_92\n      jumpi\n      tag_93\n      tag_53\n      jump\t// in\n    tag_93:\n    tag_92:\n      0x03\n      mul\n      add\n        /* \"auction.sol\":2893:2913  bidders[id].personId */\n      0x01\n      add\n      sload\n        /* \"auction.sol\":2915:2922  bidders */\n      0x01\n        /* \"auction.sol\":2923:2925  id */\n      dup7\n        /* \"auction.sol\":2915:2926  bidders[id] */\n      0x04\n      dup2\n      lt\n      tag_95\n      jumpi\n      tag_96\n      tag_53\n      jump\t// in\n    tag_96:\n    tag_95:\n      0x03\n      mul\n      add\n        /* \"auction.sol\":2915:2931  bidders[id].addr */\n      0x02\n      add\n      0x00\n      swap1\n      sload\n      swap1\n      0x0100\n      exp\n      swap1\n      div\n      0xffffffffffffffffffffffffffffffffffffffff\n      and\n        /* \"auction.sol\":2856:2932  return (bidders[id].remainingTokens, bidders[id].personId, bidders[id].addr) */\n      swap3\n      pop\n      swap3\n      pop\n      swap3\n      pop\n        /* \"auction.sol\":2770:2939  function getPersonDetails(uint id) public view returns(uint, uint, address) {... */\n      swap2\n      swap4\n      swap1\n      swap3\n      pop\n      jump\t// out\n        /* \"auction.sol\":2945:3083  function getItemDetails(uint id) public view returns(uint, uint[] memory) {... */\n    tag_33:\n        /* \"auction.sol\":2998:3002  uint */\n      0x00\n        /* \"auction.sol\":3004:3017  uint[] memory */\n      0x60\n        /* \"auction.sol\":3037:3042  items */\n      0x0d\n        /* \"auction.sol\":3043:3045  id */\n      dup4\n        /* \"auction.sol\":3037:3046  items[id] */\n      0x03\n      dup2\n      lt\n      tag_99\n      jumpi\n      tag_100\n      tag_53\n      jump\t// in\n    tag_100:\n    tag_99:\n      0x02\n      mul\n      add\n        /* \"auction.sol\":3037:3053  items[id].itemId */\n      0x00\n      add\n      sload\n        /* \"auction.sol\":3055:3060  items */\n      0x0d\n        /* \"auction.sol\":3061:3063  id */\n      dup5\n        /* \"auction.sol\":3055:3064  items[id] */\n      0x03\n      dup2\n      lt\n      tag_102\n      jumpi\n      tag_103\n      tag_53\n      jump\t// in\n    tag_103:\n    tag_102:\n      0x02\n      mul\n      add\n        /* \"auction.sol\":3055:3075  items[id].itemTokens */\n      0x01\n      add\n        /* \"auction.sol\":3029:3076  return (items[id].itemId, items[id].itemTokens) */\n      dup1\n      dup1\n      sload\n      dup1\n      0x20\n      mul\n      0x20\n      add\n      mload(0x40)\n      swap1\n      dup2\n      add\n      0x40\n      mstore\n      dup1\n      swap3\n      swap2\n      swap1\n      dup2\n      dup2\n      mstore\n      0x20\n      add\n      dup3\n      dup1\n      sload\n      dup1\n      iszero\n      tag_105\n      jumpi\n      0x20\n      mul\n      dup3\n      add\n      swap2\n      swap1\n      0x00\n      mstore\n      keccak256(0x00, 0x20)\n      swap1\n    tag_106:\n      dup2\n      sload\n      dup2\n      mstore\n      0x20\n      add\n      swap1\n      0x01\n      add\n      swap1\n      dup1\n      dup4\n      gt\n      tag_106\n      jumpi\n    tag_105:\n      pop\n      pop\n      pop\n      pop\n      pop\n      swap1\n      pop\n      swap2\n      pop\n      swap2\n      pop\n        /* \"auction.sol\":2945:3083  function getItemDetails(uint id) public view returns(uint, uint[] memory) {... */\n      swap2\n      pop\n      swap2\n      jump\t// out\n        /* \"auction.sol\":2216:2663  function revealWinners() public {... */\n    tag_38:\n        /* \"auction.sol\":2263:2270  uint id */\n      0x00\n        /* \"auction.sol\":2258:2657  for (uint id = 0; id < 3; id++) {... */\n    tag_108:\n        /* \"auction.sol\":2281:2282  3 */\n      0x03\n        /* \"auction.sol\":2276:2278  id */\n      dup2\n        /* \"auction.sol\":2276:2282  id < 3 */\n      lt\n        /* \"auction.sol\":2258:2657  for (uint id = 0; id < 3; id++) {... */\n      iszero\n      tag_109\n      jumpi\n        /* \"auction.sol\":2304:2328  Item storage currentItem */\n      0x00\n        /* \"auction.sol\":2331:2336  items */\n      0x0d\n        /* \"auction.sol\":2337:2339  id */\n      dup3\n        /* \"auction.sol\":2331:2340  items[id] */\n      0x03\n      dup2\n      lt\n      tag_111\n      jumpi\n      tag_112\n      tag_53\n      jump\t// in\n    tag_112:\n    tag_111:\n      0x02\n      mul\n      add\n        /* \"auction.sol\":2304:2340  Item storage currentItem = items[id] */\n      swap1\n      pop\n        /* \"auction.sol\":2391:2392  0 */\n      0x00\n        /* \"auction.sol\":2358:2369  currentItem */\n      dup2\n        /* \"auction.sol\":2358:2380  currentItem.itemTokens */\n      0x01\n      add\n        /* \"auction.sol\":2358:2387  currentItem.itemTokens.length */\n      dup1\n      sload\n      swap1\n      pop\n        /* \"auction.sol\":2358:2392  currentItem.itemTokens.length != 0 */\n      eq\n        /* \"auction.sol\":2354:2647  if (currentItem.itemTokens.length != 0) {... */\n      tag_114\n      jumpi\n        /* \"auction.sol\":2412:2428  uint randomIndex */\n      0x00\n        /* \"auction.sol\":2480:2491  currentItem */\n      dup2\n        /* \"auction.sol\":2480:2502  currentItem.itemTokens */\n      0x01\n      add\n        /* \"auction.sol\":2480:2509  currentItem.itemTokens.length */\n      dup1\n      sload\n      swap1\n      pop\n        /* \"auction.sol\":2447:2458  currentItem */\n      dup3\n        /* \"auction.sol\":2447:2469  currentItem.itemTokens */\n      0x01\n      add\n        /* \"auction.sol\":2447:2476  currentItem.itemTokens.length */\n      dup1\n      sload\n      swap1\n      pop\n        /* \"auction.sol\":2432:2444  block.number */\n      number\n        /* \"auction.sol\":2432:2476  block.number / currentItem.itemTokens.length */\n      tag_115\n      swap2\n      swap1\n      tag_116\n      jump\t// in\n    tag_115:\n        /* \"auction.sol\":2431:2509  (block.number / currentItem.itemTokens.length) % currentItem.itemTokens.length */\n      tag_117\n      swap2\n      swap1\n      tag_118\n      jump\t// in\n    tag_117:\n        /* \"auction.sol\":2412:2509  uint randomIndex = (block.number / currentItem.itemTokens.length) % currentItem.itemTokens.length */\n      swap1\n      pop\n        /* \"auction.sol\":2527:2540  uint winnerId */\n      0x00\n        /* \"auction.sol\":2543:2554  currentItem */\n      dup3\n        /* \"auction.sol\":2543:2565  currentItem.itemTokens */\n      0x01\n      add\n        /* \"auction.sol\":2566:2577  randomIndex */\n      dup3\n        /* \"auction.sol\":2543:2578  currentItem.itemTokens[randomIndex] */\n      dup2\n      sload\n      dup2\n      lt\n      tag_119\n      jumpi\n      tag_120\n      tag_53\n      jump\t// in\n    tag_120:\n    tag_119:\n      swap1\n      0x00\n      mstore\n      keccak256(0x00, 0x20)\n      add\n      sload\n        /* \"auction.sol\":2527:2578  uint winnerId = currentItem.itemTokens[randomIndex] */\n      swap1\n      pop\n        /* \"auction.sol\":2610:2617  bidders */\n      0x01\n        /* \"auction.sol\":2618:2626  winnerId */\n      dup2\n        /* \"auction.sol\":2610:2627  bidders[winnerId] */\n      0x04\n      dup2\n      lt\n      tag_122\n      jumpi\n      tag_123\n      tag_53\n      jump\t// in\n    tag_123:\n    tag_122:\n      0x03\n      mul\n      add\n        /* \"auction.sol\":2610:2632  bidders[winnerId].addr */\n      0x02\n      add\n      0x00\n      swap1\n      sload\n      swap1\n      0x0100\n      exp\n      swap1\n      div\n      0xffffffffffffffffffffffffffffffffffffffff\n      and\n        /* \"auction.sol\":2596:2603  winners */\n      0x13\n        /* \"auction.sol\":2604:2606  id */\n      dup6\n        /* \"auction.sol\":2596:2607  winners[id] */\n      0x03\n      dup2\n      lt\n      tag_125\n      jumpi\n      tag_126\n      tag_53\n      jump\t// in\n    tag_126:\n    tag_125:\n      add\n      0x00\n        /* \"auction.sol\":2596:2632  winners[id] = bidders[winnerId].addr */\n      0x0100\n      exp\n      dup2\n      sload\n      dup2\n      0xffffffffffffffffffffffffffffffffffffffff\n      mul\n      not\n      and\n      swap1\n      dup4\n      0xffffffffffffffffffffffffffffffffffffffff\n      and\n      mul\n      or\n      swap1\n      sstore\n      pop\n        /* \"auction.sol\":2394:2647  {... */\n      pop\n      pop\n        /* \"auction.sol\":2354:2647  if (currentItem.itemTokens.length != 0) {... */\n    tag_114:\n        /* \"auction.sol\":2290:2657  {... */\n      pop\n        /* \"auction.sol\":2284:2288  id++ */\n      dup1\n      dup1\n      0x01\n      add\n      swap2\n      pop\n      pop\n        /* \"auction.sol\":2258:2657  for (uint id = 0; id < 3; id++) {... */\n      jump(tag_108)\n    tag_109:\n      pop\n        /* \"auction.sol\":2216:2663  function revealWinners() public {... */\n      jump\t// out\n        /* \"auction.sol\":689:714  address[3] public winners */\n    tag_42:\n      0x13\n      dup2\n      0x03\n      dup2\n      lt\n      tag_128\n      jumpi\n      0x00\n      dup1\n      revert\n    tag_128:\n      add\n      0x00\n      swap2\n      pop\n      sload\n      swap1\n      0x0100\n      exp\n      swap1\n      div\n      0xffffffffffffffffffffffffffffffffffffffff\n      and\n      dup2\n      jump\t// out\n        /* \"auction.sol\":628:648  Item[3] public items */\n    tag_47:\n      0x0d\n      dup2\n      0x03\n      dup2\n      lt\n      tag_130\n      jumpi\n      0x00\n      dup1\n      revert\n    tag_130:\n      0x02\n      mul\n      add\n      0x00\n      swap2\n      pop\n      swap1\n      pop\n      dup1\n      0x00\n      add\n      sload\n      swap1\n      pop\n      dup2\n      jump\t// out\n        /* \"#utility.yul\":7:133   */\n    tag_132:\n        /* \"#utility.yul\":44:51   */\n      0x00\n        /* \"#utility.yul\":84:126   */\n      0xffffffffffffffffffffffffffffffffffffffff\n        /* \"#utility.yul\":77:82   */\n      dup3\n        /* \"#utility.yul\":73:127   */\n      and\n        /* \"#utility.yul\":62:127   */\n      swap1\n      pop\n        /* \"#utility.yul\":7:133   */\n      swap2\n      swap1\n      pop\n      jump\t// out\n        /* \"#utility.yul\":139:235   */\n    tag_133:\n        /* \"#utility.yul\":176:183   */\n      0x00\n        /* \"#utility.yul\":205:229   */\n      tag_161\n        /* \"#utility.yul\":223:228   */\n      dup3\n        /* \"#utility.yul\":205:229   */\n      tag_132\n      jump\t// in\n    tag_161:\n        /* \"#utility.yul\":194:229   */\n      swap1\n      pop\n        /* \"#utility.yul\":139:235   */\n      swap2\n      swap1\n      pop\n      jump\t// out\n        /* \"#utility.yul\":241:359   */\n    tag_134:\n        /* \"#utility.yul\":328:352   */\n      tag_163\n        /* \"#utility.yul\":346:351   */\n      dup2\n        /* \"#utility.yul\":328:352   */\n      tag_133\n      jump\t// in\n    tag_163:\n        /* \"#utility.yul\":323:326   */\n      dup3\n        /* \"#utility.yul\":316:353   */\n      mstore\n        /* \"#utility.yul\":241:359   */\n      pop\n      pop\n      jump\t// out\n        /* \"#utility.yul\":365:587   */\n    tag_17:\n        /* \"#utility.yul\":458:462   */\n      0x00\n        /* \"#utility.yul\":496:498   */\n      0x20\n        /* \"#utility.yul\":485:494   */\n      dup3\n        /* \"#utility.yul\":481:499   */\n      add\n        /* \"#utility.yul\":473:499   */\n      swap1\n      pop\n        /* \"#utility.yul\":509:580   */\n      tag_165\n        /* \"#utility.yul\":577:578   */\n      0x00\n        /* \"#utility.yul\":566:575   */\n      dup4\n        /* \"#utility.yul\":562:579   */\n      add\n        /* \"#utility.yul\":553:559   */\n      dup5\n        /* \"#utility.yul\":509:580   */\n      tag_134\n      jump\t// in\n    tag_165:\n        /* \"#utility.yul\":365:587   */\n      swap3\n      swap2\n      pop\n      pop\n      jump\t// out\n        /* \"#utility.yul\":674:791   */\n    tag_136:\n        /* \"#utility.yul\":783:784   */\n      0x00\n        /* \"#utility.yul\":780:781   */\n      dup1\n        /* \"#utility.yul\":773:785   */\n      revert\n        /* \"#utility.yul\":920:997   */\n    tag_138:\n        /* \"#utility.yul\":957:964   */\n      0x00\n        /* \"#utility.yul\":986:991   */\n      dup2\n        /* \"#utility.yul\":975:991   */\n      swap1\n      pop\n        /* \"#utility.yul\":920:997   */\n      swap2\n      swap1\n      pop\n      jump\t// out\n        /* \"#utility.yul\":1003:1125   */\n    tag_139:\n        /* \"#utility.yul\":1076:1100   */\n      tag_171\n        /* \"#utility.yul\":1094:1099   */\n      dup2\n        /* \"#utility.yul\":1076:1100   */\n      tag_138\n      jump\t// in\n    tag_171:\n        /* \"#utility.yul\":1069:1074   */\n      dup2\n        /* \"#utility.yul\":1066:1101   */\n      eq\n        /* \"#utility.yul\":1056:1119   */\n      tag_172\n      jumpi\n        /* \"#utility.yul\":1115:1116   */\n      0x00\n        /* \"#utility.yul\":1112:1113   */\n      dup1\n        /* \"#utility.yul\":1105:1117   */\n      revert\n        /* \"#utility.yul\":1056:1119   */\n    tag_172:\n        /* \"#utility.yul\":1003:1125   */\n      pop\n      jump\t// out\n        /* \"#utility.yul\":1131:1270   */\n    tag_140:\n        /* \"#utility.yul\":1177:1182   */\n      0x00\n        /* \"#utility.yul\":1215:1221   */\n      dup2\n        /* \"#utility.yul\":1202:1222   */\n      calldataload\n        /* \"#utility.yul\":1193:1222   */\n      swap1\n      pop\n        /* \"#utility.yul\":1231:1264   */\n      tag_174\n        /* \"#utility.yul\":1258:1263   */\n      dup2\n        /* \"#utility.yul\":1231:1264   */\n      tag_139\n      jump\t// in\n    tag_174:\n        /* \"#utility.yul\":1131:1270   */\n      swap3\n      swap2\n      pop\n      pop\n      jump\t// out\n        /* \"#utility.yul\":1276:1750   */\n    tag_21:\n        /* \"#utility.yul\":1344:1350   */\n      0x00\n        /* \"#utility.yul\":1352:1358   */\n      dup1\n        /* \"#utility.yul\":1401:1403   */\n      0x40\n        /* \"#utility.yul\":1389:1398   */\n      dup4\n        /* \"#utility.yul\":1380:1387   */\n      dup6\n        /* \"#utility.yul\":1376:1399   */\n      sub\n        /* \"#utility.yul\":1372:1404   */\n      slt\n        /* \"#utility.yul\":1369:1488   */\n      iszero\n      tag_176\n      jumpi\n        /* \"#utility.yul\":1407:1486   */\n      tag_177\n      tag_136\n      jump\t// in\n    tag_177:\n        /* \"#utility.yul\":1369:1488   */\n    tag_176:\n        /* \"#utility.yul\":1527:1528   */\n      0x00\n        /* \"#utility.yul\":1552:1605   */\n      tag_178\n        /* \"#utility.yul\":1597:1604   */\n      dup6\n        /* \"#utility.yul\":1588:1594   */\n      dup3\n        /* \"#utility.yul\":1577:1586   */\n      dup7\n        /* \"#utility.yul\":1573:1595   */\n      add\n        /* \"#utility.yul\":1552:1605   */\n      tag_140\n      jump\t// in\n    tag_178:\n        /* \"#utility.yul\":1542:1605   */\n      swap3\n      pop\n        /* \"#utility.yul\":1498:1615   */\n      pop\n        /* \"#utility.yul\":1654:1656   */\n      0x20\n        /* \"#utility.yul\":1680:1733   */\n      tag_179\n        /* \"#utility.yul\":1725:1732   */\n      dup6\n        /* \"#utility.yul\":1716:1722   */\n      dup3\n        /* \"#utility.yul\":1705:1714   */\n      dup7\n        /* \"#utility.yul\":1701:1723   */\n      add\n        /* \"#utility.yul\":1680:1733   */\n      tag_140\n      jump\t// in\n    tag_179:\n        /* \"#utility.yul\":1670:1733   */\n      swap2\n      pop\n        /* \"#utility.yul\":1625:1743   */\n      pop\n        /* \"#utility.yul\":1276:1750   */\n      swap3\n      pop\n      swap3\n      swap1\n      pop\n      jump\t// out\n        /* \"#utility.yul\":1756:2085   */\n    tag_26:\n        /* \"#utility.yul\":1815:1821   */\n      0x00\n        /* \"#utility.yul\":1864:1866   */\n      0x20\n        /* \"#utility.yul\":1852:1861   */\n      dup3\n        /* \"#utility.yul\":1843:1850   */\n      dup5\n        /* \"#utility.yul\":1839:1862   */\n      sub\n        /* \"#utility.yul\":1835:1867   */\n      slt\n        /* \"#utility.yul\":1832:1951   */\n      iszero\n      tag_181\n      jumpi\n        /* \"#utility.yul\":1870:1949   */\n      tag_182\n      tag_136\n      jump\t// in\n    tag_182:\n        /* \"#utility.yul\":1832:1951   */\n    tag_181:\n        /* \"#utility.yul\":1990:1991   */\n      0x00\n        /* \"#utility.yul\":2015:2068   */\n      tag_183\n        /* \"#utility.yul\":2060:2067   */\n      dup5\n        /* \"#utility.yul\":2051:2057   */\n      dup3\n        /* \"#utility.yul\":2040:2049   */\n      dup6\n        /* \"#utility.yul\":2036:2058   */\n      add\n        /* \"#utility.yul\":2015:2068   */\n      tag_140\n      jump\t// in\n    tag_183:\n        /* \"#utility.yul\":2005:2068   */\n      swap2\n      pop\n        /* \"#utility.yul\":1961:2078   */\n      pop\n        /* \"#utility.yul\":1756:2085   */\n      swap3\n      swap2\n      pop\n      pop\n      jump\t// out\n        /* \"#utility.yul\":2091:2209   */\n    tag_141:\n        /* \"#utility.yul\":2178:2202   */\n      tag_185\n        /* \"#utility.yul\":2196:2201   */\n      dup2\n        /* \"#utility.yul\":2178:2202   */\n      tag_138\n      jump\t// in\n    tag_185:\n        /* \"#utility.yul\":2173:2176   */\n      dup3\n        /* \"#utility.yul\":2166:2203   */\n      mstore\n        /* \"#utility.yul\":2091:2209   */\n      pop\n      pop\n      jump\t// out\n        /* \"#utility.yul\":2215:2657   */\n    tag_29:\n        /* \"#utility.yul\":2364:2368   */\n      0x00\n        /* \"#utility.yul\":2402:2404   */\n      0x60\n        /* \"#utility.yul\":2391:2400   */\n      dup3\n        /* \"#utility.yul\":2387:2405   */\n      add\n        /* \"#utility.yul\":2379:2405   */\n      swap1\n      pop\n        /* \"#utility.yul\":2415:2486   */\n      tag_187\n        /* \"#utility.yul\":2483:2484   */\n      0x00\n        /* \"#utility.yul\":2472:2481   */\n      dup4\n        /* \"#utility.yul\":2468:2485   */\n      add\n        /* \"#utility.yul\":2459:2465   */\n      dup7\n        /* \"#utility.yul\":2415:2486   */\n      tag_141\n      jump\t// in\n    tag_187:\n        /* \"#utility.yul\":2496:2568   */\n      tag_188\n        /* \"#utility.yul\":2564:2566   */\n      0x20\n        /* \"#utility.yul\":2553:2562   */\n      dup4\n        /* \"#utility.yul\":2549:2567   */\n      add\n        /* \"#utility.yul\":2540:2546   */\n      dup6\n        /* \"#utility.yul\":2496:2568   */\n      tag_141\n      jump\t// in\n    tag_188:\n        /* \"#utility.yul\":2578:2650   */\n      tag_189\n        /* \"#utility.yul\":2646:2648   */\n      0x40\n        /* \"#utility.yul\":2635:2644   */\n      dup4\n        /* \"#utility.yul\":2631:2649   */\n      add\n        /* \"#utility.yul\":2622:2628   */\n      dup5\n        /* \"#utility.yul\":2578:2650   */\n      tag_134\n      jump\t// in\n    tag_189:\n        /* \"#utility.yul\":2215:2657   */\n      swap5\n      swap4\n      pop\n      pop\n      pop\n      pop\n      jump\t// out\n        /* \"#utility.yul\":2663:2777   */\n    tag_142:\n        /* \"#utility.yul\":2730:2736   */\n      0x00\n        /* \"#utility.yul\":2764:2769   */\n      dup2\n        /* \"#utility.yul\":2758:2770   */\n      mload\n        /* \"#utility.yul\":2748:2770   */\n      swap1\n      pop\n        /* \"#utility.yul\":2663:2777   */\n      swap2\n      swap1\n      pop\n      jump\t// out\n        /* \"#utility.yul\":2783:2967   */\n    tag_143:\n        /* \"#utility.yul\":2882:2893   */\n      0x00\n        /* \"#utility.yul\":2916:2922   */\n      dup3\n        /* \"#utility.yul\":2911:2914   */\n      dup3\n        /* \"#utility.yul\":2904:2923   */\n      mstore\n        /* \"#utility.yul\":2956:2960   */\n      0x20\n        /* \"#utility.yul\":2951:2954   */\n      dup3\n        /* \"#utility.yul\":2947:2961   */\n      add\n        /* \"#utility.yul\":2932:2961   */\n      swap1\n      pop\n        /* \"#utility.yul\":2783:2967   */\n      swap3\n      swap2\n      pop\n      pop\n      jump\t// out\n        /* \"#utility.yul\":2973:3105   */\n    tag_144:\n        /* \"#utility.yul\":3040:3044   */\n      0x00\n        /* \"#utility.yul\":3063:3066   */\n      dup2\n        /* \"#utility.yul\":3055:3066   */\n      swap1\n      pop\n        /* \"#utility.yul\":3093:3097   */\n      0x20\n        /* \"#utility.yul\":3088:3091   */\n      dup3\n        /* \"#utility.yul\":3084:3098   */\n      add\n        /* \"#utility.yul\":3076:3098   */\n      swap1\n      pop\n        /* \"#utility.yul\":2973:3105   */\n      swap2\n      swap1\n      pop\n      jump\t// out\n        /* \"#utility.yul\":3111:3219   */\n    tag_145:\n        /* \"#utility.yul\":3188:3212   */\n      tag_194\n        /* \"#utility.yul\":3206:3211   */\n      dup2\n        /* \"#utility.yul\":3188:3212   */\n      tag_138\n      jump\t// in\n    tag_194:\n        /* \"#utility.yul\":3183:3186   */\n      dup3\n        /* \"#utility.yul\":3176:3213   */\n      mstore\n        /* \"#utility.yul\":3111:3219   */\n      pop\n      pop\n      jump\t// out\n        /* \"#utility.yul\":3225:3404   */\n    tag_146:\n        /* \"#utility.yul\":3294:3304   */\n      0x00\n        /* \"#utility.yul\":3315:3361   */\n      tag_196\n        /* \"#utility.yul\":3357:3360   */\n      dup4\n        /* \"#utility.yul\":3349:3355   */\n      dup4\n        /* \"#utility.yul\":3315:3361   */\n      tag_145\n      jump\t// in\n    tag_196:\n        /* \"#utility.yul\":3393:3397   */\n      0x20\n        /* \"#utility.yul\":3388:3391   */\n      dup4\n        /* \"#utility.yul\":3384:3398   */\n      add\n        /* \"#utility.yul\":3370:3398   */\n      swap1\n      pop\n        /* \"#utility.yul\":3225:3404   */\n      swap3\n      swap2\n      pop\n      pop\n      jump\t// out\n        /* \"#utility.yul\":3410:3523   */\n    tag_147:\n        /* \"#utility.yul\":3480:3484   */\n      0x00\n        /* \"#utility.yul\":3512:3516   */\n      0x20\n        /* \"#utility.yul\":3507:3510   */\n      dup3\n        /* \"#utility.yul\":3503:3517   */\n      add\n        /* \"#utility.yul\":3495:3517   */\n      swap1\n      pop\n        /* \"#utility.yul\":3410:3523   */\n      swap2\n      swap1\n      pop\n      jump\t// out\n        /* \"#utility.yul\":3559:4291   */\n    tag_148:\n        /* \"#utility.yul\":3678:3681   */\n      0x00\n        /* \"#utility.yul\":3707:3761   */\n      tag_199\n        /* \"#utility.yul\":3755:3760   */\n      dup3\n        /* \"#utility.yul\":3707:3761   */\n      tag_142\n      jump\t// in\n    tag_199:\n        /* \"#utility.yul\":3777:3863   */\n      tag_200\n        /* \"#utility.yul\":3856:3862   */\n      dup2\n        /* \"#utility.yul\":3851:3854   */\n      dup6\n        /* \"#utility.yul\":3777:3863   */\n      tag_143\n      jump\t// in\n    tag_200:\n        /* \"#utility.yul\":3770:3863   */\n      swap4\n      pop\n        /* \"#utility.yul\":3887:3943   */\n      tag_201\n        /* \"#utility.yul\":3937:3942   */\n      dup4\n        /* \"#utility.yul\":3887:3943   */\n      tag_144\n      jump\t// in\n    tag_201:\n        /* \"#utility.yul\":3966:3973   */\n      dup1\n        /* \"#utility.yul\":3997:3998   */\n      0x00\n        /* \"#utility.yul\":3982:4266   */\n    tag_202:\n        /* \"#utility.yul\":4007:4013   */\n      dup4\n        /* \"#utility.yul\":4004:4005   */\n      dup2\n        /* \"#utility.yul\":4001:4014   */\n      lt\n        /* \"#utility.yul\":3982:4266   */\n      iszero\n      tag_204\n      jumpi\n        /* \"#utility.yul\":4083:4089   */\n      dup2\n        /* \"#utility.yul\":4077:4090   */\n      mload\n        /* \"#utility.yul\":4110:4173   */\n      tag_205\n        /* \"#utility.yul\":4169:4172   */\n      dup9\n        /* \"#utility.yul\":4154:4167   */\n      dup3\n        /* \"#utility.yul\":4110:4173   */\n      tag_146\n      jump\t// in\n    tag_205:\n        /* \"#utility.yul\":4103:4173   */\n      swap8\n      pop\n        /* \"#utility.yul\":4196:4256   */\n      tag_206\n        /* \"#utility.yul\":4249:4255   */\n      dup4\n        /* \"#utility.yul\":4196:4256   */\n      tag_147\n      jump\t// in\n    tag_206:\n        /* \"#utility.yul\":4186:4256   */\n      swap3\n      pop\n        /* \"#utility.yul\":4042:4266   */\n      pop\n        /* \"#utility.yul\":4029:4030   */\n      0x01\n        /* \"#utility.yul\":4026:4027   */\n      dup2\n        /* \"#utility.yul\":4022:4031   */\n      add\n        /* \"#utility.yul\":4017:4031   */\n      swap1\n      pop\n        /* \"#utility.yul\":3982:4266   */\n      jump(tag_202)\n    tag_204:\n        /* \"#utility.yul\":3986:4000   */\n      pop\n        /* \"#utility.yul\":4282:4285   */\n      dup6\n        /* \"#utility.yul\":4275:4285   */\n      swap4\n      pop\n        /* \"#utility.yul\":3683:4291   */\n      pop\n      pop\n      pop\n        /* \"#utility.yul\":3559:4291   */\n      swap3\n      swap2\n      pop\n      pop\n      jump\t// out\n        /* \"#utility.yul\":4297:4780   */\n    tag_35:\n        /* \"#utility.yul\":4468:4472   */\n      0x00\n        /* \"#utility.yul\":4506:4508   */\n      0x40\n        /* \"#utility.yul\":4495:4504   */\n      dup3\n        /* \"#utility.yul\":4491:4509   */\n      add\n        /* \"#utility.yul\":4483:4509   */\n      swap1\n      pop\n        /* \"#utility.yul\":4519:4590   */\n      tag_208\n        /* \"#utility.yul\":4587:4588   */\n      0x00\n        /* \"#utility.yul\":4576:4585   */\n      dup4\n        /* \"#utility.yul\":4572:4589   */\n      add\n        /* \"#utility.yul\":4563:4569   */\n      dup6\n        /* \"#utility.yul\":4519:4590   */\n      tag_141\n      jump\t// in\n    tag_208:\n        /* \"#utility.yul\":4637:4646   */\n      dup2\n        /* \"#utility.yul\":4631:4635   */\n      dup2\n        /* \"#utility.yul\":4627:4647   */\n      sub\n        /* \"#utility.yul\":4622:4624   */\n      0x20\n        /* \"#utility.yul\":4611:4620   */\n      dup4\n        /* \"#utility.yul\":4607:4625   */\n      add\n        /* \"#utility.yul\":4600:4648   */\n      mstore\n        /* \"#utility.yul\":4665:4773   */\n      tag_209\n        /* \"#utility.yul\":4768:4772   */\n      dup2\n        /* \"#utility.yul\":4759:4765   */\n      dup5\n        /* \"#utility.yul\":4665:4773   */\n      tag_148\n      jump\t// in\n    tag_209:\n        /* \"#utility.yul\":4657:4773   */\n      swap1\n      pop\n        /* \"#utility.yul\":4297:4780   */\n      swap4\n      swap3\n      pop\n      pop\n      pop\n      jump\t// out\n        /* \"#utility.yul\":4786:5008   */\n    tag_49:\n        /* \"#utility.yul\":4879:4883   */\n      0x00\n        /* \"#utility.yul\":4917:4919   */\n      0x20\n        /* \"#utility.yul\":4906:4915   */\n      dup3\n        /* \"#utility.yul\":4902:4920   */\n      add\n        /* \"#utility.yul\":4894:4920   */\n      swap1\n      pop\n        /* \"#utility.yul\":4930:5001   */\n      tag_211\n        /* \"#utility.yul\":4998:4999   */\n      0x00\n        /* \"#utility.yul\":4987:4996   */\n      dup4\n        /* \"#utility.yul\":4983:5000   */\n      add\n        /* \"#utility.yul\":4974:4980   */\n      dup5\n        /* \"#utility.yul\":4930:5001   */\n      tag_141\n      jump\t// in\n    tag_211:\n        /* \"#utility.yul\":4786:5008   */\n      swap3\n      swap2\n      pop\n      pop\n      jump\t// out\n        /* \"#utility.yul\":5014:5194   */\n    tag_53:\n        /* \"#utility.yul\":5062:5139   */\n      0x4e487b7100000000000000000000000000000000000000000000000000000000\n        /* \"#utility.yul\":5059:5060   */\n      0x00\n        /* \"#utility.yul\":5052:5140   */\n      mstore\n        /* \"#utility.yul\":5159:5163   */\n      0x32\n        /* \"#utility.yul\":5156:5157   */\n      0x04\n        /* \"#utility.yul\":5149:5164   */\n      mstore\n        /* \"#utility.yul\":5183:5187   */\n      0x24\n        /* \"#utility.yul\":5180:5181   */\n      0x00\n        /* \"#utility.yul\":5173:5188   */\n      revert\n        /* \"#utility.yul\":5200:5380   */\n    tag_149:\n        /* \"#utility.yul\":5248:5325   */\n      0x4e487b7100000000000000000000000000000000000000000000000000000000\n        /* \"#utility.yul\":5245:5246   */\n      0x00\n        /* \"#utility.yul\":5238:5326   */\n      mstore\n        /* \"#utility.yul\":5345:5349   */\n      0x11\n        /* \"#utility.yul\":5342:5343   */\n      0x04\n        /* \"#utility.yul\":5335:5350   */\n      mstore\n        /* \"#utility.yul\":5369:5373   */\n      0x24\n        /* \"#utility.yul\":5366:5367   */\n      0x00\n        /* \"#utility.yul\":5359:5374   */\n      revert\n        /* \"#utility.yul\":5386:5619   */\n    tag_65:\n        /* \"#utility.yul\":5425:5428   */\n      0x00\n        /* \"#utility.yul\":5448:5472   */\n      tag_215\n        /* \"#utility.yul\":5466:5471   */\n      dup3\n        /* \"#utility.yul\":5448:5472   */\n      tag_138\n      jump\t// in\n    tag_215:\n        /* \"#utility.yul\":5439:5472   */\n      swap2\n      pop\n        /* \"#utility.yul\":5494:5560   */\n      0xffffffffffffffffffffffffffffffffffffffffffffffffffffffffffffffff\n        /* \"#utility.yul\":5487:5492   */\n      dup3\n        /* \"#utility.yul\":5484:5561   */\n      sub\n        /* \"#utility.yul\":5481:5584   */\n      tag_216\n      jumpi\n        /* \"#utility.yul\":5564:5582   */\n      tag_217\n      tag_149\n      jump\t// in\n    tag_217:\n        /* \"#utility.yul\":5481:5584   */\n    tag_216:\n        /* \"#utility.yul\":5611:5612   */\n      0x01\n        /* \"#utility.yul\":5604:5609   */\n      dup3\n        /* \"#utility.yul\":5600:5613   */\n      add\n        /* \"#utility.yul\":5593:5613   */\n      swap1\n      pop\n        /* \"#utility.yul\":5386:5619   */\n      swap2\n      swap1\n      pop\n      jump\t// out\n        /* \"#utility.yul\":5625:5794   */\n    tag_150:\n        /* \"#utility.yul\":5709:5720   */\n      0x00\n        /* \"#utility.yul\":5743:5749   */\n      dup3\n        /* \"#utility.yul\":5738:5741   */\n      dup3\n        /* \"#utility.yul\":5731:5750   */\n      mstore\n        /* \"#utility.yul\":5783:5787   */\n      0x20\n        /* \"#utility.yul\":5778:5781   */\n      dup3\n        /* \"#utility.yul\":5774:5788   */\n      add\n        /* \"#utility.yul\":5759:5788   */\n      swap1\n      pop\n        /* \"#utility.yul\":5625:5794   */\n      swap3\n      swap2\n      pop\n      pop\n      jump\t// out\n        /* \"#utility.yul\":5800:5969   */\n    tag_151:\n        /* \"#utility.yul\":5940:5961   */\n      0x496e73756666696369656e7420746f6b656e7300000000000000000000000000\n        /* \"#utility.yul\":5936:5937   */\n      0x00\n        /* \"#utility.yul\":5928:5934   */\n      dup3\n        /* \"#utility.yul\":5924:5938   */\n      add\n        /* \"#utility.yul\":5917:5962   */\n      mstore\n        /* \"#utility.yul\":5800:5969   */\n      pop\n      jump\t// out\n        /* \"#utility.yul\":5975:6341   */\n    tag_152:\n        /* \"#utility.yul\":6117:6120   */\n      0x00\n        /* \"#utility.yul\":6138:6205   */\n      tag_221\n        /* \"#utility.yul\":6202:6204   */\n      0x13\n        /* \"#utility.yul\":6197:6200   */\n      dup4\n        /* \"#utility.yul\":6138:6205   */\n      tag_150\n      jump\t// in\n    tag_221:\n        /* \"#utility.yul\":6131:6205   */\n      swap2\n      pop\n        /* \"#utility.yul\":6214:6307   */\n      tag_222\n        /* \"#utility.yul\":6303:6306   */\n      dup3\n        /* \"#utility.yul\":6214:6307   */\n      tag_151\n      jump\t// in\n    tag_222:\n        /* \"#utility.yul\":6332:6334   */\n      0x20\n        /* \"#utility.yul\":6327:6330   */\n      dup3\n        /* \"#utility.yul\":6323:6335   */\n      add\n        /* \"#utility.yul\":6316:6335   */\n      swap1\n      pop\n        /* \"#utility.yul\":5975:6341   */\n      swap2\n      swap1\n      pop\n      jump\t// out\n        /* \"#utility.yul\":6347:6766   */\n    tag_69:\n        /* \"#utility.yul\":6513:6517   */\n      0x00\n        /* \"#utility.yul\":6551:6553   */\n      0x20\n        /* \"#utility.yul\":6540:6549   */\n      dup3\n        /* \"#utility.yul\":6536:6554   */\n      add\n        /* \"#utility.yul\":6528:6554   */\n      swap1\n      pop\n        /* \"#utility.yul\":6600:6609   */\n      dup2\n        /* \"#utility.yul\":6594:6598   */\n      dup2\n        /* \"#utility.yul\":6590:6610   */\n      sub\n        /* \"#utility.yul\":6586:6587   */\n      0x00\n        /* \"#utility.yul\":6575:6584   */\n      dup4\n        /* \"#utility.yul\":6571:6588   */\n      add\n        /* \"#utility.yul\":6564:6611   */\n      mstore\n        /* \"#utility.yul\":6628:6759   */\n      tag_224\n        /* \"#utility.yul\":6754:6758   */\n      dup2\n        /* \"#utility.yul\":6628:6759   */\n      tag_152\n      jump\t// in\n    tag_224:\n        /* \"#utility.yul\":6620:6759   */\n      swap1\n      pop\n        /* \"#utility.yul\":6347:6766   */\n      swap2\n      swap1\n      pop\n      jump\t// out\n        /* \"#utility.yul\":6772:6941   */\n    tag_153:\n        /* \"#utility.yul\":6912:6933   */\n      0x4e6f20746f6b656e732072656d61696e696e6700000000000000000000000000\n        /* \"#utility.yul\":6908:6909   */\n      0x00\n        /* \"#utility.yul\":6900:6906   */\n      dup3\n        /* \"#utility.yul\":6896:6910   */\n      add\n        /* \"#utility.yul\":6889:6934   */\n      mstore\n        /* \"#utility.yul\":6772:6941   */\n      pop\n      jump\t// out\n        /* \"#utility.yul\":6947:7313   */\n    tag_154:\n        /* \"#utility.yul\":7089:7092   */\n      0x00\n        /* \"#utility.yul\":7110:7177   */\n      tag_227\n        /* \"#utility.yul\":7174:7176   */\n      0x13\n        /* \"#utility.yul\":7169:7172   */\n      dup4\n        /* \"#utility.yul\":7110:7177   */\n      tag_150\n      jump\t// in\n    tag_227:\n        /* \"#utility.yul\":7103:7177   */\n      swap2\n      pop\n        /* \"#utility.yul\":7186:7279   */\n      tag_228\n        /* \"#utility.yul\":7275:7278   */\n      dup3\n        /* \"#utility.yul\":7186:7279   */\n      tag_153\n      jump\t// in\n    tag_228:\n        /* \"#utility.yul\":7304:7306   */\n      0x20\n        /* \"#utility.yul\":7299:7302   */\n      dup3\n        /* \"#utility.yul\":7295:7307   */\n      add\n        /* \"#utility.yul\":7288:7307   */\n      swap1\n      pop\n        /* \"#utility.yul\":6947:7313   */\n      swap2\n      swap1\n      pop\n      jump\t// out\n        /* \"#utility.yul\":7319:7738   */\n    tag_72:\n        /* \"#utility.yul\":7485:7489   */\n      0x00\n        /* \"#utility.yul\":7523:7525   */\n      0x20\n        /* \"#utility.yul\":7512:7521   */\n      dup3\n        /* \"#utility.yul\":7508:7526   */\n      add\n        /* \"#utility.yul\":7500:7526   */\n      swap1\n      pop\n        /* \"#utility.yul\":7572:7581   */\n      dup2\n        /* \"#utility.yul\":7566:7570   */\n      dup2\n        /* \"#utility.yul\":7562:7582   */\n      sub\n        /* \"#utility.yul\":7558:7559   */\n      0x00\n        /* \"#utility.yul\":7547:7556   */\n      dup4\n        /* \"#utility.yul\":7543:7560   */\n      add\n        /* \"#utility.yul\":7536:7583   */\n      mstore\n        /* \"#utility.yul\":7600:7731   */\n      tag_230\n        /* \"#utility.yul\":7726:7730   */\n      dup2\n        /* \"#utility.yul\":7600:7731   */\n      tag_154\n      jump\t// in\n    tag_230:\n        /* \"#utility.yul\":7592:7731   */\n      swap1\n      pop\n        /* \"#utility.yul\":7319:7738   */\n      swap2\n      swap1\n      pop\n      jump\t// out\n        /* \"#utility.yul\":7744:7909   */\n    tag_155:\n        /* \"#utility.yul\":7884:7901   */\n      0x496e76616c6964206974656d2049440000000000000000000000000000000000\n        /* \"#utility.yul\":7880:7881   */\n      0x00\n        /* \"#utility.yul\":7872:7878   */\n      dup3\n        /* \"#utility.yul\":7868:7882   */\n      add\n        /* \"#utility.yul\":7861:7902   */\n      mstore\n        /* \"#utility.yul\":7744:7909   */\n      pop\n      jump\t// out\n        /* \"#utility.yul\":7915:8281   */\n    tag_156:\n        /* \"#utility.yul\":8057:8060   */\n      0x00\n        /* \"#utility.yul\":8078:8145   */\n      tag_233\n        /* \"#utility.yul\":8142:8144   */\n      0x0f\n        /* \"#utility.yul\":8137:8140   */\n      dup4\n        /* \"#utility.yul\":8078:8145   */\n      tag_150\n      jump\t// in\n    tag_233:\n        /* \"#utility.yul\":8071:8145   */\n      swap2\n      pop\n        /* \"#utility.yul\":8154:8247   */\n      tag_234\n        /* \"#utility.yul\":8243:8246   */\n      dup3\n        /* \"#utility.yul\":8154:8247   */\n      tag_155\n      jump\t// in\n    tag_234:\n        /* \"#utility.yul\":8272:8274   */\n      0x20\n        /* \"#utility.yul\":8267:8270   */\n      dup3\n        /* \"#utility.yul\":8263:8275   */\n      add\n        /* \"#utility.yul\":8256:8275   */\n      swap1\n      pop\n        /* \"#utility.yul\":7915:8281   */\n      swap2\n      swap1\n      pop\n      jump\t// out\n        /* \"#utility.yul\":8287:8706   */\n    tag_75:\n        /* \"#utility.yul\":8453:8457   */\n      0x00\n        /* \"#utility.yul\":8491:8493   */\n      0x20\n        /* \"#utility.yul\":8480:8489   */\n      dup3\n        /* \"#utility.yul\":8476:8494   */\n      add\n        /* \"#utility.yul\":8468:8494   */\n      swap1\n      pop\n        /* \"#utility.yul\":8540:8549   */\n      dup2\n        /* \"#utility.yul\":8534:8538   */\n      dup2\n        /* \"#utility.yul\":8530:8550   */\n      sub\n        /* \"#utility.yul\":8526:8527   */\n      0x00\n        /* \"#utility.yul\":8515:8524   */\n      dup4\n        /* \"#utility.yul\":8511:8528   */\n      add\n        /* \"#utility.yul\":8504:8551   */\n      mstore\n        /* \"#utility.yul\":8568:8699   */\n      tag_236\n        /* \"#utility.yul\":8694:8698   */\n      dup2\n        /* \"#utility.yul\":8568:8699   */\n      tag_156\n      jump\t// in\n    tag_236:\n        /* \"#utility.yul\":8560:8699   */\n      swap1\n      pop\n        /* \"#utility.yul\":8287:8706   */\n      swap2\n      swap1\n      pop\n      jump\t// out\n        /* \"#utility.yul\":8712:8906   */\n    tag_77:\n        /* \"#utility.yul\":8752:8756   */\n      0x00\n        /* \"#utility.yul\":8772:8792   */\n      tag_238\n        /* \"#utility.yul\":8790:8791   */\n      dup3\n        /* \"#utility.yul\":8772:8792   */\n      tag_138\n      jump\t// in\n    tag_238:\n        /* \"#utility.yul\":8767:8792   */\n      swap2\n      pop\n        /* \"#utility.yul\":8806:8826   */\n      tag_239\n        /* \"#utility.yul\":8824:8825   */\n      dup4\n        /* \"#utility.yul\":8806:8826   */\n      tag_138\n      jump\t// in\n    tag_239:\n        /* \"#utility.yul\":8801:8826   */\n      swap3\n      pop\n        /* \"#utility.yul\":8850:8851   */\n      dup3\n        /* \"#utility.yul\":8847:8848   */\n      dup3\n        /* \"#utility.yul\":8843:8852   */\n      sub\n        /* \"#utility.yul\":8835:8852   */\n      swap1\n      pop\n        /* \"#utility.yul\":8874:8875   */\n      dup2\n        /* \"#utility.yul\":8868:8872   */\n      dup2\n        /* \"#utility.yul\":8865:8876   */\n      gt\n        /* \"#utility.yul\":8862:8899   */\n      iszero\n      tag_240\n      jumpi\n        /* \"#utility.yul\":8879:8897   */\n      tag_241\n      tag_149\n      jump\t// in\n    tag_241:\n        /* \"#utility.yul\":8862:8899   */\n    tag_240:\n        /* \"#utility.yul\":8712:8906   */\n      swap3\n      swap2\n      pop\n      pop\n      jump\t// out\n        /* \"#utility.yul\":8912:9092   */\n    tag_157:\n        /* \"#utility.yul\":8960:9037   */\n      0x4e487b7100000000000000000000000000000000000000000000000000000000\n        /* \"#utility.yul\":8957:8958   */\n      0x00\n        /* \"#utility.yul\":8950:9038   */\n      mstore\n        /* \"#utility.yul\":9057:9061   */\n      0x12\n        /* \"#utility.yul\":9054:9055   */\n      0x04\n        /* \"#utility.yul\":9047:9062   */\n      mstore\n        /* \"#utility.yul\":9081:9085   */\n      0x24\n        /* \"#utility.yul\":9078:9079   */\n      0x00\n        /* \"#utility.yul\":9071:9086   */\n      revert\n        /* \"#utility.yul\":9098:9283   */\n    tag_116:\n        /* \"#utility.yul\":9138:9139   */\n      0x00\n        /* \"#utility.yul\":9155:9175   */\n      tag_244\n        /* \"#utility.yul\":9173:9174   */\n      dup3\n        /* \"#utility.yul\":9155:9175   */\n      tag_138\n      jump\t// in\n    tag_244:\n        /* \"#utility.yul\":9150:9175   */\n      swap2\n      pop\n        /* \"#utility.yul\":9189:9209   */\n      tag_245\n        /* \"#utility.yul\":9207:9208   */\n      dup4\n        /* \"#utility.yul\":9189:9209   */\n      tag_138\n      jump\t// in\n    tag_245:\n        /* \"#utility.yul\":9184:9209   */\n      swap3\n      pop\n        /* \"#utility.yul\":9228:9229   */\n      dup3\n        /* \"#utility.yul\":9218:9253   */\n      tag_246\n      jumpi\n        /* \"#utility.yul\":9233:9251   */\n      tag_247\n      tag_157\n      jump\t// in\n    tag_247:\n        /* \"#utility.yul\":9218:9253   */\n    tag_246:\n        /* \"#utility.yul\":9275:9276   */\n      dup3\n        /* \"#utility.yul\":9272:9273   */\n      dup3\n        /* \"#utility.yul\":9268:9277   */\n      div\n        /* \"#utility.yul\":9263:9277   */\n      swap1\n      pop\n        /* \"#utility.yul\":9098:9283   */\n      swap3\n      swap2\n      pop\n      pop\n      jump\t// out\n        /* \"#utility.yul\":9289:9465   */\n    tag_118:\n        /* \"#utility.yul\":9321:9322   */\n      0x00\n        /* \"#utility.yul\":9338:9358   */\n      tag_249\n        /* \"#utility.yul\":9356:9357   */\n      dup3\n        /* \"#utility.yul\":9338:9358   */\n      tag_138\n      jump\t// in\n    tag_249:\n        /* \"#utility.yul\":9333:9358   */\n      swap2\n      pop\n        /* \"#utility.yul\":9372:9392   */\n      tag_250\n        /* \"#utility.yul\":9390:9391   */\n      dup4\n        /* \"#utility.yul\":9372:9392   */\n      tag_138\n      jump\t// in\n    tag_250:\n        /* \"#utility.yul\":9367:9392   */\n      swap3\n      pop\n        /* \"#utility.yul\":9411:9412   */\n      dup3\n        /* \"#utility.yul\":9401:9436   */\n      tag_251\n      jumpi\n        /* \"#utility.yul\":9416:9434   */\n      tag_252\n      tag_157\n      jump\t// in\n    tag_252:\n        /* \"#utility.yul\":9401:9436   */\n    tag_251:\n        /* \"#utility.yul\":9457:9458   */\n      dup3\n        /* \"#utility.yul\":9454:9455   */\n      dup3\n        /* \"#utility.yul\":9450:9459   */\n      mod\n        /* \"#utility.yul\":9445:9459   */\n      swap1\n      pop\n        /* \"#utility.yul\":9289:9465   */\n      swap3\n      swap2\n      pop\n      pop\n      jump\t// out\n\n    auxdata: 0xa264697066735822122055498d9c400ef7bd49e3216045b91f6553100dc2fc0eb6d5273181dc95b7a3fa64736f6c63430008190033\n}\n",
				"bytecode": {
					"linkReferences": {},
					"object": "60806040525f601755348015610013575f80fd5b503360165f6101000a81548173ffffffffffffffffffffffffffffffffffffffff021916908373ffffffffffffffffffffffffffffffffffffffff160217905550606060405180604001604052805f815260200182815250600d5f6003811061007f5761007e6101c5565b5b600202015f820151815f015560208201518160010190805190602001906100a792919061015f565b5090505060405180604001604052806001815260200182815250600d6001600381106100d6576100d56101c5565b5b600202015f820151815f015560208201518160010190805190602001906100fe92919061015f565b5090505060405180604001604052806002815260200182815250600d60026003811061012d5761012c6101c5565b5b600202015f820151815f0155602082015181600101908051906020019061015592919061015f565b50905050506101f2565b828054828255905f5260205f20908101928215610199579160200282015b8281111561019857825182559160200191906001019061017d565b5b5090506101a691906101aa565b5090565b5b808211156101c1575f815f9055506001016101ab565b5090565b7f4e487b71000000000000000000000000000000000000000000000000000000005f52603260045260245ffd5b610e06806101ff5f395ff3fe60806040526004361061007a575f3560e01c806373004ca01161004d57806373004ca014610118578063952587d614610155578063a2fb11751461016b578063bfb231d2146101a75761007a565b80631aa3a0081461007e57806338af3eed14610088578063598647f8146100b257806360981705146100da575b5f80fd5b6100866101e3565b005b348015610093575f80fd5b5061009c61036d565b6040516100a9919061092c565b60405180910390f35b3480156100bd575f80fd5b506100d860048036038101906100d3919061097c565b610392565b005b3480156100e5575f80fd5b5061010060048036038101906100fb91906109ba565b610665565b60405161010f939291906109f4565b60405180910390f35b348015610123575f80fd5b5061013e600480360381019061013991906109ba565b6106e7565b60405161014c929190610ae0565b60405180910390f35b348015610160575f80fd5b50610169610779565b005b348015610176575f80fd5b50610191600480360381019061018c91906109ba565b610898565b60405161019e919061092c565b60405180910390f35b3480156101b2575f80fd5b506101cd60048036038101906101c891906109ba565b6108cc565b6040516101da9190610b0e565b60405180910390f35b6017546001601754600481106101fc576101fb610b27565b5b60030201600101819055503360016017546004811061021e5761021d610b27565b5b600302016002015f6101000a81548173ffffffffffffffffffffffffffffffffffffffff021916908373ffffffffffffffffffffffffffffffffffffffff160217905550600560016017546004811061027a57610279610b27565b5b600302015f018190555060016017546004811061029a57610299610b27565b5b600302015f803373ffffffffffffffffffffffffffffffffffffffff1673ffffffffffffffffffffffffffffffffffffffff1681526020019081526020015f205f820154815f015560018201548160010155600282015f9054906101000a900473ffffffffffffffffffffffffffffffffffffffff16816002015f6101000a81548173ffffffffffffffffffffffffffffffffffffffff021916908373ffffffffffffffffffffffffffffffffffffffff16021790555090505060175f81548092919061036690610b81565b9190505550565b60165f9054906101000a900473ffffffffffffffffffffffffffffffffffffffff1681565b805f803373ffffffffffffffffffffffffffffffffffffffff1673ffffffffffffffffffffffffffffffffffffffff1681526020019081526020015f205f01541015610413576040517f08c379a000000000000000000000000000000000000000000000000000000000815260040161040a90610c22565b60405180910390fd5b5f805f3373ffffffffffffffffffffffffffffffffffffffff1673ffffffffffffffffffffffffffffffffffffffff1681526020019081526020015f205f015411610493576040517f08c379a000000000000000000000000000000000000000000000000000000000815260040161048a90610c8a565b60405180910390fd5b600382106104d6576040517f08c379a00000000000000000000000000000000000000000000000000000000081526004016104cd90610cf2565b60405180910390fd5b805f803373ffffffffffffffffffffffffffffffffffffffff1673ffffffffffffffffffffffffffffffffffffffff1681526020019081526020015f205f015f8282546105239190610d10565b925050819055505f803373ffffffffffffffffffffffffffffffffffffffff1673ffffffffffffffffffffffffffffffffffffffff1681526020019081526020015f205f015460015f803373ffffffffffffffffffffffffffffffffffffffff1673ffffffffffffffffffffffffffffffffffffffff1681526020019081526020015f2060010154600481106105bc576105bb610b27565b5b600302015f01819055505f600d83600381106105db576105da610b27565b5b6002020190505f5b8281101561065f57816001015f803373ffffffffffffffffffffffffffffffffffffffff1673ffffffffffffffffffffffffffffffffffffffff1681526020019081526020015f2060010154908060018154018082558091505060019003905f5260205f20015f909190919091505580806001019150506105e3565b50505050565b5f805f6001846004811061067c5761067b610b27565b5b600302015f01546001856004811061069757610696610b27565b5b6003020160010154600186600481106106b3576106b2610b27565b5b600302016002015f9054906101000a900473ffffffffffffffffffffffffffffffffffffffff169250925092509193909250565b5f6060600d83600381106106fe576106fd610b27565b5b600202015f0154600d846003811061071957610718610b27565b5b600202016001018080548060200260200160405190810160405280929190818152602001828054801561076957602002820191905f5260205f20905b815481526020019060010190808311610755575b5050505050905091509150915091565b5f5b6003811015610895575f600d826003811061079957610798610b27565b5b6002020190505f816001018054905014610887575f81600101805490508260010180549050436107c99190610d70565b6107d39190610da0565b90505f8260010182815481106107ec576107eb610b27565b5b905f5260205f20015490506001816004811061080b5761080a610b27565b5b600302016002015f9054906101000a900473ffffffffffffffffffffffffffffffffffffffff166013856003811061084657610845610b27565b5b015f6101000a81548173ffffffffffffffffffffffffffffffffffffffff021916908373ffffffffffffffffffffffffffffffffffffffff16021790555050505b50808060010191505061077b565b50565b601381600381106108a7575f80fd5b015f915054906101000a900473ffffffffffffffffffffffffffffffffffffffff1681565b600d81600381106108db575f80fd5b600202015f91509050805f0154905081565b5f73ffffffffffffffffffffffffffffffffffffffff82169050919050565b5f610916826108ed565b9050919050565b6109268161090c565b82525050565b5f60208201905061093f5f83018461091d565b92915050565b5f80fd5b5f819050919050565b61095b81610949565b8114610965575f80fd5b50565b5f8135905061097681610952565b92915050565b5f806040838503121561099257610991610945565b5b5f61099f85828601610968565b92505060206109b085828601610968565b9150509250929050565b5f602082840312156109cf576109ce610945565b5b5f6109dc84828501610968565b91505092915050565b6109ee81610949565b82525050565b5f606082019050610a075f8301866109e5565b610a1460208301856109e5565b610a21604083018461091d565b949350505050565b5f81519050919050565b5f82825260208201905092915050565b5f819050602082019050919050565b610a5b81610949565b82525050565b5f610a6c8383610a52565b60208301905092915050565b5f602082019050919050565b5f610a8e82610a29565b610a988185610a33565b9350610aa383610a43565b805f5b83811015610ad3578151610aba8882610a61565b9750610ac583610a78565b925050600181019050610aa6565b5085935050505092915050565b5f604082019050610af35f8301856109e5565b8181036020830152610b058184610a84565b90509392505050565b5f602082019050610b215f8301846109e5565b92915050565b7f4e487b71000000000000000000000000000000000000000000000000000000005f52603260045260245ffd5b7f4e487b71000000000000000000000000000000000000000000000000000000005f52601160045260245ffd5b5f610b8b82610949565b91507fffffffffffffffffffffffffffffffffffffffffffffffffffffffffffffffff8203610bbd57610bbc610b54565b5b600182019050919050565b5f82825260208201905092915050565b7f496e73756666696369656e7420746f6b656e73000000000000000000000000005f82015250565b5f610c0c601383610bc8565b9150610c1782610bd8565b602082019050919050565b5f6020820190508181035f830152610c3981610c00565b9050919050565b7f4e6f20746f6b656e732072656d61696e696e67000000000000000000000000005f82015250565b5f610c74601383610bc8565b9150610c7f82610c40565b602082019050919050565b5f6020820190508181035f830152610ca181610c68565b9050919050565b7f496e76616c6964206974656d20494400000000000000000000000000000000005f82015250565b5f610cdc600f83610bc8565b9150610ce782610ca8565b602082019050919050565b5f6020820190508181035f830152610d0981610cd0565b9050919050565b5f610d1a82610949565b9150610d2583610949565b9250828203905081811115610d3d57610d3c610b54565b5b92915050565b7f4e487b71000000000000000000000000000000000000000000000000000000005f52601260045260245ffd5b5f610d7a82610949565b9150610d8583610949565b925082610d9557610d94610d43565b5b828204905092915050565b5f610daa82610949565b9150610db583610949565b925082610dc557610dc4610d43565b5b82820690509291505056fea264697066735822122055498d9c400ef7bd49e3216045b91f6553100dc2fc0eb6d5273181dc95b7a3fa64736f6c63430008190033",
					"opcodes": "PUSH1 0x80 PUSH1 0x40 MSTORE PUSH0 PUSH1 0x17 SSTORE CALLVALUE DUP1 ISZERO PUSH2 0x13 JUMPI PUSH0 DUP1 REVERT JUMPDEST POP CALLER PUSH1 0x16 PUSH0 PUSH2 0x100 EXP DUP2 SLOAD DUP2 PUSH20 0xFFFFFFFFFFFFFFFFFFFFFFFFFFFFFFFFFFFFFFFF MUL NOT AND SWAP1 DUP4 PUSH20 0xFFFFFFFFFFFFFFFFFFFFFFFFFFFFFFFFFFFFFFFF AND MUL OR SWAP1 SSTORE POP PUSH1 0x60 PUSH1 0x40 MLOAD DUP1 PUSH1 0x40 ADD PUSH1 0x40 MSTORE DUP1 PUSH0 DUP2 MSTORE PUSH1 0x20 ADD DUP3 DUP2 MSTORE POP PUSH1 0xD PUSH0 PUSH1 0x3 DUP2 LT PUSH2 0x7F JUMPI PUSH2 0x7E PUSH2 0x1C5 JUMP JUMPDEST JUMPDEST PUSH1 0x2 MUL ADD PUSH0 DUP3 ADD MLOAD DUP2 PUSH0 ADD SSTORE PUSH1 0x20 DUP3 ADD MLOAD DUP2 PUSH1 0x1 ADD SWAP1 DUP1 MLOAD SWAP1 PUSH1 0x20 ADD SWAP1 PUSH2 0xA7 SWAP3 SWAP2 SWAP1 PUSH2 0x15F JUMP JUMPDEST POP SWAP1 POP POP PUSH1 0x40 MLOAD DUP1 PUSH1 0x40 ADD PUSH1 0x40 MSTORE DUP1 PUSH1 0x1 DUP2 MSTORE PUSH1 0x20 ADD DUP3 DUP2 MSTORE POP PUSH1 0xD PUSH1 0x1 PUSH1 0x3 DUP2 LT PUSH2 0xD6 JUMPI PUSH2 0xD5 PUSH2 0x1C5 JUMP JUMPDEST JUMPDEST PUSH1 0x2 MUL ADD PUSH0 DUP3 ADD MLOAD DUP2 PUSH0 ADD SSTORE PUSH1 0x20 DUP3 ADD MLOAD DUP2 PUSH1 0x1 ADD SWAP1 DUP1 MLOAD SWAP1 PUSH1 0x20 ADD SWAP1 PUSH2 0xFE SWAP3 SWAP2 SWAP1 PUSH2 0x15F JUMP JUMPDEST POP SWAP1 POP POP PUSH1 0x40 MLOAD DUP1 PUSH1 0x40 ADD PUSH1 0x40 MSTORE DUP1 PUSH1 0x2 DUP2 MSTORE PUSH1 0x20 ADD DUP3 DUP2 MSTORE POP PUSH1 0xD PUSH1 0x2 PUSH1 0x3 DUP2 LT PUSH2 0x12D JUMPI PUSH2 0x12C PUSH2 0x1C5 JUMP JUMPDEST JUMPDEST PUSH1 0x2 MUL ADD PUSH0 DUP3 ADD MLOAD DUP2 PUSH0 ADD SSTORE PUSH1 0x20 DUP3 ADD MLOAD DUP2 PUSH1 0x1 ADD SWAP1 DUP1 MLOAD SWAP1 PUSH1 0x20 ADD SWAP1 PUSH2 0x155 SWAP3 SWAP2 SWAP1 PUSH2 0x15F JUMP JUMPDEST POP SWAP1 POP POP POP PUSH2 0x1F2 JUMP JUMPDEST DUP3 DUP1 SLOAD DUP3 DUP3 SSTORE SWAP1 PUSH0 MSTORE PUSH1 0x20 PUSH0 KECCAK256 SWAP1 DUP2 ADD SWAP3 DUP3 ISZERO PUSH2 0x199 JUMPI SWAP2 PUSH1 0x20 MUL DUP3 ADD JUMPDEST DUP3 DUP2 GT ISZERO PUSH2 0x198 JUMPI DUP3 MLOAD DUP3 SSTORE SWAP2 PUSH1 0x20 ADD SWAP2 SWAP1 PUSH1 0x1 ADD SWAP1 PUSH2 0x17D JUMP JUMPDEST JUMPDEST POP SWAP1 POP PUSH2 0x1A6 SWAP2 SWAP1 PUSH2 0x1AA JUMP JUMPDEST POP SWAP1 JUMP JUMPDEST JUMPDEST DUP1 DUP3 GT ISZERO PUSH2 0x1C1 JUMPI PUSH0 DUP2 PUSH0 SWAP1 SSTORE POP PUSH1 0x1 ADD PUSH2 0x1AB JUMP JUMPDEST POP SWAP1 JUMP JUMPDEST PUSH32 0x4E487B7100000000000000000000000000000000000000000000000000000000 PUSH0 MSTORE PUSH1 0x32 PUSH1 0x4 MSTORE PUSH1 0x24 PUSH0 REVERT JUMPDEST PUSH2 0xE06 DUP1 PUSH2 0x1FF PUSH0 CODECOPY PUSH0 RETURN INVALID PUSH1 0x80 PUSH1 0x40 MSTORE PUSH1 0x4 CALLDATASIZE LT PUSH2 0x7A JUMPI PUSH0 CALLDATALOAD PUSH1 0xE0 SHR DUP1 PUSH4 0x73004CA0 GT PUSH2 0x4D JUMPI DUP1 PUSH4 0x73004CA0 EQ PUSH2 0x118 JUMPI DUP1 PUSH4 0x952587D6 EQ PUSH2 0x155 JUMPI DUP1 PUSH4 0xA2FB1175 EQ PUSH2 0x16B JUMPI DUP1 PUSH4 0xBFB231D2 EQ PUSH2 0x1A7 JUMPI PUSH2 0x7A JUMP JUMPDEST DUP1 PUSH4 0x1AA3A008 EQ PUSH2 0x7E JUMPI DUP1 PUSH4 0x38AF3EED EQ PUSH2 0x88 JUMPI DUP1 PUSH4 0x598647F8 EQ PUSH2 0xB2 JUMPI DUP1 PUSH4 0x60981705 EQ PUSH2 0xDA JUMPI JUMPDEST PUSH0 DUP1 REVERT JUMPDEST PUSH2 0x86 PUSH2 0x1E3 JUMP JUMPDEST STOP JUMPDEST CALLVALUE DUP1 ISZERO PUSH2 0x93 JUMPI PUSH0 DUP1 REVERT JUMPDEST POP PUSH2 0x9C PUSH2 0x36D JUMP JUMPDEST PUSH1 0x40 MLOAD PUSH2 0xA9 SWAP2 SWAP1 PUSH2 0x92C JUMP JUMPDEST PUSH1 0x40 MLOAD DUP1 SWAP2 SUB SWAP1 RETURN JUMPDEST CALLVALUE DUP1 ISZERO PUSH2 0xBD JUMPI PUSH0 DUP1 REVERT JUMPDEST POP PUSH2 0xD8 PUSH1 0x4 DUP1 CALLDATASIZE SUB DUP2 ADD SWAP1 PUSH2 0xD3 SWAP2 SWAP1 PUSH2 0x97C JUMP JUMPDEST PUSH2 0x392 JUMP JUMPDEST STOP JUMPDEST CALLVALUE DUP1 ISZERO PUSH2 0xE5 JUMPI PUSH0 DUP1 REVERT JUMPDEST POP PUSH2 0x100 PUSH1 0x4 DUP1 CALLDATASIZE SUB DUP2 ADD SWAP1 PUSH2 0xFB SWAP2 SWAP1 PUSH2 0x9BA JUMP JUMPDEST PUSH2 0x665 JUMP JUMPDEST PUSH1 0x40 MLOAD PUSH2 0x10F SWAP4 SWAP3 SWAP2 SWAP1 PUSH2 0x9F4 JUMP JUMPDEST PUSH1 0x40 MLOAD DUP1 SWAP2 SUB SWAP1 RETURN JUMPDEST CALLVALUE DUP1 ISZERO PUSH2 0x123 JUMPI PUSH0 DUP1 REVERT JUMPDEST POP PUSH2 0x13E PUSH1 0x4 DUP1 CALLDATASIZE SUB DUP2 ADD SWAP1 PUSH2 0x139 SWAP2 SWAP1 PUSH2 0x9BA JUMP JUMPDEST PUSH2 0x6E7 JUMP JUMPDEST PUSH1 0x40 MLOAD PUSH2 0x14C SWAP3 SWAP2 SWAP1 PUSH2 0xAE0 JUMP JUMPDEST PUSH1 0x40 MLOAD DUP1 SWAP2 SUB SWAP1 RETURN JUMPDEST CALLVALUE DUP1 ISZERO PUSH2 0x160 JUMPI PUSH0 DUP1 REVERT JUMPDEST POP PUSH2 0x169 PUSH2 0x779 JUMP JUMPDEST STOP JUMPDEST CALLVALUE DUP1 ISZERO PUSH2 0x176 JUMPI PUSH0 DUP1 REVERT JUMPDEST POP PUSH2 0x191 PUSH1 0x4 DUP1 CALLDATASIZE SUB DUP2 ADD SWAP1 PUSH2 0x18C SWAP2 SWAP1 PUSH2 0x9BA JUMP JUMPDEST PUSH2 0x898 JUMP JUMPDEST PUSH1 0x40 MLOAD PUSH2 0x19E SWAP2 SWAP1 PUSH2 0x92C JUMP JUMPDEST PUSH1 0x40 MLOAD DUP1 SWAP2 SUB SWAP1 RETURN JUMPDEST CALLVALUE DUP1 ISZERO PUSH2 0x1B2 JUMPI PUSH0 DUP1 REVERT JUMPDEST POP PUSH2 0x1CD PUSH1 0x4 DUP1 CALLDATASIZE SUB DUP2 ADD SWAP1 PUSH2 0x1C8 SWAP2 SWAP1 PUSH2 0x9BA JUMP JUMPDEST PUSH2 0x8CC JUMP JUMPDEST PUSH1 0x40 MLOAD PUSH2 0x1DA SWAP2 SWAP1 PUSH2 0xB0E JUMP JUMPDEST PUSH1 0x40 MLOAD DUP1 SWAP2 SUB SWAP1 RETURN JUMPDEST PUSH1 0x17 SLOAD PUSH1 0x1 PUSH1 0x17 SLOAD PUSH1 0x4 DUP2 LT PUSH2 0x1FC JUMPI PUSH2 0x1FB PUSH2 0xB27 JUMP JUMPDEST JUMPDEST PUSH1 0x3 MUL ADD PUSH1 0x1 ADD DUP2 SWAP1 SSTORE POP CALLER PUSH1 0x1 PUSH1 0x17 SLOAD PUSH1 0x4 DUP2 LT PUSH2 0x21E JUMPI PUSH2 0x21D PUSH2 0xB27 JUMP JUMPDEST JUMPDEST PUSH1 0x3 MUL ADD PUSH1 0x2 ADD PUSH0 PUSH2 0x100 EXP DUP2 SLOAD DUP2 PUSH20 0xFFFFFFFFFFFFFFFFFFFFFFFFFFFFFFFFFFFFFFFF MUL NOT AND SWAP1 DUP4 PUSH20 0xFFFFFFFFFFFFFFFFFFFFFFFFFFFFFFFFFFFFFFFF AND MUL OR SWAP1 SSTORE POP PUSH1 0x5 PUSH1 0x1 PUSH1 0x17 SLOAD PUSH1 0x4 DUP2 LT PUSH2 0x27A JUMPI PUSH2 0x279 PUSH2 0xB27 JUMP JUMPDEST JUMPDEST PUSH1 0x3 MUL ADD PUSH0 ADD DUP2 SWAP1 SSTORE POP PUSH1 0x1 PUSH1 0x17 SLOAD PUSH1 0x4 DUP2 LT PUSH2 0x29A JUMPI PUSH2 0x299 PUSH2 0xB27 JUMP JUMPDEST JUMPDEST PUSH1 0x3 MUL ADD PUSH0 DUP1 CALLER PUSH20 0xFFFFFFFFFFFFFFFFFFFFFFFFFFFFFFFFFFFFFFFF AND PUSH20 0xFFFFFFFFFFFFFFFFFFFFFFFFFFFFFFFFFFFFFFFF AND DUP2 MSTORE PUSH1 0x20 ADD SWAP1 DUP2 MSTORE PUSH1 0x20 ADD PUSH0 KECCAK256 PUSH0 DUP3 ADD SLOAD DUP2 PUSH0 ADD SSTORE PUSH1 0x1 DUP3 ADD SLOAD DUP2 PUSH1 0x1 ADD SSTORE PUSH1 0x2 DUP3 ADD PUSH0 SWAP1 SLOAD SWAP1 PUSH2 0x100 EXP SWAP1 DIV PUSH20 0xFFFFFFFFFFFFFFFFFFFFFFFFFFFFFFFFFFFFFFFF AND DUP2 PUSH1 0x2 ADD PUSH0 PUSH2 0x100 EXP DUP2 SLOAD DUP2 PUSH20 0xFFFFFFFFFFFFFFFFFFFFFFFFFFFFFFFFFFFFFFFF MUL NOT AND SWAP1 DUP4 PUSH20 0xFFFFFFFFFFFFFFFFFFFFFFFFFFFFFFFFFFFFFFFF AND MUL OR SWAP1 SSTORE POP SWAP1 POP POP PUSH1 0x17 PUSH0 DUP2 SLOAD DUP1 SWAP3 SWAP2 SWAP1 PUSH2 0x366 SWAP1 PUSH2 0xB81 JUMP JUMPDEST SWAP2 SWAP1 POP SSTORE POP JUMP JUMPDEST PUSH1 0x16 PUSH0 SWAP1 SLOAD SWAP1 PUSH2 0x100 EXP SWAP1 DIV PUSH20 0xFFFFFFFFFFFFFFFFFFFFFFFFFFFFFFFFFFFFFFFF AND DUP2 JUMP JUMPDEST DUP1 PUSH0 DUP1 CALLER PUSH20 0xFFFFFFFFFFFFFFFFFFFFFFFFFFFFFFFFFFFFFFFF AND PUSH20 0xFFFFFFFFFFFFFFFFFFFFFFFFFFFFFFFFFFFFFFFF AND DUP2 MSTORE PUSH1 0x20 ADD SWAP1 DUP2 MSTORE PUSH1 0x20 ADD PUSH0 KECCAK256 PUSH0 ADD SLOAD LT ISZERO PUSH2 0x413 JUMPI PUSH1 0x40 MLOAD PUSH32 0x8C379A000000000000000000000000000000000000000000000000000000000 DUP2 MSTORE PUSH1 0x4 ADD PUSH2 0x40A SWAP1 PUSH2 0xC22 JUMP JUMPDEST PUSH1 0x40 MLOAD DUP1 SWAP2 SUB SWAP1 REVERT JUMPDEST PUSH0 DUP1 PUSH0 CALLER PUSH20 0xFFFFFFFFFFFFFFFFFFFFFFFFFFFFFFFFFFFFFFFF AND PUSH20 0xFFFFFFFFFFFFFFFFFFFFFFFFFFFFFFFFFFFFFFFF AND DUP2 MSTORE PUSH1 0x20 ADD SWAP1 DUP2 MSTORE PUSH1 0x20 ADD PUSH0 KECCAK256 PUSH0 ADD SLOAD GT PUSH2 0x493 JUMPI PUSH1 0x40 MLOAD PUSH32 0x8C379A000000000000000000000000000000000000000000000000000000000 DUP2 MSTORE PUSH1 0x4 ADD PUSH2 0x48A SWAP1 PUSH2 0xC8A JUMP JUMPDEST PUSH1 0x40 MLOAD DUP1 SWAP2 SUB SWAP1 REVERT JUMPDEST PUSH1 0x3 DUP3 LT PUSH2 0x4D6 JUMPI PUSH1 0x40 MLOAD PUSH32 0x8C379A000000000000000000000000000000000000000000000000000000000 DUP2 MSTORE PUSH1 0x4 ADD PUSH2 0x4CD SWAP1 PUSH2 0xCF2 JUMP JUMPDEST PUSH1 0x40 MLOAD DUP1 SWAP2 SUB SWAP1 REVERT JUMPDEST DUP1 PUSH0 DUP1 CALLER PUSH20 0xFFFFFFFFFFFFFFFFFFFFFFFFFFFFFFFFFFFFFFFF AND PUSH20 0xFFFFFFFFFFFFFFFFFFFFFFFFFFFFFFFFFFFFFFFF AND DUP2 MSTORE PUSH1 0x20 ADD SWAP1 DUP2 MSTORE PUSH1 0x20 ADD PUSH0 KECCAK256 PUSH0 ADD PUSH0 DUP3 DUP3 SLOAD PUSH2 0x523 SWAP2 SWAP1 PUSH2 0xD10 JUMP JUMPDEST SWAP3 POP POP DUP2 SWAP1 SSTORE POP PUSH0 DUP1 CALLER PUSH20 0xFFFFFFFFFFFFFFFFFFFFFFFFFFFFFFFFFFFFFFFF AND PUSH20 0xFFFFFFFFFFFFFFFFFFFFFFFFFFFFFFFFFFFFFFFF AND DUP2 MSTORE PUSH1 0x20 ADD SWAP1 DUP2 MSTORE PUSH1 0x20 ADD PUSH0 KECCAK256 PUSH0 ADD SLOAD PUSH1 0x1 PUSH0 DUP1 CALLER PUSH20 0xFFFFFFFFFFFFFFFFFFFFFFFFFFFFFFFFFFFFFFFF AND PUSH20 0xFFFFFFFFFFFFFFFFFFFFFFFFFFFFFFFFFFFFFFFF AND DUP2 MSTORE PUSH1 0x20 ADD SWAP1 DUP2 MSTORE PUSH1 0x20 ADD PUSH0 KECCAK256 PUSH1 0x1 ADD SLOAD PUSH1 0x4 DUP2 LT PUSH2 0x5BC JUMPI PUSH2 0x5BB PUSH2 0xB27 JUMP JUMPDEST JUMPDEST PUSH1 0x3 MUL ADD PUSH0 ADD DUP2 SWAP1 SSTORE POP PUSH0 PUSH1 0xD DUP4 PUSH1 0x3 DUP2 LT PUSH2 0x5DB JUMPI PUSH2 0x5DA PUSH2 0xB27 JUMP JUMPDEST JUMPDEST PUSH1 0x2 MUL ADD SWAP1 POP PUSH0 JUMPDEST DUP3 DUP2 LT ISZERO PUSH2 0x65F JUMPI DUP2 PUSH1 0x1 ADD PUSH0 DUP1 CALLER PUSH20 0xFFFFFFFFFFFFFFFFFFFFFFFFFFFFFFFFFFFFFFFF AND PUSH20 0xFFFFFFFFFFFFFFFFFFFFFFFFFFFFFFFFFFFFFFFF AND DUP2 MSTORE PUSH1 0x20 ADD SWAP1 DUP2 MSTORE PUSH1 0x20 ADD PUSH0 KECCAK256 PUSH1 0x1 ADD SLOAD SWAP1 DUP1 PUSH1 0x1 DUP2 SLOAD ADD DUP1 DUP3 SSTORE DUP1 SWAP2 POP POP PUSH1 0x1 SWAP1 SUB SWAP1 PUSH0 MSTORE PUSH1 0x20 PUSH0 KECCAK256 ADD PUSH0 SWAP1 SWAP2 SWAP1 SWAP2 SWAP1 SWAP2 POP SSTORE DUP1 DUP1 PUSH1 0x1 ADD SWAP2 POP POP PUSH2 0x5E3 JUMP JUMPDEST POP POP POP POP JUMP JUMPDEST PUSH0 DUP1 PUSH0 PUSH1 0x1 DUP5 PUSH1 0x4 DUP2 LT PUSH2 0x67C JUMPI PUSH2 0x67B PUSH2 0xB27 JUMP JUMPDEST JUMPDEST PUSH1 0x3 MUL ADD PUSH0 ADD SLOAD PUSH1 0x1 DUP6 PUSH1 0x4 DUP2 LT PUSH2 0x697 JUMPI PUSH2 0x696 PUSH2 0xB27 JUMP JUMPDEST JUMPDEST PUSH1 0x3 MUL ADD PUSH1 0x1 ADD SLOAD PUSH1 0x1 DUP7 PUSH1 0x4 DUP2 LT PUSH2 0x6B3 JUMPI PUSH2 0x6B2 PUSH2 0xB27 JUMP JUMPDEST JUMPDEST PUSH1 0x3 MUL ADD PUSH1 0x2 ADD PUSH0 SWAP1 SLOAD SWAP1 PUSH2 0x100 EXP SWAP1 DIV PUSH20 0xFFFFFFFFFFFFFFFFFFFFFFFFFFFFFFFFFFFFFFFF AND SWAP3 POP SWAP3 POP SWAP3 POP SWAP2 SWAP4 SWAP1 SWAP3 POP JUMP JUMPDEST PUSH0 PUSH1 0x60 PUSH1 0xD DUP4 PUSH1 0x3 DUP2 LT PUSH2 0x6FE JUMPI PUSH2 0x6FD PUSH2 0xB27 JUMP JUMPDEST JUMPDEST PUSH1 0x2 MUL ADD PUSH0 ADD SLOAD PUSH1 0xD DUP5 PUSH1 0x3 DUP2 LT PUSH2 0x719 JUMPI PUSH2 0x718 PUSH2 0xB27 JUMP JUMPDEST JUMPDEST PUSH1 0x2 MUL ADD PUSH1 0x1 ADD DUP1 DUP1 SLOAD DUP1 PUSH1 0x20 MUL PUSH1 0x20 ADD PUSH1 0x40 MLOAD SWAP1 DUP2 ADD PUSH1 0x40 MSTORE DUP1 SWAP3 SWAP2 SWAP1 DUP2 DUP2 MSTORE PUSH1 0x20 ADD DUP3 DUP1 SLOAD DUP1 ISZERO PUSH2 0x769 JUMPI PUSH1 0x20 MUL DUP3 ADD SWAP2 SWAP1 PUSH0 MSTORE PUSH1 0x20 PUSH0 KECCAK256 SWAP1 JUMPDEST DUP2 SLOAD DUP2 MSTORE PUSH1 0x20 ADD SWAP1 PUSH1 0x1 ADD SWAP1 DUP1 DUP4 GT PUSH2 0x755 JUMPI JUMPDEST POP POP POP POP POP SWAP1 POP SWAP2 POP SWAP2 POP SWAP2 POP SWAP2 JUMP JUMPDEST PUSH0 JUMPDEST PUSH1 0x3 DUP2 LT ISZERO PUSH2 0x895 JUMPI PUSH0 PUSH1 0xD DUP3 PUSH1 0x3 DUP2 LT PUSH2 0x799 JUMPI PUSH2 0x798 PUSH2 0xB27 JUMP JUMPDEST JUMPDEST PUSH1 0x2 MUL ADD SWAP1 POP PUSH0 DUP2 PUSH1 0x1 ADD DUP1 SLOAD SWAP1 POP EQ PUSH2 0x887 JUMPI PUSH0 DUP2 PUSH1 0x1 ADD DUP1 SLOAD SWAP1 POP DUP3 PUSH1 0x1 ADD DUP1 SLOAD SWAP1 POP NUMBER PUSH2 0x7C9 SWAP2 SWAP1 PUSH2 0xD70 JUMP JUMPDEST PUSH2 0x7D3 SWAP2 SWAP1 PUSH2 0xDA0 JUMP JUMPDEST SWAP1 POP PUSH0 DUP3 PUSH1 0x1 ADD DUP3 DUP2 SLOAD DUP2 LT PUSH2 0x7EC JUMPI PUSH2 0x7EB PUSH2 0xB27 JUMP JUMPDEST JUMPDEST SWAP1 PUSH0 MSTORE PUSH1 0x20 PUSH0 KECCAK256 ADD SLOAD SWAP1 POP PUSH1 0x1 DUP2 PUSH1 0x4 DUP2 LT PUSH2 0x80B JUMPI PUSH2 0x80A PUSH2 0xB27 JUMP JUMPDEST JUMPDEST PUSH1 0x3 MUL ADD PUSH1 0x2 ADD PUSH0 SWAP1 SLOAD SWAP1 PUSH2 0x100 EXP SWAP1 DIV PUSH20 0xFFFFFFFFFFFFFFFFFFFFFFFFFFFFFFFFFFFFFFFF AND PUSH1 0x13 DUP6 PUSH1 0x3 DUP2 LT PUSH2 0x846 JUMPI PUSH2 0x845 PUSH2 0xB27 JUMP JUMPDEST JUMPDEST ADD PUSH0 PUSH2 0x100 EXP DUP2 SLOAD DUP2 PUSH20 0xFFFFFFFFFFFFFFFFFFFFFFFFFFFFFFFFFFFFFFFF MUL NOT AND SWAP1 DUP4 PUSH20 0xFFFFFFFFFFFFFFFFFFFFFFFFFFFFFFFFFFFFFFFF AND MUL OR SWAP1 SSTORE POP POP POP JUMPDEST POP DUP1 DUP1 PUSH1 0x1 ADD SWAP2 POP POP PUSH2 0x77B JUMP JUMPDEST POP JUMP JUMPDEST PUSH1 0x13 DUP2 PUSH1 0x3 DUP2 LT PUSH2 0x8A7 JUMPI PUSH0 DUP1 REVERT JUMPDEST ADD PUSH0 SWAP2 POP SLOAD SWAP1 PUSH2 0x100 EXP SWAP1 DIV PUSH20 0xFFFFFFFFFFFFFFFFFFFFFFFFFFFFFFFFFFFFFFFF AND DUP2 JUMP JUMPDEST PUSH1 0xD DUP2 PUSH1 0x3 DUP2 LT PUSH2 0x8DB JUMPI PUSH0 DUP1 REVERT JUMPDEST PUSH1 0x2 MUL ADD PUSH0 SWAP2 POP SWAP1 POP DUP1 PUSH0 ADD SLOAD SWAP1 POP DUP2 JUMP JUMPDEST PUSH0 PUSH20 0xFFFFFFFFFFFFFFFFFFFFFFFFFFFFFFFFFFFFFFFF DUP3 AND SWAP1 POP SWAP2 SWAP1 POP JUMP JUMPDEST PUSH0 PUSH2 0x916 DUP3 PUSH2 0x8ED JUMP JUMPDEST SWAP1 POP SWAP2 SWAP1 POP JUMP JUMPDEST PUSH2 0x926 DUP2 PUSH2 0x90C JUMP JUMPDEST DUP3 MSTORE POP POP JUMP JUMPDEST PUSH0 PUSH1 0x20 DUP3 ADD SWAP1 POP PUSH2 0x93F PUSH0 DUP4 ADD DUP5 PUSH2 0x91D JUMP JUMPDEST SWAP3 SWAP2 POP POP JUMP JUMPDEST PUSH0 DUP1 REVERT JUMPDEST PUSH0 DUP2 SWAP1 POP SWAP2 SWAP1 POP JUMP JUMPDEST PUSH2 0x95B DUP2 PUSH2 0x949 JUMP JUMPDEST DUP2 EQ PUSH2 0x965 JUMPI PUSH0 DUP1 REVERT JUMPDEST POP JUMP JUMPDEST PUSH0 DUP2 CALLDATALOAD SWAP1 POP PUSH2 0x976 DUP2 PUSH2 0x952 JUMP JUMPDEST SWAP3 SWAP2 POP POP JUMP JUMPDEST PUSH0 DUP1 PUSH1 0x40 DUP4 DUP6 SUB SLT ISZERO PUSH2 0x992 JUMPI PUSH2 0x991 PUSH2 0x945 JUMP JUMPDEST JUMPDEST PUSH0 PUSH2 0x99F DUP6 DUP3 DUP7 ADD PUSH2 0x968 JUMP JUMPDEST SWAP3 POP POP PUSH1 0x20 PUSH2 0x9B0 DUP6 DUP3 DUP7 ADD PUSH2 0x968 JUMP JUMPDEST SWAP2 POP POP SWAP3 POP SWAP3 SWAP1 POP JUMP JUMPDEST PUSH0 PUSH1 0x20 DUP3 DUP5 SUB SLT ISZERO PUSH2 0x9CF JUMPI PUSH2 0x9CE PUSH2 0x945 JUMP JUMPDEST JUMPDEST PUSH0 PUSH2 0x9DC DUP5 DUP3 DUP6 ADD PUSH2 0x968 JUMP JUMPDEST SWAP2 POP POP SWAP3 SWAP2 POP POP JUMP JUMPDEST PUSH2 0x9EE DUP2 PUSH2 0x949 JUMP JUMPDEST DUP3 MSTORE POP POP JUMP JUMPDEST PUSH0 PUSH1 0x60 DUP3 ADD SWAP1 POP PUSH2 0xA07 PUSH0 DUP4 ADD DUP7 PUSH2 0x9E5 JUMP JUMPDEST PUSH2 0xA14 PUSH1 0x20 DUP4 ADD DUP6 PUSH2 0x9E5 JUMP JUMPDEST PUSH2 0xA21 PUSH1 0x40 DUP4 ADD DUP5 PUSH2 0x91D JUMP JUMPDEST SWAP5 SWAP4 POP POP POP POP JUMP JUMPDEST PUSH0 DUP2 MLOAD SWAP1 POP SWAP2 SWAP1 POP JUMP JUMPDEST PUSH0 DUP3 DUP3 MSTORE PUSH1 0x20 DUP3 ADD SWAP1 POP SWAP3 SWAP2 POP POP JUMP JUMPDEST PUSH0 DUP2 SWAP1 POP PUSH1 0x20 DUP3 ADD SWAP1 POP SWAP2 SWAP1 POP JUMP JUMPDEST PUSH2 0xA5B DUP2 PUSH2 0x949 JUMP JUMPDEST DUP3 MSTORE POP POP JUMP JUMPDEST PUSH0 PUSH2 0xA6C DUP4 DUP4 PUSH2 0xA52 JUMP JUMPDEST PUSH1 0x20 DUP4 ADD SWAP1 POP SWAP3 SWAP2 POP POP JUMP JUMPDEST PUSH0 PUSH1 0x20 DUP3 ADD SWAP1 POP SWAP2 SWAP1 POP JUMP JUMPDEST PUSH0 PUSH2 0xA8E DUP3 PUSH2 0xA29 JUMP JUMPDEST PUSH2 0xA98 DUP2 DUP6 PUSH2 0xA33 JUMP JUMPDEST SWAP4 POP PUSH2 0xAA3 DUP4 PUSH2 0xA43 JUMP JUMPDEST DUP1 PUSH0 JUMPDEST DUP4 DUP2 LT ISZERO PUSH2 0xAD3 JUMPI DUP2 MLOAD PUSH2 0xABA DUP9 DUP3 PUSH2 0xA61 JUMP JUMPDEST SWAP8 POP PUSH2 0xAC5 DUP4 PUSH2 0xA78 JUMP JUMPDEST SWAP3 POP POP PUSH1 0x1 DUP2 ADD SWAP1 POP PUSH2 0xAA6 JUMP JUMPDEST POP DUP6 SWAP4 POP POP POP POP SWAP3 SWAP2 POP POP JUMP JUMPDEST PUSH0 PUSH1 0x40 DUP3 ADD SWAP1 POP PUSH2 0xAF3 PUSH0 DUP4 ADD DUP6 PUSH2 0x9E5 JUMP JUMPDEST DUP2 DUP2 SUB PUSH1 0x20 DUP4 ADD MSTORE PUSH2 0xB05 DUP2 DUP5 PUSH2 0xA84 JUMP JUMPDEST SWAP1 POP SWAP4 SWAP3 POP POP POP JUMP JUMPDEST PUSH0 PUSH1 0x20 DUP3 ADD SWAP1 POP PUSH2 0xB21 PUSH0 DUP4 ADD DUP5 PUSH2 0x9E5 JUMP JUMPDEST SWAP3 SWAP2 POP POP JUMP JUMPDEST PUSH32 0x4E487B7100000000000000000000000000000000000000000000000000000000 PUSH0 MSTORE PUSH1 0x32 PUSH1 0x4 MSTORE PUSH1 0x24 PUSH0 REVERT JUMPDEST PUSH32 0x4E487B7100000000000000000000000000000000000000000000000000000000 PUSH0 MSTORE PUSH1 0x11 PUSH1 0x4 MSTORE PUSH1 0x24 PUSH0 REVERT JUMPDEST PUSH0 PUSH2 0xB8B DUP3 PUSH2 0x949 JUMP JUMPDEST SWAP2 POP PUSH32 0xFFFFFFFFFFFFFFFFFFFFFFFFFFFFFFFFFFFFFFFFFFFFFFFFFFFFFFFFFFFFFFFF DUP3 SUB PUSH2 0xBBD JUMPI PUSH2 0xBBC PUSH2 0xB54 JUMP JUMPDEST JUMPDEST PUSH1 0x1 DUP3 ADD SWAP1 POP SWAP2 SWAP1 POP JUMP JUMPDEST PUSH0 DUP3 DUP3 MSTORE PUSH1 0x20 DUP3 ADD SWAP1 POP SWAP3 SWAP2 POP POP JUMP JUMPDEST PUSH32 0x496E73756666696369656E7420746F6B656E7300000000000000000000000000 PUSH0 DUP3 ADD MSTORE POP JUMP JUMPDEST PUSH0 PUSH2 0xC0C PUSH1 0x13 DUP4 PUSH2 0xBC8 JUMP JUMPDEST SWAP2 POP PUSH2 0xC17 DUP3 PUSH2 0xBD8 JUMP JUMPDEST PUSH1 0x20 DUP3 ADD SWAP1 POP SWAP2 SWAP1 POP JUMP JUMPDEST PUSH0 PUSH1 0x20 DUP3 ADD SWAP1 POP DUP2 DUP2 SUB PUSH0 DUP4 ADD MSTORE PUSH2 0xC39 DUP2 PUSH2 0xC00 JUMP JUMPDEST SWAP1 POP SWAP2 SWAP1 POP JUMP JUMPDEST PUSH32 0x4E6F20746F6B656E732072656D61696E696E6700000000000000000000000000 PUSH0 DUP3 ADD MSTORE POP JUMP JUMPDEST PUSH0 PUSH2 0xC74 PUSH1 0x13 DUP4 PUSH2 0xBC8 JUMP JUMPDEST SWAP2 POP PUSH2 0xC7F DUP3 PUSH2 0xC40 JUMP JUMPDEST PUSH1 0x20 DUP3 ADD SWAP1 POP SWAP2 SWAP1 POP JUMP JUMPDEST PUSH0 PUSH1 0x20 DUP3 ADD SWAP1 POP DUP2 DUP2 SUB PUSH0 DUP4 ADD MSTORE PUSH2 0xCA1 DUP2 PUSH2 0xC68 JUMP JUMPDEST SWAP1 POP SWAP2 SWAP1 POP JUMP JUMPDEST PUSH32 0x496E76616C6964206974656D2049440000000000000000000000000000000000 PUSH0 DUP3 ADD MSTORE POP JUMP JUMPDEST PUSH0 PUSH2 0xCDC PUSH1 0xF DUP4 PUSH2 0xBC8 JUMP JUMPDEST SWAP2 POP PUSH2 0xCE7 DUP3 PUSH2 0xCA8 JUMP JUMPDEST PUSH1 0x20 DUP3 ADD SWAP1 POP SWAP2 SWAP1 POP JUMP JUMPDEST PUSH0 PUSH1 0x20 DUP3 ADD SWAP1 POP DUP2 DUP2 SUB PUSH0 DUP4 ADD MSTORE PUSH2 0xD09 DUP2 PUSH2 0xCD0 JUMP JUMPDEST SWAP1 POP SWAP2 SWAP1 POP JUMP JUMPDEST PUSH0 PUSH2 0xD1A DUP3 PUSH2 0x949 JUMP JUMPDEST SWAP2 POP PUSH2 0xD25 DUP4 PUSH2 0x949 JUMP JUMPDEST SWAP3 POP DUP3 DUP3 SUB SWAP1 POP DUP2 DUP2 GT ISZERO PUSH2 0xD3D JUMPI PUSH2 0xD3C PUSH2 0xB54 JUMP JUMPDEST JUMPDEST SWAP3 SWAP2 POP POP JUMP JUMPDEST PUSH32 0x4E487B7100000000000000000000000000000000000000000000000000000000 PUSH0 MSTORE PUSH1 0x12 PUSH1 0x4 MSTORE PUSH1 0x24 PUSH0 REVERT JUMPDEST PUSH0 PUSH2 0xD7A DUP3 PUSH2 0x949 JUMP JUMPDEST SWAP2 POP PUSH2 0xD85 DUP4 PUSH2 0x949 JUMP JUMPDEST SWAP3 POP DUP3 PUSH2 0xD95 JUMPI PUSH2 0xD94 PUSH2 0xD43 JUMP JUMPDEST JUMPDEST DUP3 DUP3 DIV SWAP1 POP SWAP3 SWAP2 POP POP JUMP JUMPDEST PUSH0 PUSH2 0xDAA DUP3 PUSH2 0x949 JUMP JUMPDEST SWAP2 POP PUSH2 0xDB5 DUP4 PUSH2 0x949 JUMP JUMPDEST SWAP3 POP DUP3 PUSH2 0xDC5 JUMPI PUSH2 0xDC4 PUSH2 0xD43 JUMP JUMPDEST JUMPDEST DUP3 DUP3 MOD SWAP1 POP SWAP3 SWAP2 POP POP JUMP INVALID LOG2 PUSH5 0x6970667358 0x22 SLT KECCAK256 SSTORE BLOBHASH DUP14 SWAP13 BLOCKHASH 0xE 0xF7 0xBD BLOBHASH 0xE3 0x21 PUSH1 0x45 0xB9 0x1F PUSH6 0x53100DC2FC0E 0xB6 0xD5 0x27 BALANCE DUP2 0xDC SWAP6 0xB7 LOG3 STATICCALL PUSH5 0x736F6C6343 STOP ADDMOD NOT STOP CALLER "
				},
				"gasEstimates": {
					"creation": {
						"codeDepositCost": "718000",
						"executionCost": "infinite",
						"totalCost": "infinite"
					},
					"external": {
						"beneficiary()": "2531",
						"bid(uint256,uint256)": "infinite",
						"getItemDetails(uint256)": "infinite",
						"getPersonDetails(uint256)": "infinite",
						"items(uint256)": "infinite",
						"register()": "178579",
						"revealWinners()": "infinite",
						"winners(uint256)": "2839"
					}
				},
				"methodIdentifiers": {
					"beneficiary()": "38af3eed",
					"bid(uint256,uint256)": "598647f8",
					"getItemDetails(uint256)": "73004ca0",
					"getPersonDetails(uint256)": "60981705",
					"items(uint256)": "bfb231d2",
					"register()": "1aa3a008",
					"revealWinners()": "952587d6",
					"winners(uint256)": "a2fb1175"
				}
			},
			"storageLayout": {
				"storage": [
					{
						"astId": 19,
						"contract": "auction.sol:Auction",
						"label": "tokenDetails",
						"offset": 0,
						"slot": "0",
						"type": "t_mapping(t_address,t_struct(Person)14_storage)"
					},
					{
						"astId": 24,
						"contract": "auction.sol:Auction",
						"label": "bidders",
						"offset": 0,
						"slot": "1",
						"type": "t_array(t_struct(Person)14_storage)4_storage"
					},
					{
						"astId": 29,
						"contract": "auction.sol:Auction",
						"label": "items",
						"offset": 0,
						"slot": "13",
						"type": "t_array(t_struct(Item)7_storage)3_storage"
					},
					{
						"astId": 33,
						"contract": "auction.sol:Auction",
						"label": "winners",
						"offset": 0,
						"slot": "19",
						"type": "t_array(t_address)3_storage"
					},
					{
						"astId": 35,
						"contract": "auction.sol:Auction",
						"label": "beneficiary",
						"offset": 0,
						"slot": "22",
						"type": "t_address"
					},
					{
						"astId": 38,
						"contract": "auction.sol:Auction",
						"label": "bidderCount",
						"offset": 0,
						"slot": "23",
						"type": "t_uint256"
					}
				],
				"types": {
					"t_address": {
						"encoding": "inplace",
						"label": "address",
						"numberOfBytes": "20"
					},
					"t_array(t_address)3_storage": {
						"base": "t_address",
						"encoding": "inplace",
						"label": "address[3]",
						"numberOfBytes": "96"
					},
					"t_array(t_struct(Item)7_storage)3_storage": {
						"base": "t_struct(Item)7_storage",
						"encoding": "inplace",
						"label": "struct Auction.Item[3]",
						"numberOfBytes": "192"
					},
					"t_array(t_struct(Person)14_storage)4_storage": {
						"base": "t_struct(Person)14_storage",
						"encoding": "inplace",
						"label": "struct Auction.Person[4]",
						"numberOfBytes": "384"
					},
					"t_array(t_uint256)dyn_storage": {
						"base": "t_uint256",
						"encoding": "dynamic_array",
						"label": "uint256[]",
						"numberOfBytes": "32"
					},
					"t_mapping(t_address,t_struct(Person)14_storage)": {
						"encoding": "mapping",
						"key": "t_address",
						"label": "mapping(address => struct Auction.Person)",
						"numberOfBytes": "32",
						"value": "t_struct(Person)14_storage"
					},
					"t_struct(Item)7_storage": {
						"encoding": "inplace",
						"label": "struct Auction.Item",
						"members": [
							{
								"astId": 3,
								"contract": "auction.sol:Auction",
								"label": "itemId",
								"offset": 0,
								"slot": "0",
								"type": "t_uint256"
							},
							{
								"astId": 6,
								"contract": "auction.sol:Auction",
								"label": "itemTokens",
								"offset": 0,
								"slot": "1",
								"type": "t_array(t_uint256)dyn_storage"
							}
						],
						"numberOfBytes": "64"
					},
					"t_struct(Person)14_storage": {
						"encoding": "inplace",
						"label": "struct Auction.Person",
						"members": [
							{
								"astId": 9,
								"contract": "auction.sol:Auction",
								"label": "remainingTokens",
								"offset": 0,
								"slot": "0",
								"type": "t_uint256"
							},
							{
								"astId": 11,
								"contract": "auction.sol:Auction",
								"label": "personId",
								"offset": 0,
								"slot": "1",
								"type": "t_uint256"
							},
							{
								"astId": 13,
								"contract": "auction.sol:Auction",
								"label": "addr",
								"offset": 0,
								"slot": "2",
								"type": "t_address"
							}
						],
						"numberOfBytes": "96"
					},
					"t_uint256": {
						"encoding": "inplace",
						"label": "uint256",
						"numberOfBytes": "32"
					}
				}
			},
			"userdoc": {
				"kind": "user",
				"methods": {},
				"version": 1
			}
		}
	}
}